{
	"Task1/Mem.sol": {
		"MemEthereum": {
			"abi": [
				{
					"inputs": [],
					"stateMutability": "nonpayable",
					"type": "constructor"
				},
				{
					"anonymous": false,
					"inputs": [
						{
							"indexed": true,
							"internalType": "address",
							"name": "owner",
							"type": "address"
						},
						{
							"indexed": true,
							"internalType": "address",
							"name": "spender",
							"type": "address"
						},
						{
							"indexed": false,
							"internalType": "uint256",
							"name": "value",
							"type": "uint256"
						}
					],
					"name": "Approval",
					"type": "event"
				},
				{
					"anonymous": false,
					"inputs": [
						{
							"indexed": true,
							"internalType": "address",
							"name": "previousOwner",
							"type": "address"
						},
						{
							"indexed": true,
							"internalType": "address",
							"name": "newOwner",
							"type": "address"
						}
					],
					"name": "OwnershipTransferred",
					"type": "event"
				},
				{
					"anonymous": false,
					"inputs": [
						{
							"indexed": true,
							"internalType": "address",
							"name": "from",
							"type": "address"
						},
						{
							"indexed": true,
							"internalType": "address",
							"name": "to",
							"type": "address"
						},
						{
							"indexed": false,
							"internalType": "uint256",
							"name": "value",
							"type": "uint256"
						}
					],
					"name": "Transfer",
					"type": "event"
				},
				{
					"inputs": [
						{
							"internalType": "address",
							"name": "account",
							"type": "address"
						},
						{
							"internalType": "bool",
							"name": "",
							"type": "bool"
						}
					],
					"name": "ExcludedFromFee",
					"outputs": [],
					"stateMutability": "nonpayable",
					"type": "function"
				},
				{
					"inputs": [
						{
							"internalType": "address",
							"name": "account",
							"type": "address"
						},
						{
							"internalType": "bool",
							"name": "",
							"type": "bool"
						}
					],
					"name": "IncludeInFee",
					"outputs": [],
					"stateMutability": "nonpayable",
					"type": "function"
				},
				{
					"inputs": [],
					"name": "_burningFee",
					"outputs": [
						{
							"internalType": "uint256",
							"name": "",
							"type": "uint256"
						}
					],
					"stateMutability": "view",
					"type": "function"
				},
				{
					"inputs": [],
					"name": "_burningFeeTotal",
					"outputs": [
						{
							"internalType": "uint256",
							"name": "",
							"type": "uint256"
						}
					],
					"stateMutability": "view",
					"type": "function"
				},
				{
					"inputs": [],
					"name": "_charity",
					"outputs": [
						{
							"internalType": "uint256",
							"name": "",
							"type": "uint256"
						}
					],
					"stateMutability": "view",
					"type": "function"
				},
				{
					"inputs": [],
					"name": "_charityTotal",
					"outputs": [
						{
							"internalType": "uint256",
							"name": "",
							"type": "uint256"
						}
					],
					"stateMutability": "view",
					"type": "function"
				},
				{
					"inputs": [],
					"name": "_inbetweenFeeTotal",
					"outputs": [
						{
							"internalType": "uint256",
							"name": "",
							"type": "uint256"
						}
					],
					"stateMutability": "view",
					"type": "function"
				},
				{
					"inputs": [],
					"name": "_inbetweenFee_",
					"outputs": [
						{
							"internalType": "uint256",
							"name": "",
							"type": "uint256"
						}
					],
					"stateMutability": "view",
					"type": "function"
				},
				{
					"inputs": [
						{
							"internalType": "address",
							"name": "",
							"type": "address"
						}
					],
					"name": "_lockTimestamp",
					"outputs": [
						{
							"internalType": "uint256",
							"name": "",
							"type": "uint256"
						}
					],
					"stateMutability": "view",
					"type": "function"
				},
				{
					"inputs": [],
					"name": "_lpFee",
					"outputs": [
						{
							"internalType": "uint256",
							"name": "",
							"type": "uint256"
						}
					],
					"stateMutability": "view",
					"type": "function"
				},
				{
					"inputs": [],
					"name": "_lpFeeTotal",
					"outputs": [
						{
							"internalType": "uint256",
							"name": "",
							"type": "uint256"
						}
					],
					"stateMutability": "view",
					"type": "function"
				},
				{
					"inputs": [
						{
							"internalType": "address",
							"name": "owner",
							"type": "address"
						},
						{
							"internalType": "address",
							"name": "spender",
							"type": "address"
						}
					],
					"name": "allowance",
					"outputs": [
						{
							"internalType": "uint256",
							"name": "",
							"type": "uint256"
						}
					],
					"stateMutability": "view",
					"type": "function"
				},
				{
					"inputs": [
						{
							"internalType": "address",
							"name": "spender",
							"type": "address"
						},
						{
							"internalType": "uint256",
							"name": "amount",
							"type": "uint256"
						}
					],
					"name": "approve",
					"outputs": [
						{
							"internalType": "bool",
							"name": "",
							"type": "bool"
						}
					],
					"stateMutability": "nonpayable",
					"type": "function"
				},
				{
					"inputs": [
						{
							"internalType": "address",
							"name": "account",
							"type": "address"
						}
					],
					"name": "balanceOf",
					"outputs": [
						{
							"internalType": "uint256",
							"name": "",
							"type": "uint256"
						}
					],
					"stateMutability": "view",
					"type": "function"
				},
				{
					"inputs": [],
					"name": "burningAddress",
					"outputs": [
						{
							"internalType": "address",
							"name": "",
							"type": "address"
						}
					],
					"stateMutability": "view",
					"type": "function"
				},
				{
					"inputs": [],
					"name": "charityAddress",
					"outputs": [
						{
							"internalType": "address",
							"name": "",
							"type": "address"
						}
					],
					"stateMutability": "view",
					"type": "function"
				},
				{
					"inputs": [],
					"name": "decimals",
					"outputs": [
						{
							"internalType": "uint8",
							"name": "",
							"type": "uint8"
						}
					],
					"stateMutability": "view",
					"type": "function"
				},
				{
					"inputs": [
						{
							"internalType": "address",
							"name": "spender",
							"type": "address"
						},
						{
							"internalType": "uint256",
							"name": "subtractedValue",
							"type": "uint256"
						}
					],
					"name": "decreaseAllowance",
					"outputs": [
						{
							"internalType": "bool",
							"name": "",
							"type": "bool"
						}
					],
					"stateMutability": "nonpayable",
					"type": "function"
				},
				{
					"inputs": [],
					"name": "inbetweenAddress",
					"outputs": [
						{
							"internalType": "address",
							"name": "",
							"type": "address"
						}
					],
					"stateMutability": "view",
					"type": "function"
				},
				{
					"inputs": [
						{
							"internalType": "address",
							"name": "spender",
							"type": "address"
						},
						{
							"internalType": "uint256",
							"name": "addedValue",
							"type": "uint256"
						}
					],
					"name": "increaseAllowance",
					"outputs": [
						{
							"internalType": "bool",
							"name": "",
							"type": "bool"
						}
					],
					"stateMutability": "nonpayable",
					"type": "function"
				},
				{
					"inputs": [],
					"name": "lpAddress",
					"outputs": [
						{
							"internalType": "address",
							"name": "",
							"type": "address"
						}
					],
					"stateMutability": "view",
					"type": "function"
				},
				{
					"inputs": [],
					"name": "maxWalletBalance",
					"outputs": [
						{
							"internalType": "uint256",
							"name": "",
							"type": "uint256"
						}
					],
					"stateMutability": "view",
					"type": "function"
				},
				{
					"inputs": [],
					"name": "name",
					"outputs": [
						{
							"internalType": "string",
							"name": "",
							"type": "string"
						}
					],
					"stateMutability": "view",
					"type": "function"
				},
				{
					"inputs": [],
					"name": "owner",
					"outputs": [
						{
							"internalType": "address",
							"name": "",
							"type": "address"
						}
					],
					"stateMutability": "view",
					"type": "function"
				},
				{
					"inputs": [],
					"name": "renounceOwnership",
					"outputs": [],
					"stateMutability": "nonpayable",
					"type": "function"
				},
				{
					"inputs": [
						{
							"internalType": "address",
							"name": "_Address",
							"type": "address"
						}
					],
					"name": "setLPAddress",
					"outputs": [],
					"stateMutability": "nonpayable",
					"type": "function"
				},
				{
					"inputs": [],
					"name": "symbol",
					"outputs": [
						{
							"internalType": "string",
							"name": "",
							"type": "string"
						}
					],
					"stateMutability": "view",
					"type": "function"
				},
				{
					"inputs": [],
					"name": "totalSupply",
					"outputs": [
						{
							"internalType": "uint256",
							"name": "",
							"type": "uint256"
						}
					],
					"stateMutability": "view",
					"type": "function"
				},
				{
					"inputs": [
						{
							"internalType": "address",
							"name": "recipient",
							"type": "address"
						},
						{
							"internalType": "uint256",
							"name": "amount",
							"type": "uint256"
						}
					],
					"name": "transfer",
					"outputs": [
						{
							"internalType": "bool",
							"name": "",
							"type": "bool"
						}
					],
					"stateMutability": "nonpayable",
					"type": "function"
				},
				{
					"inputs": [
						{
							"internalType": "address",
							"name": "sender",
							"type": "address"
						},
						{
							"internalType": "address",
							"name": "recipient",
							"type": "address"
						},
						{
							"internalType": "uint256",
							"name": "amount",
							"type": "uint256"
						}
					],
					"name": "transferFrom",
					"outputs": [
						{
							"internalType": "bool",
							"name": "",
							"type": "bool"
						}
					],
					"stateMutability": "nonpayable",
					"type": "function"
				},
				{
					"inputs": [
						{
							"internalType": "address",
							"name": "newOwner",
							"type": "address"
						}
					],
					"name": "transferOwnership",
					"outputs": [],
					"stateMutability": "nonpayable",
					"type": "function"
				}
			],
			"devdoc": {
				"kind": "dev",
				"methods": {
					"owner()": {
						"details": "Returns the address of the current owner."
					},
					"renounceOwnership()": {
						"details": "Leaves the contract without owner. It will not be possible to call `onlyOwner` functions anymore. Can only be called by the current owner. NOTE: Renouncing ownership will leave the contract without an owner, thereby removing any functionality that is only available to the owner."
					},
					"transferOwnership(address)": {
						"details": "Transfers ownership of the contract to a new account (`newOwner`). Can only be called by the current owner."
					}
				},
				"version": 1
			},
			"evm": {
				"assembly": "    /* \"Task1/Mem.sol\":11144:11180  string private _name = \"MemEthereum\" */\n  0xc0\n    /* \"Task1/Mem.sol\":11056:19514  contract MemEthereum is IERC20, Ownable {... */\n  0x40\n    /* \"Task1/Mem.sol\":11144:11180  string private _name = \"MemEthereum\" */\n  mstore\n  0x0b\n    /* \"Task1/Mem.sol\":11056:19514  contract MemEthereum is IERC20, Ownable {... */\n  0x80\n    /* \"Task1/Mem.sol\":11144:11180  string private _name = \"MemEthereum\" */\n  swap1\n  dup2\n  mstore\n  mstore(0xa0, shl(0xa8, 0x4d656d457468657265756d))\n  0x01\n  swap1\n  tag_1\n  swap1\n  dup3\n  tag_2\n  jump\t// in\ntag_1:\n  pop\n    /* \"Task1/Mem.sol\":11186:11217  string private _symbol = \"METH\" */\n  0x40\n  dup1\n  mload\n  dup1\n  dup3\n  add\n  swap1\n  swap2\n  mstore\n  0x04\n  dup2\n  mstore\n  shl(0xe3, 0x09a8aa89)\n  0x20\n  dup3\n  add\n  mstore\n  0x02\n  swap1\n  tag_3\n  swap1\n  dup3\n  tag_2\n  jump\t// in\ntag_3:\n  pop\n    /* \"Task1/Mem.sol\":11223:11251  uint8 private _decimals = 18 */\n  0x03\n  dup1\n  sload\n  not(0xff)\n  and\n    /* \"Task1/Mem.sol\":11249:11251  18 */\n  0x12\n    /* \"Task1/Mem.sol\":11223:11251  uint8 private _decimals = 18 */\n  swap1\n  dup2\n  or\n  swap1\n  swap2\n  sstore\n    /* \"Task1/Mem.sol\":11527:11547  100000000000 *10**18 */\n  0x01431e0fae6d7217caa0000000\n    /* \"Task1/Mem.sol\":11494:11547  uint256 internal _totalSupply =  100000000000 *10**18 */\n  0x08\n  sstore\n    /* \"Task1/Mem.sol\":11580:11583  100 */\n  0x64\n    /* \"Task1/Mem.sol\":11554:11583  uint256 public _charity = 100 */\n  0x09\n  dup2\n  swap1\n  sstore\n    /* \"Task1/Mem.sol\":11599:11631  uint256 public _burningFee = 100 */\n  0x0a\n  dup2\n  swap1\n  sstore\n    /* \"Task1/Mem.sol\":11644:11671  uint256 public _lpFee = 100 */\n  0x0b\n  sstore\n    /* \"Task1/Mem.sol\":11715:11718  300 */\n  0x012c\n    /* \"Task1/Mem.sol\":11683:11718  uint256 public _inbetweenFee_ = 300 */\n  0x0c\n  sstore\n    /* \"Task1/Mem.sol\":11872:11947  address public charityAddress  = 0x2CD2BD245b2C563C98356B543d6C9a1aBf7353C5 */\n  0x11\n  dup1\n  sload\n  not(sub(shl(0xa0, 0x01), 0x01))\n  swap1\n  dup2\n  and\n    /* \"Task1/Mem.sol\":11905:11947  0x2CD2BD245b2C563C98356B543d6C9a1aBf7353C5 */\n  0x2cd2bd245b2c563c98356b543d6c9a1abf7353c5\n    /* \"Task1/Mem.sol\":11872:11947  address public charityAddress  = 0x2CD2BD245b2C563C98356B543d6C9a1aBf7353C5 */\n  or\n  swap1\n  swap2\n  sstore\n    /* \"Task1/Mem.sol\":11958:12032  address public burningAddress = 0x0000000000000000000000000000000000000000 */\n  dup2\n  sload\n  dup2\n  and\n  swap1\n  swap2\n  sstore\n    /* \"Task1/Mem.sol\":12117:12193  address public inbetweenAddress = 0x80Dc1B16eB733Ca49B289f6B39090EC0dC0222a8 */\n  0x14\n  dup1\n  sload\n  swap1\n  swap2\n  and\n    /* \"Task1/Mem.sol\":12151:12193  0x80Dc1B16eB733Ca49B289f6B39090EC0dC0222a8 */\n  0x80dc1b16eb733ca49b289f6b39090ec0dc0222a8\n    /* \"Task1/Mem.sol\":12117:12193  address public inbetweenAddress = 0x80Dc1B16eB733Ca49B289f6B39090EC0dC0222a8 */\n  or\n  swap1\n  sstore\n    /* \"Task1/Mem.sol\":12238:12255  3000000000*10**18 */\n  0x09b18ab5df7180b6b8000000\n    /* \"Task1/Mem.sol\":12204:12255  uint256 public maxWalletBalance = 3000000000*10**18 */\n  0x15\n  sstore\n    /* \"Task1/Mem.sol\":12664:12906  constructor() {... */\n  callvalue\n  dup1\n  iszero\n  tag_4\n  jumpi\n  0x00\n  dup1\n  revert\ntag_4:\n  pop\n    /* \"Task1/Mem.sol\":8675:8707  _transferOwnership(_msgSender()) */\n  tag_8\n    /* \"Task1/Mem.sol\":7569:7579  msg.sender */\n  caller\n    /* \"Task1/Mem.sol\":8675:8693  _transferOwnership */\n  tag_11\n    /* \"Task1/Mem.sol\":8675:8707  _transferOwnership(_msgSender()) */\n  jump\t// in\ntag_8:\n    /* \"Task1/Mem.sol\":12707:12717  msg.sender */\n  caller\n    /* \"Task1/Mem.sol\":12689:12718  isExcludedFromFee[msg.sender] */\n  0x00\n  dup2\n  dup2\n  mstore\n    /* \"Task1/Mem.sol\":12689:12706  isExcludedFromFee */\n  0x06\n    /* \"Task1/Mem.sol\":12689:12718  isExcludedFromFee[msg.sender] */\n  0x20\n  swap1\n  dup2\n  mstore\n  0x40\n  dup1\n  dup4\n  keccak256\n    /* \"Task1/Mem.sol\":12689:12725  isExcludedFromFee[msg.sender] = true */\n  dup1\n  sload\n    /* \"Task1/Mem.sol\":12721:12725  true */\n  0x01\n  not(0xff)\n    /* \"Task1/Mem.sol\":12689:12725  isExcludedFromFee[msg.sender] = true */\n  swap2\n  dup3\n  and\n  dup2\n  or\n  swap1\n  swap3\n  sstore\n    /* \"Task1/Mem.sol\":12761:12765  this */\n  address\n    /* \"Task1/Mem.sol\":12735:12767  isExcludedFromFee[address(this)] */\n  dup6\n  mstore\n  dup3\n  dup6\n  keccak256\n    /* \"Task1/Mem.sol\":12735:12774  isExcludedFromFee[address(this)] = true */\n  dup1\n  sload\n  swap1\n  swap2\n  and\n  swap1\n  swap2\n  or\n  swap1\n  sstore\n    /* \"Task1/Mem.sol\":12808:12820  _totalSupply */\n  sload(0x08)\n    /* \"Task1/Mem.sol\":12784:12805  _balances[msg.sender] */\n  dup5\n  dup5\n  mstore\n    /* \"Task1/Mem.sol\":12784:12793  _balances */\n  0x04\n    /* \"Task1/Mem.sol\":12784:12805  _balances[msg.sender] */\n  dup4\n  mstore\n  dup2\n  dup5\n  keccak256\n    /* \"Task1/Mem.sol\":12784:12820  _balances[msg.sender] = _totalSupply */\n  dup2\n  swap1\n  sstore\n    /* \"Task1/Mem.sol\":12852:12898  Transfer(address(0), msg.sender, _totalSupply) */\n  swap1\n  mload\n    /* \"#utility.yul\":2881:2906   */\n  swap1\n  dup2\n  mstore\n    /* \"Task1/Mem.sol\":12852:12898  Transfer(address(0), msg.sender, _totalSupply) */\n  0xddf252ad1be2c89b69c2b068fc378daa952ba7f163c4a11628f55a4df523b3ef\n  swap2\n    /* \"#utility.yul\":2854:2872   */\n  add\n    /* \"Task1/Mem.sol\":12852:12898  Transfer(address(0), msg.sender, _totalSupply) */\n  mload(0x40)\n  dup1\n  swap2\n  sub\n  swap1\n  log3\n    /* \"Task1/Mem.sol\":11056:19514  contract MemEthereum is IERC20, Ownable {... */\n  jump(tag_23)\n    /* \"Task1/Mem.sol\":10172:10359  function _transferOwnership(address newOwner) internal virtual {... */\ntag_11:\n    /* \"Task1/Mem.sol\":10245:10261  address oldOwner */\n  0x00\n    /* \"Task1/Mem.sol\":10264:10270  _owner */\n  dup1\n  sload\n  sub(shl(0xa0, 0x01), 0x01)\n    /* \"Task1/Mem.sol\":10280:10297  _owner = newOwner */\n  dup4\n  dup2\n  and\n  not(sub(shl(0xa0, 0x01), 0x01))\n  dup4\n  and\n  dup2\n  or\n  dup5\n  sstore\n    /* \"Task1/Mem.sol\":10312:10352  OwnershipTransferred(oldOwner, newOwner) */\n  mload(0x40)\n    /* \"Task1/Mem.sol\":10264:10270  _owner */\n  swap2\n  swap1\n  swap3\n  and\n  swap3\n  dup4\n  swap2\n    /* \"Task1/Mem.sol\":10312:10352  OwnershipTransferred(oldOwner, newOwner) */\n  0x8be0079c531659141344cd1fd0a4f28419497f9722a3daafe3b4186f6b6457e0\n  swap2\n    /* \"Task1/Mem.sol\":10245:10261  address oldOwner */\n  swap1\n    /* \"Task1/Mem.sol\":10312:10352  OwnershipTransferred(oldOwner, newOwner) */\n  log3\n    /* \"Task1/Mem.sol\":10235:10359  {... */\n  pop\n    /* \"Task1/Mem.sol\":10172:10359  function _transferOwnership(address newOwner) internal virtual {... */\n  pop\n  jump\t// out\n    /* \"#utility.yul\":14:141   */\ntag_18:\n    /* \"#utility.yul\":75:85   */\n  0x4e487b71\n    /* \"#utility.yul\":70:73   */\n  0xe0\n    /* \"#utility.yul\":66:86   */\n  shl\n    /* \"#utility.yul\":63:64   */\n  0x00\n    /* \"#utility.yul\":56:87   */\n  mstore\n    /* \"#utility.yul\":106:110   */\n  0x41\n    /* \"#utility.yul\":103:104   */\n  0x04\n    /* \"#utility.yul\":96:111   */\n  mstore\n    /* \"#utility.yul\":130:134   */\n  0x24\n    /* \"#utility.yul\":127:128   */\n  0x00\n    /* \"#utility.yul\":120:135   */\n  revert\n    /* \"#utility.yul\":146:526   */\ntag_19:\n    /* \"#utility.yul\":225:226   */\n  0x01\n    /* \"#utility.yul\":221:233   */\n  dup2\n  dup2\n  shr\n  swap1\n    /* \"#utility.yul\":268:280   */\n  dup3\n  and\n  dup1\n    /* \"#utility.yul\":289:350   */\n  tag_26\n  jumpi\n    /* \"#utility.yul\":343:347   */\n  0x7f\n    /* \"#utility.yul\":335:341   */\n  dup3\n    /* \"#utility.yul\":331:348   */\n  and\n    /* \"#utility.yul\":321:348   */\n  swap2\n  pop\n    /* \"#utility.yul\":289:350   */\ntag_26:\n    /* \"#utility.yul\":396:398   */\n  0x20\n    /* \"#utility.yul\":388:394   */\n  dup3\n    /* \"#utility.yul\":385:399   */\n  lt\n    /* \"#utility.yul\":365:383   */\n  dup2\n    /* \"#utility.yul\":362:400   */\n  sub\n    /* \"#utility.yul\":359:520   */\n  tag_27\n  jumpi\n    /* \"#utility.yul\":442:452   */\n  0x4e487b71\n    /* \"#utility.yul\":437:440   */\n  0xe0\n    /* \"#utility.yul\":433:453   */\n  shl\n    /* \"#utility.yul\":430:431   */\n  0x00\n    /* \"#utility.yul\":423:454   */\n  mstore\n    /* \"#utility.yul\":477:481   */\n  0x22\n    /* \"#utility.yul\":474:475   */\n  0x04\n    /* \"#utility.yul\":467:482   */\n  mstore\n    /* \"#utility.yul\":505:509   */\n  0x24\n    /* \"#utility.yul\":502:503   */\n  0x00\n    /* \"#utility.yul\":495:510   */\n  revert\n    /* \"#utility.yul\":359:520   */\ntag_27:\n  pop\n    /* \"#utility.yul\":146:526   */\n  swap2\n  swap1\n  pop\n  jump\t// out\n    /* \"#utility.yul\":657:1202   */\ntag_21:\n    /* \"#utility.yul\":759:761   */\n  0x1f\n    /* \"#utility.yul\":754:757   */\n  dup3\n    /* \"#utility.yul\":751:762   */\n  gt\n    /* \"#utility.yul\":748:1196   */\n  iszero\n  tag_30\n  jumpi\n    /* \"#utility.yul\":795:796   */\n  0x00\n    /* \"#utility.yul\":820:825   */\n  dup2\n    /* \"#utility.yul\":816:818   */\n  dup2\n    /* \"#utility.yul\":809:826   */\n  mstore\n    /* \"#utility.yul\":865:869   */\n  0x20\n    /* \"#utility.yul\":861:863   */\n  dup2\n    /* \"#utility.yul\":851:870   */\n  keccak256\n    /* \"#utility.yul\":935:937   */\n  0x1f\n    /* \"#utility.yul\":923:933   */\n  dup6\n    /* \"#utility.yul\":919:938   */\n  add\n    /* \"#utility.yul\":916:917   */\n  0x05\n    /* \"#utility.yul\":912:939   */\n  shr\n    /* \"#utility.yul\":906:910   */\n  dup2\n    /* \"#utility.yul\":902:940   */\n  add\n    /* \"#utility.yul\":971:975   */\n  0x20\n    /* \"#utility.yul\":959:969   */\n  dup7\n    /* \"#utility.yul\":956:976   */\n  lt\n    /* \"#utility.yul\":953:1000   */\n  iszero\n  tag_31\n  jumpi\n  pop\n    /* \"#utility.yul\":994:998   */\n  dup1\n    /* \"#utility.yul\":953:1000   */\ntag_31:\n    /* \"#utility.yul\":1049:1051   */\n  0x1f\n    /* \"#utility.yul\":1044:1047   */\n  dup6\n    /* \"#utility.yul\":1040:1052   */\n  add\n    /* \"#utility.yul\":1037:1038   */\n  0x05\n    /* \"#utility.yul\":1033:1053   */\n  shr\n    /* \"#utility.yul\":1027:1031   */\n  dup3\n    /* \"#utility.yul\":1023:1054   */\n  add\n    /* \"#utility.yul\":1013:1054   */\n  swap2\n  pop\n    /* \"#utility.yul\":1104:1186   */\ntag_32:\n    /* \"#utility.yul\":1122:1124   */\n  dup2\n    /* \"#utility.yul\":1115:1120   */\n  dup2\n    /* \"#utility.yul\":1112:1125   */\n  lt\n    /* \"#utility.yul\":1104:1186   */\n  iszero\n  tag_34\n  jumpi\n    /* \"#utility.yul\":1167:1184   */\n  dup3\n  dup2\n  sstore\n    /* \"#utility.yul\":1148:1149   */\n  0x01\n    /* \"#utility.yul\":1137:1150   */\n  add\n    /* \"#utility.yul\":1104:1186   */\n  jump(tag_32)\ntag_34:\n    /* \"#utility.yul\":1108:1111   */\n  pop\n  pop\n  pop\n    /* \"#utility.yul\":748:1196   */\ntag_30:\n    /* \"#utility.yul\":657:1202   */\n  pop\n  pop\n  pop\n  jump\t// out\n    /* \"#utility.yul\":1378:2730   */\ntag_2:\n    /* \"#utility.yul\":1498:1508   */\n  dup2\n  mload\n  sub(shl(0x40, 0x01), 0x01)\n    /* \"#utility.yul\":1520:1550   */\n  dup2\n  gt\n    /* \"#utility.yul\":1517:1573   */\n  iszero\n  tag_38\n  jumpi\n    /* \"#utility.yul\":1553:1571   */\n  tag_38\n  tag_18\n  jump\t// in\ntag_38:\n    /* \"#utility.yul\":1582:1679   */\n  tag_39\n    /* \"#utility.yul\":1672:1678   */\n  dup2\n    /* \"#utility.yul\":1632:1670   */\n  tag_40\n    /* \"#utility.yul\":1664:1668   */\n  dup5\n    /* \"#utility.yul\":1658:1669   */\n  sload\n    /* \"#utility.yul\":1632:1670   */\n  tag_19\n  jump\t// in\ntag_40:\n    /* \"#utility.yul\":1626:1630   */\n  dup5\n    /* \"#utility.yul\":1582:1679   */\n  tag_21\n  jump\t// in\ntag_39:\n    /* \"#utility.yul\":1734:1738   */\n  0x20\n  dup1\n    /* \"#utility.yul\":1798:1800   */\n  0x1f\n    /* \"#utility.yul\":1787:1801   */\n  dup4\n  gt\n    /* \"#utility.yul\":1815:1816   */\n  0x01\n    /* \"#utility.yul\":1810:2473   */\n  dup2\n  eq\n  tag_42\n  jumpi\n    /* \"#utility.yul\":2517:2518   */\n  0x00\n    /* \"#utility.yul\":2534:2540   */\n  dup5\n    /* \"#utility.yul\":2531:2620   */\n  iszero\n  tag_43\n  jumpi\n  pop\n    /* \"#utility.yul\":2586:2605   */\n  dup6\n  dup4\n  add\n    /* \"#utility.yul\":2580:2606   */\n  mload\n    /* \"#utility.yul\":2531:2620   */\ntag_43:\n  not(0x00)\n    /* \"#utility.yul\":1335:1336   */\n  0x03\n    /* \"#utility.yul\":1331:1342   */\n  dup7\n  swap1\n  shl\n    /* \"#utility.yul\":1327:1351   */\n  shr\n    /* \"#utility.yul\":1323:1352   */\n  not\n    /* \"#utility.yul\":1313:1353   */\n  and\n    /* \"#utility.yul\":1359:1360   */\n  0x01\n    /* \"#utility.yul\":1355:1366   */\n  dup6\n  swap1\n  shl\n    /* \"#utility.yul\":1310:1367   */\n  or\n    /* \"#utility.yul\":2633:2714   */\n  dup6\n  sstore\n    /* \"#utility.yul\":1780:2724   */\n  jump(tag_34)\n    /* \"#utility.yul\":1810:2473   */\ntag_42:\n    /* \"#utility.yul\":604:605   */\n  0x00\n    /* \"#utility.yul\":597:611   */\n  dup6\n  dup2\n  mstore\n    /* \"#utility.yul\":641:645   */\n  0x20\n    /* \"#utility.yul\":628:646   */\n  dup2\n  keccak256\n  not(0x1f)\n    /* \"#utility.yul\":1846:1866   */\n  dup7\n  and\n  swap2\n    /* \"#utility.yul\":1964:2200   */\ntag_46:\n    /* \"#utility.yul\":1978:1985   */\n  dup3\n    /* \"#utility.yul\":1975:1976   */\n  dup2\n    /* \"#utility.yul\":1972:1986   */\n  lt\n    /* \"#utility.yul\":1964:2200   */\n  iszero\n  tag_48\n  jumpi\n    /* \"#utility.yul\":2067:2086   */\n  dup9\n  dup7\n  add\n    /* \"#utility.yul\":2061:2087   */\n  mload\n    /* \"#utility.yul\":2046:2088   */\n  dup3\n  sstore\n    /* \"#utility.yul\":2159:2186   */\n  swap5\n  dup5\n  add\n  swap5\n    /* \"#utility.yul\":2127:2128   */\n  0x01\n    /* \"#utility.yul\":2115:2129   */\n  swap1\n  swap2\n  add\n  swap1\n    /* \"#utility.yul\":1994:2013   */\n  dup5\n  add\n    /* \"#utility.yul\":1964:2200   */\n  jump(tag_46)\ntag_48:\n    /* \"#utility.yul\":1968:1971   */\n  pop\n    /* \"#utility.yul\":2228:2234   */\n  dup6\n    /* \"#utility.yul\":2219:2226   */\n  dup3\n    /* \"#utility.yul\":2216:2235   */\n  lt\n    /* \"#utility.yul\":2213:2414   */\n  iszero\n  tag_49\n  jumpi\n    /* \"#utility.yul\":2289:2308   */\n  dup8\n  dup6\n  add\n    /* \"#utility.yul\":2283:2309   */\n  mload\n  not(0x00)\n    /* \"#utility.yul\":2372:2373   */\n  0x03\n    /* \"#utility.yul\":2368:2382   */\n  dup9\n  swap1\n  shl\n    /* \"#utility.yul\":2384:2387   */\n  0xf8\n    /* \"#utility.yul\":2364:2388   */\n  and\n    /* \"#utility.yul\":2360:2397   */\n  shr\n    /* \"#utility.yul\":2356:2398   */\n  not\n    /* \"#utility.yul\":2341:2399   */\n  and\n    /* \"#utility.yul\":2326:2400   */\n  dup2\n  sstore\n    /* \"#utility.yul\":2213:2414   */\ntag_49:\n  pop\n  pop\n  pop\n  pop\n  pop\n    /* \"#utility.yul\":2460:2461   */\n  0x01\n    /* \"#utility.yul\":2444:2458   */\n  swap1\n  dup2\n  shl\n    /* \"#utility.yul\":2440:2462   */\n  add\n    /* \"#utility.yul\":2427:2463   */\n  swap1\n  sstore\n  pop\n    /* \"#utility.yul\":1378:2730   */\n  jump\t// out\n    /* \"#utility.yul\":2735:2912   */\ntag_23:\n    /* \"Task1/Mem.sol\":11056:19514  contract MemEthereum is IERC20, Ownable {... */\n  dataSize(sub_0)\n  dup1\n  dataOffset(sub_0)\n  0x00\n  codecopy\n  0x00\n  return\nstop\n\nsub_0: assembly {\n        /* \"Task1/Mem.sol\":11056:19514  contract MemEthereum is IERC20, Ownable {... */\n      mstore(0x40, 0x80)\n      callvalue\n      dup1\n      iszero\n      tag_1\n      jumpi\n      0x00\n      dup1\n      revert\n    tag_1:\n      pop\n      jumpi(tag_2, lt(calldatasize, 0x04))\n      shr(0xe0, calldataload(0x00))\n      dup1\n      0x70a08231\n      gt\n      tag_34\n      jumpi\n      dup1\n      0xa9059cbb\n      gt\n      tag_35\n      jumpi\n      dup1\n      0xbcac9176\n      gt\n      tag_36\n      jumpi\n      dup1\n      0xbcac9176\n      eq\n      tag_30\n      jumpi\n      dup1\n      0xceae0e8d\n      eq\n      tag_31\n      jumpi\n      dup1\n      0xdd62ed3e\n      eq\n      tag_32\n      jumpi\n      dup1\n      0xf2fde38b\n      eq\n      tag_33\n      jumpi\n      0x00\n      dup1\n      revert\n    tag_36:\n      dup1\n      0xa9059cbb\n      eq\n      tag_26\n      jumpi\n      dup1\n      0xad0a00aa\n      eq\n      tag_27\n      jumpi\n      dup1\n      0xafcf2fc4\n      eq\n      tag_28\n      jumpi\n      dup1\n      0xbbde77c1\n      eq\n      tag_29\n      jumpi\n      0x00\n      dup1\n      revert\n    tag_35:\n      dup1\n      0x8da5cb5b\n      gt\n      tag_37\n      jumpi\n      dup1\n      0x8da5cb5b\n      eq\n      tag_22\n      jumpi\n      dup1\n      0x95d89b41\n      eq\n      tag_23\n      jumpi\n      dup1\n      0x9b4dc8cc\n      eq\n      tag_24\n      jumpi\n      dup1\n      0xa457c2d7\n      eq\n      tag_25\n      jumpi\n      0x00\n      dup1\n      revert\n    tag_37:\n      dup1\n      0x70a08231\n      eq\n      tag_18\n      jumpi\n      dup1\n      0x715018a6\n      eq\n      tag_19\n      jumpi\n      dup1\n      0x7a351a1d\n      eq\n      tag_20\n      jumpi\n      dup1\n      0x82d99cb1\n      eq\n      tag_21\n      jumpi\n      0x00\n      dup1\n      revert\n    tag_34:\n      dup1\n      0x2d43abd8\n      gt\n      tag_38\n      jumpi\n      dup1\n      0x48112396\n      gt\n      tag_39\n      jumpi\n      dup1\n      0x48112396\n      eq\n      tag_14\n      jumpi\n      dup1\n      0x4f8244f4\n      eq\n      tag_15\n      jumpi\n      dup1\n      0x52db1ca4\n      eq\n      tag_16\n      jumpi\n      dup1\n      0x6c726137\n      eq\n      tag_17\n      jumpi\n      0x00\n      dup1\n      revert\n    tag_39:\n      dup1\n      0x2d43abd8\n      eq\n      tag_10\n      jumpi\n      dup1\n      0x313ce567\n      eq\n      tag_11\n      jumpi\n      dup1\n      0x3871ef64\n      eq\n      tag_12\n      jumpi\n      dup1\n      0x39509351\n      eq\n      tag_13\n      jumpi\n      0x00\n      dup1\n      revert\n    tag_38:\n      dup1\n      0x15c93a7d\n      gt\n      tag_40\n      jumpi\n      dup1\n      0x15c93a7d\n      eq\n      tag_6\n      jumpi\n      dup1\n      0x18160ddd\n      eq\n      tag_7\n      jumpi\n      dup1\n      0x23b872dd\n      eq\n      tag_8\n      jumpi\n      dup1\n      0x27364d21\n      eq\n      tag_9\n      jumpi\n      0x00\n      dup1\n      revert\n    tag_40:\n      dup1\n      0x02fb4880\n      eq\n      tag_3\n      jumpi\n      dup1\n      0x06fdde03\n      eq\n      tag_4\n      jumpi\n      dup1\n      0x095ea7b3\n      eq\n      tag_5\n      jumpi\n    tag_2:\n      0x00\n      dup1\n      revert\n        /* \"Task1/Mem.sol\":11437:11487  mapping(address => uint256) public  _lockTimestamp */\n    tag_3:\n      tag_41\n      tag_42\n      calldatasize\n      0x04\n      tag_43\n      jump\t// in\n    tag_42:\n      mstore(0x20, 0x07)\n      0x00\n      swap1\n      dup2\n      mstore\n      0x40\n      swap1\n      keccak256\n      sload\n      dup2\n      jump\n    tag_41:\n      mload(0x40)\n        /* \"#utility.yul\":529:554   */\n      swap1\n      dup2\n      mstore\n        /* \"#utility.yul\":517:519   */\n      0x20\n        /* \"#utility.yul\":502:520   */\n      add\n        /* \"Task1/Mem.sol\":11437:11487  mapping(address => uint256) public  _lockTimestamp */\n    tag_45:\n      mload(0x40)\n      dup1\n      swap2\n      sub\n      swap1\n      return\n        /* \"Task1/Mem.sol\":12912:12993  function name() public view returns (string memory) {... */\n    tag_4:\n      tag_47\n      tag_48\n      jump\t// in\n    tag_47:\n      mload(0x40)\n      tag_45\n      swap2\n      swap1\n      tag_50\n      jump\t// in\n        /* \"Task1/Mem.sol\":13830:13986  function approve(address spender, uint256 amount) public override returns (bool) {... */\n    tag_5:\n      tag_51\n      tag_52\n      calldatasize\n      0x04\n      tag_53\n      jump\t// in\n    tag_52:\n      tag_54\n      jump\t// in\n    tag_51:\n      mload(0x40)\n        /* \"#utility.yul\":1542:1556   */\n      swap1\n      iszero\n        /* \"#utility.yul\":1535:1557   */\n      iszero\n        /* \"#utility.yul\":1517:1558   */\n      dup2\n      mstore\n        /* \"#utility.yul\":1505:1507   */\n      0x20\n        /* \"#utility.yul\":1490:1508   */\n      add\n        /* \"Task1/Mem.sol\":13830:13986  function approve(address spender, uint256 amount) public override returns (bool) {... */\n      tag_45\n        /* \"#utility.yul\":1377:1564   */\n      jump\n        /* \"Task1/Mem.sol\":11644:11671  uint256 public _lpFee = 100 */\n    tag_6:\n      tag_41\n      sload(0x0b)\n      dup2\n      jump\n        /* \"Task1/Mem.sol\":13177:13275  function totalSupply() public override view returns (uint256) {... */\n    tag_7:\n        /* \"Task1/Mem.sol\":13256:13268  _totalSupply */\n      sload(0x08)\n        /* \"Task1/Mem.sol\":13177:13275  function totalSupply() public override view returns (uint256) {... */\n      jump(tag_41)\n        /* \"Task1/Mem.sol\":13992:14431  function transferFrom(address sender, address recipient, uint256 amount) public antiBot(msg.sender) override virtual returns (bool) {... */\n    tag_8:\n      tag_51\n      tag_64\n      calldatasize\n      0x04\n      tag_65\n      jump\t// in\n    tag_64:\n      tag_66\n      jump\t// in\n        /* \"Task1/Mem.sol\":11801:11827  uint256 public _lpFeeTotal */\n    tag_9:\n      tag_41\n      sload(0x0f)\n      dup2\n      jump\n        /* \"Task1/Mem.sol\":19119:19234  function ExcludedFromFee(address account, bool) public onlyOwner {... */\n    tag_10:\n      tag_71\n      tag_72\n      calldatasize\n      0x04\n      tag_73\n      jump\t// in\n    tag_72:\n      tag_74\n      jump\t// in\n    tag_71:\n      stop\n        /* \"Task1/Mem.sol\":13090:13171  function decimals() public view returns (uint8) {... */\n    tag_11:\n        /* \"Task1/Mem.sol\":13155:13164  _decimals */\n      sload(0x03)\n        /* \"Task1/Mem.sol\":13090:13171  function decimals() public view returns (uint8) {... */\n      mload(0x40)\n        /* \"Task1/Mem.sol\":13155:13164  _decimals */\n      0xff\n      swap1\n      swap2\n      and\n        /* \"#utility.yul\":2396:2432   */\n      dup2\n      mstore\n        /* \"#utility.yul\":2384:2386   */\n      0x20\n        /* \"#utility.yul\":2369:2387   */\n      add\n        /* \"Task1/Mem.sol\":13090:13171  function decimals() public view returns (uint8) {... */\n      tag_45\n        /* \"#utility.yul\":2254:2438   */\n      jump\n        /* \"Task1/Mem.sol\":12117:12193  address public inbetweenAddress = 0x80Dc1B16eB733Ca49B289f6B39090EC0dC0222a8 */\n    tag_12:\n      sload(0x14)\n      tag_79\n      swap1\n      sub(shl(0xa0, 0x01), 0x01)\n      and\n      dup2\n      jump\n    tag_79:\n      mload(0x40)\n      sub(shl(0xa0, 0x01), 0x01)\n        /* \"#utility.yul\":2607:2639   */\n      swap1\n      swap2\n      and\n        /* \"#utility.yul\":2589:2640   */\n      dup2\n      mstore\n        /* \"#utility.yul\":2577:2579   */\n      0x20\n        /* \"#utility.yul\":2562:2580   */\n      add\n        /* \"Task1/Mem.sol\":12117:12193  address public inbetweenAddress = 0x80Dc1B16eB733Ca49B289f6B39090EC0dC0222a8 */\n      tag_45\n        /* \"#utility.yul\":2443:2646   */\n      jump\n        /* \"Task1/Mem.sol\":14437:14648  function increaseAllowance(address spender, uint256 addedValue) public virtual returns (bool) {... */\n    tag_13:\n      tag_51\n      tag_84\n      calldatasize\n      0x04\n      tag_53\n      jump\t// in\n    tag_84:\n      tag_85\n      jump\t// in\n        /* \"Task1/Mem.sol\":11958:12032  address public burningAddress = 0x0000000000000000000000000000000000000000 */\n    tag_14:\n      sload(0x12)\n      tag_79\n      swap1\n      sub(shl(0xa0, 0x01), 0x01)\n      and\n      dup2\n      jump\n        /* \"Task1/Mem.sol\":11833:11866  uint256 public _inbetweenFeeTotal */\n    tag_15:\n      tag_41\n      sload(0x10)\n      dup2\n      jump\n        /* \"Task1/Mem.sol\":11730:11758  uint256 public _charityTotal */\n    tag_16:\n      tag_41\n      sload(0x0d)\n      dup2\n      jump\n        /* \"Task1/Mem.sol\":19244:19357  function IncludeInFee(address account, bool) public onlyOwner {... */\n    tag_17:\n      tag_71\n      tag_97\n      calldatasize\n      0x04\n      tag_73\n      jump\t// in\n    tag_97:\n      tag_98\n      jump\t// in\n        /* \"Task1/Mem.sol\":13281:13399  function balanceOf(address account) public override view returns (uint256) {... */\n    tag_18:\n      tag_41\n      tag_100\n      calldatasize\n      0x04\n      tag_43\n      jump\t// in\n    tag_100:\n      sub(shl(0xa0, 0x01), 0x01)\n        /* \"Task1/Mem.sol\":13374:13392  _balances[account] */\n      and\n        /* \"Task1/Mem.sol\":13347:13354  uint256 */\n      0x00\n        /* \"Task1/Mem.sol\":13374:13392  _balances[account] */\n      swap1\n      dup2\n      mstore\n        /* \"Task1/Mem.sol\":13374:13383  _balances */\n      0x04\n        /* \"Task1/Mem.sol\":13374:13392  _balances[account] */\n      0x20\n      mstore\n      0x40\n      swap1\n      keccak256\n      sload\n      swap1\n        /* \"Task1/Mem.sol\":13281:13399  function balanceOf(address account) public override view returns (uint256) {... */\n      jump\n        /* \"Task1/Mem.sol\":9570:9671  function renounceOwnership() public virtual onlyOwner {... */\n    tag_19:\n      tag_71\n      tag_104\n      jump\t// in\n        /* \"Task1/Mem.sol\":19368:19511  function setLPAddress(address _Address) public onlyOwner {... */\n    tag_20:\n      tag_71\n      tag_106\n      calldatasize\n      0x04\n      tag_43\n      jump\t// in\n    tag_106:\n      tag_107\n      jump\t// in\n        /* \"Task1/Mem.sol\":11554:11583  uint256 public _charity = 100 */\n    tag_21:\n      tag_41\n      sload(0x09)\n      dup2\n      jump\n        /* \"Task1/Mem.sol\":8940:9025  function owner() public view virtual returns (address) {... */\n    tag_22:\n        /* \"Task1/Mem.sol\":8986:8993  address */\n      0x00\n        /* \"Task1/Mem.sol\":9012:9018  _owner */\n      sload\n      sub(shl(0xa0, 0x01), 0x01)\n      and\n        /* \"Task1/Mem.sol\":8940:9025  function owner() public view virtual returns (address) {... */\n      jump(tag_79)\n        /* \"Task1/Mem.sol\":12999:13084  function symbol() public view returns (string memory) {... */\n    tag_23:\n      tag_47\n      tag_115\n      jump\t// in\n        /* \"Task1/Mem.sol\":12040:12064  address public lpAddress */\n    tag_24:\n      sload(0x13)\n      tag_79\n      swap1\n      sub(shl(0xa0, 0x01), 0x01)\n      and\n      dup2\n      jump\n        /* \"Task1/Mem.sol\":14654:14916  function decreaseAllowance(address spender, uint256 subtractedValue) public virtual returns (bool) {... */\n    tag_25:\n      tag_51\n      tag_121\n      calldatasize\n      0x04\n      tag_53\n      jump\t// in\n    tag_121:\n      tag_122\n      jump\t// in\n        /* \"Task1/Mem.sol\":13405:13677  function transfer(address recipient, uint256 amount) public  antiBot(msg.sender) maxWallet( recipient, amount) override virtual returns (bool) {... */\n    tag_26:\n      tag_51\n      tag_125\n      calldatasize\n      0x04\n      tag_53\n      jump\t// in\n    tag_125:\n      tag_126\n      jump\t// in\n        /* \"Task1/Mem.sol\":11599:11631  uint256 public _burningFee = 100 */\n    tag_27:\n      tag_41\n      sload(0x0a)\n      dup2\n      jump\n        /* \"Task1/Mem.sol\":11872:11947  address public charityAddress  = 0x2CD2BD245b2C563C98356B543d6C9a1aBf7353C5 */\n    tag_28:\n      sload(0x11)\n      tag_79\n      swap1\n      sub(shl(0xa0, 0x01), 0x01)\n      and\n      dup2\n      jump\n        /* \"Task1/Mem.sol\":12204:12255  uint256 public maxWalletBalance = 3000000000*10**18 */\n    tag_29:\n      tag_41\n      sload(0x15)\n      dup2\n      jump\n        /* \"Task1/Mem.sol\":11683:11718  uint256 public _inbetweenFee_ = 300 */\n    tag_30:\n      tag_41\n      sload(0x0c)\n      dup2\n      jump\n        /* \"Task1/Mem.sol\":11764:11795  uint256 public _burningFeeTotal */\n    tag_31:\n      tag_41\n      sload(0x0e)\n      dup2\n      jump\n        /* \"Task1/Mem.sol\":13683:13824  function allowance(address owner, address spender) public override view returns (uint256) {... */\n    tag_32:\n      tag_41\n      tag_144\n      calldatasize\n      0x04\n      tag_145\n      jump\t// in\n    tag_144:\n      sub(shl(0xa0, 0x01), 0x01)\n        /* \"Task1/Mem.sol\":13790:13808  _allowances[owner] */\n      swap2\n      dup3\n      and\n        /* \"Task1/Mem.sol\":13764:13771  uint256 */\n      0x00\n        /* \"Task1/Mem.sol\":13790:13808  _allowances[owner] */\n      swap1\n      dup2\n      mstore\n        /* \"Task1/Mem.sol\":13790:13801  _allowances */\n      0x05\n        /* \"Task1/Mem.sol\":13790:13808  _allowances[owner] */\n      0x20\n      swap1\n      dup2\n      mstore\n      0x40\n      dup1\n      dup4\n      keccak256\n        /* \"Task1/Mem.sol\":13790:13817  _allowances[owner][spender] */\n      swap4\n      swap1\n      swap5\n      and\n      dup3\n      mstore\n      swap2\n      swap1\n      swap2\n      mstore\n      keccak256\n      sload\n      swap1\n        /* \"Task1/Mem.sol\":13683:13824  function allowance(address owner, address spender) public override view returns (uint256) {... */\n      jump\n        /* \"Task1/Mem.sol\":9820:10018  function transferOwnership(address newOwner) public virtual onlyOwner {... */\n    tag_33:\n      tag_71\n      tag_149\n      calldatasize\n      0x04\n      tag_43\n      jump\t// in\n    tag_149:\n      tag_150\n      jump\t// in\n        /* \"Task1/Mem.sol\":12912:12993  function name() public view returns (string memory) {... */\n    tag_48:\n        /* \"Task1/Mem.sol\":12949:12962  string memory */\n      0x60\n        /* \"Task1/Mem.sol\":12981:12986  _name */\n      0x01\n        /* \"Task1/Mem.sol\":12974:12986  return _name */\n      dup1\n      sload\n      tag_152\n      swap1\n      tag_153\n      jump\t// in\n    tag_152:\n      dup1\n      0x1f\n      add\n      0x20\n      dup1\n      swap2\n      div\n      mul\n      0x20\n      add\n      mload(0x40)\n      swap1\n      dup2\n      add\n      0x40\n      mstore\n      dup1\n      swap3\n      swap2\n      swap1\n      dup2\n      dup2\n      mstore\n      0x20\n      add\n      dup3\n      dup1\n      sload\n      tag_154\n      swap1\n      tag_153\n      jump\t// in\n    tag_154:\n      dup1\n      iszero\n      tag_155\n      jumpi\n      dup1\n      0x1f\n      lt\n      tag_156\n      jumpi\n      0x0100\n      dup1\n      dup4\n      sload\n      div\n      mul\n      dup4\n      mstore\n      swap2\n      0x20\n      add\n      swap2\n      jump(tag_155)\n    tag_156:\n      dup3\n      add\n      swap2\n      swap1\n      0x00\n      mstore\n      keccak256(0x00, 0x20)\n      swap1\n    tag_157:\n      dup2\n      sload\n      dup2\n      mstore\n      swap1\n      0x01\n      add\n      swap1\n      0x20\n      add\n      dup1\n      dup4\n      gt\n      tag_157\n      jumpi\n      dup3\n      swap1\n      sub\n      0x1f\n      and\n      dup3\n      add\n      swap2\n    tag_155:\n      pop\n      pop\n      pop\n      pop\n      pop\n      swap1\n      pop\n        /* \"Task1/Mem.sol\":12912:12993  function name() public view returns (string memory) {... */\n      swap1\n      jump\t// out\n        /* \"Task1/Mem.sol\":13830:13986  function approve(address spender, uint256 amount) public override returns (bool) {... */\n    tag_54:\n        /* \"Task1/Mem.sol\":13905:13909  bool */\n      0x00\n        /* \"Task1/Mem.sol\":13921:13958  _approve(msg.sender, spender, amount) */\n      tag_159\n        /* \"Task1/Mem.sol\":13930:13940  msg.sender */\n      caller\n        /* \"Task1/Mem.sol\":13942:13949  spender */\n      dup5\n        /* \"Task1/Mem.sol\":13951:13957  amount */\n      dup5\n        /* \"Task1/Mem.sol\":13921:13929  _approve */\n      tag_160\n        /* \"Task1/Mem.sol\":13921:13958  _approve(msg.sender, spender, amount) */\n      jump\t// in\n    tag_159:\n      pop\n        /* \"Task1/Mem.sol\":13975:13979  true */\n      0x01\n        /* \"Task1/Mem.sol\":13830:13986  function approve(address spender, uint256 amount) public override returns (bool) {... */\n    tag_158:\n      swap3\n      swap2\n      pop\n      pop\n      jump\t// out\n        /* \"Task1/Mem.sol\":13992:14431  function transferFrom(address sender, address recipient, uint256 amount) public antiBot(msg.sender) override virtual returns (bool) {... */\n    tag_66:\n        /* \"Task1/Mem.sol\":14080:14090  msg.sender */\n      caller\n        /* \"Task1/Mem.sol\":14118:14122  bool */\n      0x00\n        /* \"Task1/Mem.sol\":12340:12363  _lockTimestamp[account] */\n      dup2\n      dup2\n      mstore\n        /* \"Task1/Mem.sol\":12340:12354  _lockTimestamp */\n      0x07\n        /* \"Task1/Mem.sol\":12340:12363  _lockTimestamp[account] */\n      0x20\n      mstore\n      0x40\n      dup2\n      keccak256\n      sload\n        /* \"Task1/Mem.sol\":14118:14122  bool */\n      swap1\n      swap2\n        /* \"Task1/Mem.sol\":14080:14090  msg.sender */\n      swap1\n        /* \"Task1/Mem.sol\":12340:12368  _lockTimestamp[account] == 0 */\n      iszero\n      dup1\n        /* \"Task1/Mem.sol\":12340:12419  _lockTimestamp[account] == 0 || _lockTimestamp[account] + 10 <= block.timestamp */\n      tag_163\n      jumpi\n      pop\n      sub(shl(0xa0, 0x01), 0x01)\n        /* \"Task1/Mem.sol\":12372:12395  _lockTimestamp[account] */\n      dup2\n      and\n      0x00\n      swap1\n      dup2\n      mstore\n        /* \"Task1/Mem.sol\":12372:12386  _lockTimestamp */\n      0x07\n        /* \"Task1/Mem.sol\":12372:12395  _lockTimestamp[account] */\n      0x20\n      mstore\n      0x40\n      swap1\n      keccak256\n      sload\n        /* \"Task1/Mem.sol\":12404:12419  block.timestamp */\n      timestamp\n      swap1\n        /* \"Task1/Mem.sol\":12372:12400  _lockTimestamp[account] + 10 */\n      tag_164\n      swap1\n        /* \"Task1/Mem.sol\":12398:12400  10 */\n      0x0a\n        /* \"Task1/Mem.sol\":12372:12400  _lockTimestamp[account] + 10 */\n      tag_165\n      jump\t// in\n    tag_164:\n        /* \"Task1/Mem.sol\":12372:12419  _lockTimestamp[account] + 10 <= block.timestamp */\n      gt\n      iszero\n        /* \"Task1/Mem.sol\":12340:12419  _lockTimestamp[account] == 0 || _lockTimestamp[account] + 10 <= block.timestamp */\n    tag_163:\n        /* \"Task1/Mem.sol\":12332:12441  require(_lockTimestamp[account] == 0 || _lockTimestamp[account] + 10 <= block.timestamp, \"Account is locked\") */\n      tag_166\n      jumpi\n      mload(0x40)\n      shl(0xe5, 0x461bcd)\n      dup2\n      mstore\n        /* \"#utility.yul\":3765:3767   */\n      0x20\n        /* \"Task1/Mem.sol\":12332:12441  require(_lockTimestamp[account] == 0 || _lockTimestamp[account] + 10 <= block.timestamp, \"Account is locked\") */\n      0x04\n      dup3\n      add\n        /* \"#utility.yul\":3747:3768   */\n      mstore\n        /* \"#utility.yul\":3804:3806   */\n      0x11\n        /* \"#utility.yul\":3784:3802   */\n      0x24\n      dup3\n      add\n        /* \"#utility.yul\":3777:3807   */\n      mstore\n      shl(0x7a, 0x1058d8dbdd5b9d081a5cc81b1bd8dad959)\n        /* \"#utility.yul\":3823:3841   */\n      0x44\n      dup3\n      add\n        /* \"#utility.yul\":3816:3863   */\n      mstore\n        /* \"#utility.yul\":3880:3898   */\n      0x64\n      add\n        /* \"Task1/Mem.sol\":12332:12441  require(_lockTimestamp[account] == 0 || _lockTimestamp[account] + 10 <= block.timestamp, \"Account is locked\") */\n    tag_167:\n      mload(0x40)\n      dup1\n      swap2\n      sub\n      swap1\n      revert\n    tag_166:\n        /* \"Task1/Mem.sol\":14175:14191  maxWalletBalance */\n      sload(0x15)\n      sub(shl(0xa0, 0x01), 0x01)\n        /* \"Task1/Mem.sol\":14142:14162  _balances[recipient] */\n      dup6\n      and\n      0x00\n      swap1\n      dup2\n      mstore\n        /* \"Task1/Mem.sol\":14142:14151  _balances */\n      0x04\n        /* \"Task1/Mem.sol\":14142:14162  _balances[recipient] */\n      0x20\n      mstore\n      0x40\n      swap1\n      keccak256\n      sload\n        /* \"Task1/Mem.sol\":14142:14171  _balances[recipient] + amount */\n      tag_170\n      swap1\n        /* \"Task1/Mem.sol\":14165:14171  amount */\n      dup6\n      swap1\n        /* \"Task1/Mem.sol\":14142:14171  _balances[recipient] + amount */\n      tag_165\n      jump\t// in\n    tag_170:\n        /* \"Task1/Mem.sol\":14142:14191  _balances[recipient] + amount <= maxWalletBalance */\n      gt\n      iszero\n        /* \"Task1/Mem.sol\":14134:14227  require(_balances[recipient] + amount <= maxWalletBalance, \"Maximum wallet balance exceeded\") */\n      tag_171\n      jumpi\n      mload(0x40)\n      shl(0xe5, 0x461bcd)\n      dup2\n      mstore\n        /* \"#utility.yul\":4111:4113   */\n      0x20\n        /* \"Task1/Mem.sol\":14134:14227  require(_balances[recipient] + amount <= maxWalletBalance, \"Maximum wallet balance exceeded\") */\n      0x04\n      dup3\n      add\n        /* \"#utility.yul\":4093:4114   */\n      mstore\n        /* \"#utility.yul\":4150:4152   */\n      0x1f\n        /* \"#utility.yul\":4130:4148   */\n      0x24\n      dup3\n      add\n        /* \"#utility.yul\":4123:4153   */\n      mstore\n        /* \"#utility.yul\":4189:4222   */\n      0x4d6178696d756d2077616c6c65742062616c616e636520657863656564656400\n        /* \"#utility.yul\":4169:4187   */\n      0x44\n      dup3\n      add\n        /* \"#utility.yul\":4162:4223   */\n      mstore\n        /* \"#utility.yul\":4240:4258   */\n      0x64\n      add\n        /* \"Task1/Mem.sol\":14134:14227  require(_balances[recipient] + amount <= maxWalletBalance, \"Maximum wallet balance exceeded\") */\n      tag_167\n        /* \"#utility.yul\":3909:4264   */\n      jump\n        /* \"Task1/Mem.sol\":14134:14227  require(_balances[recipient] + amount <= maxWalletBalance, \"Maximum wallet balance exceeded\") */\n    tag_171:\n        /* \"Task1/Mem.sol\":14237:14271  _transfer(sender,recipient,amount) */\n      tag_174\n        /* \"Task1/Mem.sol\":14247:14253  sender */\n      dup6\n        /* \"Task1/Mem.sol\":14254:14263  recipient */\n      dup6\n        /* \"Task1/Mem.sol\":14264:14270  amount */\n      dup6\n        /* \"Task1/Mem.sol\":14237:14246  _transfer */\n      tag_175\n        /* \"Task1/Mem.sol\":14237:14271  _transfer(sender,recipient,amount) */\n      jump\t// in\n    tag_174:\n        /* \"Task1/Mem.sol\":14288:14403  _approve(sender,msg.sender,_allowances[sender][msg.sender].sub( amount,\"ERC20: transfer amount exceeds allowance\")) */\n      tag_176\n        /* \"Task1/Mem.sol\":14297:14303  sender */\n      dup6\n        /* \"Task1/Mem.sol\":14304:14314  msg.sender */\n      caller\n        /* \"Task1/Mem.sol\":14315:14402  _allowances[sender][msg.sender].sub( amount,\"ERC20: transfer amount exceeds allowance\") */\n      tag_177\n        /* \"Task1/Mem.sol\":14352:14358  amount */\n      dup7\n        /* \"Task1/Mem.sol\":14315:14402  _allowances[sender][msg.sender].sub( amount,\"ERC20: transfer amount exceeds allowance\") */\n      mload(0x40)\n      dup1\n      0x60\n      add\n      0x40\n      mstore\n      dup1\n      0x28\n      dup2\n      mstore\n      0x20\n      add\n      data_974d1b4421da69cc60b481194f0dad36a5bb4e23da810da7a7fb30cdba178330\n      0x28\n      swap2\n      codecopy\n      sub(shl(0xa0, 0x01), 0x01)\n        /* \"Task1/Mem.sol\":14315:14334  _allowances[sender] */\n      dup12\n      and\n      0x00\n      swap1\n      dup2\n      mstore\n        /* \"Task1/Mem.sol\":14315:14326  _allowances */\n      0x05\n        /* \"Task1/Mem.sol\":14315:14334  _allowances[sender] */\n      0x20\n      swap1\n      dup2\n      mstore\n      0x40\n      dup1\n      dup4\n      keccak256\n        /* \"Task1/Mem.sol\":14335:14345  msg.sender */\n      caller\n        /* \"Task1/Mem.sol\":14315:14346  _allowances[sender][msg.sender] */\n      dup5\n      mstore\n      swap1\n      swap2\n      mstore\n      swap1\n      keccak256\n      sload\n      swap2\n        /* \"Task1/Mem.sol\":14315:14402  _allowances[sender][msg.sender].sub( amount,\"ERC20: transfer amount exceeds allowance\") */\n      swap1\n        /* \"Task1/Mem.sol\":14315:14350  _allowances[sender][msg.sender].sub */\n      tag_178\n        /* \"Task1/Mem.sol\":14315:14402  _allowances[sender][msg.sender].sub( amount,\"ERC20: transfer amount exceeds allowance\") */\n      jump\t// in\n    tag_177:\n        /* \"Task1/Mem.sol\":14288:14296  _approve */\n      tag_160\n        /* \"Task1/Mem.sol\":14288:14403  _approve(sender,msg.sender,_allowances[sender][msg.sender].sub( amount,\"ERC20: transfer amount exceeds allowance\")) */\n      jump\t// in\n    tag_176:\n      pop\n        /* \"Task1/Mem.sol\":14420:14424  true */\n      0x01\n      swap5\n        /* \"Task1/Mem.sol\":13992:14431  function transferFrom(address sender, address recipient, uint256 amount) public antiBot(msg.sender) override virtual returns (bool) {... */\n      swap4\n      pop\n      pop\n      pop\n      pop\n      jump\t// out\n        /* \"Task1/Mem.sol\":19119:19234  function ExcludedFromFee(address account, bool) public onlyOwner {... */\n    tag_74:\n        /* \"Task1/Mem.sol\":8833:8846  _checkOwner() */\n      tag_180\n        /* \"Task1/Mem.sol\":8833:8844  _checkOwner */\n      tag_181\n        /* \"Task1/Mem.sol\":8833:8846  _checkOwner() */\n      jump\t// in\n    tag_180:\n      pop\n      sub(shl(0xa0, 0x01), 0x01)\n        /* \"Task1/Mem.sol\":19194:19220  isExcludedFromFee[account] */\n      and\n      0x00\n      swap1\n      dup2\n      mstore\n        /* \"Task1/Mem.sol\":19194:19211  isExcludedFromFee */\n      0x06\n        /* \"Task1/Mem.sol\":19194:19220  isExcludedFromFee[account] */\n      0x20\n      mstore\n      0x40\n      swap1\n      keccak256\n        /* \"Task1/Mem.sol\":19194:19227  isExcludedFromFee[account] = true */\n      dup1\n      sload\n      not(0xff)\n      and\n        /* \"Task1/Mem.sol\":19223:19227  true */\n      0x01\n        /* \"Task1/Mem.sol\":19194:19227  isExcludedFromFee[account] = true */\n      or\n      swap1\n      sstore\n        /* \"Task1/Mem.sol\":19119:19234  function ExcludedFromFee(address account, bool) public onlyOwner {... */\n      jump\t// out\n        /* \"Task1/Mem.sol\":14437:14648  function increaseAllowance(address spender, uint256 addedValue) public virtual returns (bool) {... */\n    tag_85:\n        /* \"Task1/Mem.sol\":14550:14560  msg.sender */\n      caller\n        /* \"Task1/Mem.sol\":14525:14529  bool */\n      0x00\n        /* \"Task1/Mem.sol\":14571:14594  _allowances[msg.sender] */\n      dup2\n      dup2\n      mstore\n        /* \"Task1/Mem.sol\":14571:14582  _allowances */\n      0x05\n        /* \"Task1/Mem.sol\":14571:14594  _allowances[msg.sender] */\n      0x20\n      swap1\n      dup2\n      mstore\n      0x40\n      dup1\n      dup4\n      keccak256\n      sub(shl(0xa0, 0x01), 0x01)\n        /* \"Task1/Mem.sol\":14571:14603  _allowances[msg.sender][spender] */\n      dup8\n      and\n      dup5\n      mstore\n      swap1\n      swap2\n      mstore\n      dup2\n      keccak256\n      sload\n        /* \"Task1/Mem.sol\":14525:14529  bool */\n      swap1\n      swap2\n        /* \"Task1/Mem.sol\":14541:14620  _approve(msg.sender, spender, _allowances[msg.sender][spender].add(addedValue)) */\n      tag_159\n      swap2\n        /* \"Task1/Mem.sol\":14562:14569  spender */\n      dup6\n      swap1\n        /* \"Task1/Mem.sol\":14571:14619  _allowances[msg.sender][spender].add(addedValue) */\n      tag_177\n      swap1\n        /* \"Task1/Mem.sol\":14608:14618  addedValue */\n      dup7\n        /* \"Task1/Mem.sol\":14571:14607  _allowances[msg.sender][spender].add */\n      tag_187\n        /* \"Task1/Mem.sol\":14571:14619  _allowances[msg.sender][spender].add(addedValue) */\n      jump\t// in\n        /* \"Task1/Mem.sol\":19244:19357  function IncludeInFee(address account, bool) public onlyOwner {... */\n    tag_98:\n        /* \"Task1/Mem.sol\":8833:8846  _checkOwner() */\n      tag_189\n        /* \"Task1/Mem.sol\":8833:8844  _checkOwner */\n      tag_181\n        /* \"Task1/Mem.sol\":8833:8846  _checkOwner() */\n      jump\t// in\n    tag_189:\n      pop\n      sub(shl(0xa0, 0x01), 0x01)\n        /* \"Task1/Mem.sol\":19316:19342  isExcludedFromFee[account] */\n      and\n        /* \"Task1/Mem.sol\":19345:19350  false */\n      0x00\n        /* \"Task1/Mem.sol\":19316:19342  isExcludedFromFee[account] */\n      swap1\n      dup2\n      mstore\n        /* \"Task1/Mem.sol\":19316:19333  isExcludedFromFee */\n      0x06\n        /* \"Task1/Mem.sol\":19316:19342  isExcludedFromFee[account] */\n      0x20\n      mstore\n      0x40\n      swap1\n      keccak256\n        /* \"Task1/Mem.sol\":19316:19350  isExcludedFromFee[account] = false */\n      dup1\n      sload\n      not(0xff)\n      and\n      swap1\n      sstore\n        /* \"Task1/Mem.sol\":19244:19357  function IncludeInFee(address account, bool) public onlyOwner {... */\n      jump\t// out\n        /* \"Task1/Mem.sol\":9570:9671  function renounceOwnership() public virtual onlyOwner {... */\n    tag_104:\n        /* \"Task1/Mem.sol\":8833:8846  _checkOwner() */\n      tag_193\n        /* \"Task1/Mem.sol\":8833:8844  _checkOwner */\n      tag_181\n        /* \"Task1/Mem.sol\":8833:8846  _checkOwner() */\n      jump\t// in\n    tag_193:\n        /* \"Task1/Mem.sol\":9634:9664  _transferOwnership(address(0)) */\n      tag_195\n        /* \"Task1/Mem.sol\":9661:9662  0 */\n      0x00\n        /* \"Task1/Mem.sol\":9634:9652  _transferOwnership */\n      tag_196\n        /* \"Task1/Mem.sol\":9634:9664  _transferOwnership(address(0)) */\n      jump\t// in\n    tag_195:\n        /* \"Task1/Mem.sol\":9570:9671  function renounceOwnership() public virtual onlyOwner {... */\n      jump\t// out\n        /* \"Task1/Mem.sol\":19368:19511  function setLPAddress(address _Address) public onlyOwner {... */\n    tag_107:\n        /* \"Task1/Mem.sol\":8833:8846  _checkOwner() */\n      tag_198\n        /* \"Task1/Mem.sol\":8833:8844  _checkOwner */\n      tag_181\n        /* \"Task1/Mem.sol\":8833:8846  _checkOwner() */\n      jump\t// in\n    tag_198:\n        /* \"Task1/Mem.sol\":19455:19464  lpAddress */\n      sload(0x13)\n      sub(shl(0xa0, 0x01), 0x01)\n      swap1\n      dup2\n      and\n        /* \"Task1/Mem.sol\":19443:19464  _Address != lpAddress */\n      swap1\n      dup3\n      and\n      sub\n        /* \"Task1/Mem.sol\":19435:19465  require(_Address != lpAddress) */\n      tag_200\n      jumpi\n      0x00\n      dup1\n      revert\n    tag_200:\n        /* \"Task1/Mem.sol\":19484:19493  lpAddress */\n      0x13\n        /* \"Task1/Mem.sol\":19484:19504  lpAddress = _Address */\n      dup1\n      sload\n      not(sub(shl(0xa0, 0x01), 0x01))\n      and\n      sub(shl(0xa0, 0x01), 0x01)\n      swap3\n      swap1\n      swap3\n      and\n      swap2\n      swap1\n      swap2\n      or\n      swap1\n      sstore\n        /* \"Task1/Mem.sol\":19368:19511  function setLPAddress(address _Address) public onlyOwner {... */\n      jump\t// out\n        /* \"Task1/Mem.sol\":12999:13084  function symbol() public view returns (string memory) {... */\n    tag_115:\n        /* \"Task1/Mem.sol\":13038:13051  string memory */\n      0x60\n        /* \"Task1/Mem.sol\":13070:13077  _symbol */\n      0x02\n        /* \"Task1/Mem.sol\":13063:13077  return _symbol */\n      dup1\n      sload\n      tag_152\n      swap1\n      tag_153\n      jump\t// in\n        /* \"Task1/Mem.sol\":14654:14916  function decreaseAllowance(address spender, uint256 subtractedValue) public virtual returns (bool) {... */\n    tag_122:\n        /* \"Task1/Mem.sol\":14747:14751  bool */\n      0x00\n        /* \"Task1/Mem.sol\":14763:14888  _approve(msg.sender, spender, _allowances[msg.sender][spender].sub(subtractedValue, \"ERC20: decreased allowance below zero\")) */\n      tag_159\n        /* \"Task1/Mem.sol\":14772:14782  msg.sender */\n      caller\n        /* \"Task1/Mem.sol\":14784:14791  spender */\n      dup5\n        /* \"Task1/Mem.sol\":14793:14887  _allowances[msg.sender][spender].sub(subtractedValue, \"ERC20: decreased allowance below zero\") */\n      tag_177\n        /* \"Task1/Mem.sol\":14830:14845  subtractedValue */\n      dup6\n        /* \"Task1/Mem.sol\":14793:14887  _allowances[msg.sender][spender].sub(subtractedValue, \"ERC20: decreased allowance below zero\") */\n      mload(0x40)\n      dup1\n      0x60\n      add\n      0x40\n      mstore\n      dup1\n      0x25\n      dup2\n      mstore\n      0x20\n      add\n      data_f8b476f7d28209d77d4a4ac1fe36b9f8259aa1bb6bddfa6e89de7e51615cf8a8\n      0x25\n      swap2\n      codecopy\n        /* \"Task1/Mem.sol\":14805:14815  msg.sender */\n      caller\n        /* \"Task1/Mem.sol\":14793:14816  _allowances[msg.sender] */\n      0x00\n      swap1\n      dup2\n      mstore\n        /* \"Task1/Mem.sol\":14793:14804  _allowances */\n      0x05\n        /* \"Task1/Mem.sol\":14793:14816  _allowances[msg.sender] */\n      0x20\n      swap1\n      dup2\n      mstore\n      0x40\n      dup1\n      dup4\n      keccak256\n      sub(shl(0xa0, 0x01), 0x01)\n        /* \"Task1/Mem.sol\":14793:14825  _allowances[msg.sender][spender] */\n      dup14\n      and\n      dup5\n      mstore\n      swap1\n      swap2\n      mstore\n      swap1\n      keccak256\n      sload\n      swap2\n        /* \"Task1/Mem.sol\":14793:14887  _allowances[msg.sender][spender].sub(subtractedValue, \"ERC20: decreased allowance below zero\") */\n      swap1\n        /* \"Task1/Mem.sol\":14793:14829  _allowances[msg.sender][spender].sub */\n      tag_178\n        /* \"Task1/Mem.sol\":14793:14887  _allowances[msg.sender][spender].sub(subtractedValue, \"ERC20: decreased allowance below zero\") */\n      jump\t// in\n        /* \"Task1/Mem.sol\":13405:13677  function transfer(address recipient, uint256 amount) public  antiBot(msg.sender) maxWallet( recipient, amount) override virtual returns (bool) {... */\n    tag_126:\n        /* \"Task1/Mem.sol\":13474:13484  msg.sender */\n      caller\n        /* \"Task1/Mem.sol\":13542:13546  bool */\n      0x00\n        /* \"Task1/Mem.sol\":12340:12363  _lockTimestamp[account] */\n      dup2\n      dup2\n      mstore\n        /* \"Task1/Mem.sol\":12340:12354  _lockTimestamp */\n      0x07\n        /* \"Task1/Mem.sol\":12340:12363  _lockTimestamp[account] */\n      0x20\n      mstore\n      0x40\n      dup2\n      keccak256\n      sload\n        /* \"Task1/Mem.sol\":13542:13546  bool */\n      swap1\n      swap2\n        /* \"Task1/Mem.sol\":13474:13484  msg.sender */\n      swap1\n        /* \"Task1/Mem.sol\":12340:12368  _lockTimestamp[account] == 0 */\n      iszero\n      dup1\n        /* \"Task1/Mem.sol\":12340:12419  _lockTimestamp[account] == 0 || _lockTimestamp[account] + 10 <= block.timestamp */\n      tag_212\n      jumpi\n      pop\n      sub(shl(0xa0, 0x01), 0x01)\n        /* \"Task1/Mem.sol\":12372:12395  _lockTimestamp[account] */\n      dup2\n      and\n      0x00\n      swap1\n      dup2\n      mstore\n        /* \"Task1/Mem.sol\":12372:12386  _lockTimestamp */\n      0x07\n        /* \"Task1/Mem.sol\":12372:12395  _lockTimestamp[account] */\n      0x20\n      mstore\n      0x40\n      swap1\n      keccak256\n      sload\n        /* \"Task1/Mem.sol\":12404:12419  block.timestamp */\n      timestamp\n      swap1\n        /* \"Task1/Mem.sol\":12372:12400  _lockTimestamp[account] + 10 */\n      tag_213\n      swap1\n        /* \"Task1/Mem.sol\":12398:12400  10 */\n      0x0a\n        /* \"Task1/Mem.sol\":12372:12400  _lockTimestamp[account] + 10 */\n      tag_165\n      jump\t// in\n    tag_213:\n        /* \"Task1/Mem.sol\":12372:12419  _lockTimestamp[account] + 10 <= block.timestamp */\n      gt\n      iszero\n        /* \"Task1/Mem.sol\":12340:12419  _lockTimestamp[account] == 0 || _lockTimestamp[account] + 10 <= block.timestamp */\n    tag_212:\n        /* \"Task1/Mem.sol\":12332:12441  require(_lockTimestamp[account] == 0 || _lockTimestamp[account] + 10 <= block.timestamp, \"Account is locked\") */\n      tag_214\n      jumpi\n      mload(0x40)\n      shl(0xe5, 0x461bcd)\n      dup2\n      mstore\n        /* \"#utility.yul\":3765:3767   */\n      0x20\n        /* \"Task1/Mem.sol\":12332:12441  require(_lockTimestamp[account] == 0 || _lockTimestamp[account] + 10 <= block.timestamp, \"Account is locked\") */\n      0x04\n      dup3\n      add\n        /* \"#utility.yul\":3747:3768   */\n      mstore\n        /* \"#utility.yul\":3804:3806   */\n      0x11\n        /* \"#utility.yul\":3784:3802   */\n      0x24\n      dup3\n      add\n        /* \"#utility.yul\":3777:3807   */\n      mstore\n      shl(0x7a, 0x1058d8dbdd5b9d081a5cc81b1bd8dad959)\n        /* \"#utility.yul\":3823:3841   */\n      0x44\n      dup3\n      add\n        /* \"#utility.yul\":3816:3863   */\n      mstore\n        /* \"#utility.yul\":3880:3898   */\n      0x64\n      add\n        /* \"Task1/Mem.sol\":12332:12441  require(_lockTimestamp[account] == 0 || _lockTimestamp[account] + 10 <= block.timestamp, \"Account is locked\") */\n      tag_167\n        /* \"#utility.yul\":3563:3904   */\n      jump\n        /* \"Task1/Mem.sol\":12332:12441  require(_lockTimestamp[account] == 0 || _lockTimestamp[account] + 10 <= block.timestamp, \"Account is locked\") */\n    tag_214:\n        /* \"Task1/Mem.sol\":13497:13506  recipient */\n      dup4\n        /* \"Task1/Mem.sol\":13508:13514  amount */\n      dup4\n        /* \"Task1/Mem.sol\":12579:12595  maxWalletBalance */\n      sload(0x15)\n        /* \"Task1/Mem.sol\":12569:12575  amount */\n      dup2\n        /* \"Task1/Mem.sol\":12546:12566  balanceOf(recipient) */\n      tag_217\n        /* \"Task1/Mem.sol\":12556:12565  recipient */\n      dup5\n      sub(shl(0xa0, 0x01), 0x01)\n        /* \"Task1/Mem.sol\":13374:13392  _balances[account] */\n      and\n        /* \"Task1/Mem.sol\":13347:13354  uint256 */\n      0x00\n        /* \"Task1/Mem.sol\":13374:13392  _balances[account] */\n      swap1\n      dup2\n      mstore\n        /* \"Task1/Mem.sol\":13374:13383  _balances */\n      0x04\n        /* \"Task1/Mem.sol\":13374:13392  _balances[account] */\n      0x20\n      mstore\n      0x40\n      swap1\n      keccak256\n      sload\n      swap1\n        /* \"Task1/Mem.sol\":13281:13399  function balanceOf(address account) public override view returns (uint256) {... */\n      jump\n        /* \"Task1/Mem.sol\":12546:12566  balanceOf(recipient) */\n    tag_217:\n        /* \"Task1/Mem.sol\":12546:12575  balanceOf(recipient) + amount */\n      tag_218\n      swap2\n      swap1\n      tag_165\n      jump\t// in\n    tag_218:\n        /* \"Task1/Mem.sol\":12546:12595  balanceOf(recipient) + amount <= maxWalletBalance */\n      gt\n      iszero\n        /* \"Task1/Mem.sol\":12538:12631  require(balanceOf(recipient) + amount <= maxWalletBalance, \"Maximum wallet balance exceeded\") */\n      tag_219\n      jumpi\n      mload(0x40)\n      shl(0xe5, 0x461bcd)\n      dup2\n      mstore\n        /* \"#utility.yul\":4111:4113   */\n      0x20\n        /* \"Task1/Mem.sol\":12538:12631  require(balanceOf(recipient) + amount <= maxWalletBalance, \"Maximum wallet balance exceeded\") */\n      0x04\n      dup3\n      add\n        /* \"#utility.yul\":4093:4114   */\n      mstore\n        /* \"#utility.yul\":4150:4152   */\n      0x1f\n        /* \"#utility.yul\":4130:4148   */\n      0x24\n      dup3\n      add\n        /* \"#utility.yul\":4123:4153   */\n      mstore\n        /* \"#utility.yul\":4189:4222   */\n      0x4d6178696d756d2077616c6c65742062616c616e636520657863656564656400\n        /* \"#utility.yul\":4169:4187   */\n      0x44\n      dup3\n      add\n        /* \"#utility.yul\":4162:4223   */\n      mstore\n        /* \"#utility.yul\":4240:4258   */\n      0x64\n      add\n        /* \"Task1/Mem.sol\":12538:12631  require(balanceOf(recipient) + amount <= maxWalletBalance, \"Maximum wallet balance exceeded\") */\n      tag_167\n        /* \"#utility.yul\":3909:4264   */\n      jump\n        /* \"Task1/Mem.sol\":12538:12631  require(balanceOf(recipient) + amount <= maxWalletBalance, \"Maximum wallet balance exceeded\") */\n    tag_219:\n        /* \"Task1/Mem.sol\":13557:13595  _transfer(msg.sender,recipient,amount) */\n      tag_222\n        /* \"Task1/Mem.sol\":13567:13577  msg.sender */\n      caller\n        /* \"Task1/Mem.sol\":13578:13587  recipient */\n      dup8\n        /* \"Task1/Mem.sol\":13588:13594  amount */\n      dup8\n        /* \"Task1/Mem.sol\":13557:13566  _transfer */\n      tag_175\n        /* \"Task1/Mem.sol\":13557:13595  _transfer(msg.sender,recipient,amount) */\n      jump\t// in\n    tag_222:\n      pop\n      pop\n        /* \"Task1/Mem.sol\":13619:13629  msg.sender */\n      caller\n        /* \"Task1/Mem.sol\":13604:13630  _lockTimestamp[msg.sender] */\n      0x00\n      swap1\n      dup2\n      mstore\n        /* \"Task1/Mem.sol\":13604:13618  _lockTimestamp */\n      0x07\n        /* \"Task1/Mem.sol\":13604:13630  _lockTimestamp[msg.sender] */\n      0x20\n      mstore\n      0x40\n      swap1\n      keccak256\n        /* \"Task1/Mem.sol\":13633:13648  block.timestamp */\n      timestamp\n        /* \"Task1/Mem.sol\":13604:13648  _lockTimestamp[msg.sender] = block.timestamp */\n      swap1\n      sstore\n      pop\n        /* \"Task1/Mem.sol\":13666:13670  true */\n      0x01\n      swap4\n        /* \"Task1/Mem.sol\":13405:13677  function transfer(address recipient, uint256 amount) public  antiBot(msg.sender) maxWallet( recipient, amount) override virtual returns (bool) {... */\n      swap3\n      pop\n      pop\n      pop\n      jump\t// out\n        /* \"Task1/Mem.sol\":9820:10018  function transferOwnership(address newOwner) public virtual onlyOwner {... */\n    tag_150:\n        /* \"Task1/Mem.sol\":8833:8846  _checkOwner() */\n      tag_225\n        /* \"Task1/Mem.sol\":8833:8844  _checkOwner */\n      tag_181\n        /* \"Task1/Mem.sol\":8833:8846  _checkOwner() */\n      jump\t// in\n    tag_225:\n      sub(shl(0xa0, 0x01), 0x01)\n        /* \"Task1/Mem.sol\":9908:9930  newOwner != address(0) */\n      dup2\n      and\n        /* \"Task1/Mem.sol\":9900:9973  require(newOwner != address(0), \"Ownable: new owner is the zero address\") */\n      tag_227\n      jumpi\n      mload(0x40)\n      shl(0xe5, 0x461bcd)\n      dup2\n      mstore\n        /* \"#utility.yul\":4471:4473   */\n      0x20\n        /* \"Task1/Mem.sol\":9900:9973  require(newOwner != address(0), \"Ownable: new owner is the zero address\") */\n      0x04\n      dup3\n      add\n        /* \"#utility.yul\":4453:4474   */\n      mstore\n        /* \"#utility.yul\":4510:4512   */\n      0x26\n        /* \"#utility.yul\":4490:4508   */\n      0x24\n      dup3\n      add\n        /* \"#utility.yul\":4483:4513   */\n      mstore\n        /* \"#utility.yul\":4549:4583   */\n      0x4f776e61626c653a206e6577206f776e657220697320746865207a65726f2061\n        /* \"#utility.yul\":4529:4547   */\n      0x44\n      dup3\n      add\n        /* \"#utility.yul\":4522:4584   */\n      mstore\n      shl(0xd0, 0x646472657373)\n        /* \"#utility.yul\":4600:4618   */\n      0x64\n      dup3\n      add\n        /* \"#utility.yul\":4593:4629   */\n      mstore\n        /* \"#utility.yul\":4646:4665   */\n      0x84\n      add\n        /* \"Task1/Mem.sol\":9900:9973  require(newOwner != address(0), \"Ownable: new owner is the zero address\") */\n      tag_167\n        /* \"#utility.yul\":4269:4671   */\n      jump\n        /* \"Task1/Mem.sol\":9900:9973  require(newOwner != address(0), \"Ownable: new owner is the zero address\") */\n    tag_227:\n        /* \"Task1/Mem.sol\":9983:10011  _transferOwnership(newOwner) */\n      tag_230\n        /* \"Task1/Mem.sol\":10002:10010  newOwner */\n      dup2\n        /* \"Task1/Mem.sol\":9983:10001  _transferOwnership */\n      tag_196\n        /* \"Task1/Mem.sol\":9983:10011  _transferOwnership(newOwner) */\n      jump\t// in\n    tag_230:\n        /* \"Task1/Mem.sol\":9820:10018  function transferOwnership(address newOwner) public virtual onlyOwner {... */\n      pop\n      jump\t// out\n        /* \"Task1/Mem.sol\":14922:15253  function _approve(address owner, address spender, uint256 amount) private {... */\n    tag_160:\n      sub(shl(0xa0, 0x01), 0x01)\n        /* \"Task1/Mem.sol\":15014:15033  owner != address(0) */\n      dup4\n      and\n        /* \"Task1/Mem.sol\":15006:15074  require(owner != address(0), \"ERC20: approve from the zero address\") */\n      tag_232\n      jumpi\n      mload(0x40)\n      shl(0xe5, 0x461bcd)\n      dup2\n      mstore\n        /* \"#utility.yul\":4878:4880   */\n      0x20\n        /* \"Task1/Mem.sol\":15006:15074  require(owner != address(0), \"ERC20: approve from the zero address\") */\n      0x04\n      dup3\n      add\n        /* \"#utility.yul\":4860:4881   */\n      mstore\n        /* \"#utility.yul\":4917:4919   */\n      0x24\n        /* \"#utility.yul\":4897:4915   */\n      dup1\n      dup3\n      add\n        /* \"#utility.yul\":4890:4920   */\n      mstore\n        /* \"#utility.yul\":4956:4990   */\n      0x45524332303a20617070726f76652066726f6d20746865207a65726f20616464\n        /* \"#utility.yul\":4936:4954   */\n      0x44\n      dup3\n      add\n        /* \"#utility.yul\":4929:4991   */\n      mstore\n      shl(0xe0, 0x72657373)\n        /* \"#utility.yul\":5007:5025   */\n      0x64\n      dup3\n      add\n        /* \"#utility.yul\":5000:5034   */\n      mstore\n        /* \"#utility.yul\":5051:5070   */\n      0x84\n      add\n        /* \"Task1/Mem.sol\":15006:15074  require(owner != address(0), \"ERC20: approve from the zero address\") */\n      tag_167\n        /* \"#utility.yul\":4676:5076   */\n      jump\n        /* \"Task1/Mem.sol\":15006:15074  require(owner != address(0), \"ERC20: approve from the zero address\") */\n    tag_232:\n      sub(shl(0xa0, 0x01), 0x01)\n        /* \"Task1/Mem.sol\":15092:15113  spender != address(0) */\n      dup3\n      and\n        /* \"Task1/Mem.sol\":15084:15152  require(spender != address(0), \"ERC20: approve to the zero address\") */\n      tag_235\n      jumpi\n      mload(0x40)\n      shl(0xe5, 0x461bcd)\n      dup2\n      mstore\n        /* \"#utility.yul\":5283:5285   */\n      0x20\n        /* \"Task1/Mem.sol\":15084:15152  require(spender != address(0), \"ERC20: approve to the zero address\") */\n      0x04\n      dup3\n      add\n        /* \"#utility.yul\":5265:5286   */\n      mstore\n        /* \"#utility.yul\":5322:5324   */\n      0x22\n        /* \"#utility.yul\":5302:5320   */\n      0x24\n      dup3\n      add\n        /* \"#utility.yul\":5295:5325   */\n      mstore\n        /* \"#utility.yul\":5361:5395   */\n      0x45524332303a20617070726f766520746f20746865207a65726f206164647265\n        /* \"#utility.yul\":5341:5359   */\n      0x44\n      dup3\n      add\n        /* \"#utility.yul\":5334:5396   */\n      mstore\n      shl(0xf0, 0x7373)\n        /* \"#utility.yul\":5412:5430   */\n      0x64\n      dup3\n      add\n        /* \"#utility.yul\":5405:5437   */\n      mstore\n        /* \"#utility.yul\":5454:5473   */\n      0x84\n      add\n        /* \"Task1/Mem.sol\":15084:15152  require(spender != address(0), \"ERC20: approve to the zero address\") */\n      tag_167\n        /* \"#utility.yul\":5081:5479   */\n      jump\n        /* \"Task1/Mem.sol\":15084:15152  require(spender != address(0), \"ERC20: approve to the zero address\") */\n    tag_235:\n      sub(shl(0xa0, 0x01), 0x01)\n        /* \"Task1/Mem.sol\":15163:15181  _allowances[owner] */\n      dup4\n      dup2\n      and\n      0x00\n      dup2\n      dup2\n      mstore\n        /* \"Task1/Mem.sol\":15163:15174  _allowances */\n      0x05\n        /* \"Task1/Mem.sol\":15163:15181  _allowances[owner] */\n      0x20\n      swap1\n      dup2\n      mstore\n      0x40\n      dup1\n      dup4\n      keccak256\n        /* \"Task1/Mem.sol\":15163:15190  _allowances[owner][spender] */\n      swap5\n      dup8\n      and\n      dup1\n      dup5\n      mstore\n      swap5\n      dup3\n      mstore\n      swap2\n      dup3\n      swap1\n      keccak256\n        /* \"Task1/Mem.sol\":15163:15199  _allowances[owner][spender] = amount */\n      dup6\n      swap1\n      sstore\n        /* \"Task1/Mem.sol\":15214:15246  Approval(owner, spender, amount) */\n      swap1\n      mload\n        /* \"#utility.yul\":529:554   */\n      dup5\n      dup2\n      mstore\n        /* \"Task1/Mem.sol\":15214:15246  Approval(owner, spender, amount) */\n      0x8c5be1e5ebec7d5bd14f71427d1e84f3dd0314c0f7b2291e5b200ac8c7c3b925\n      swap2\n        /* \"#utility.yul\":502:520   */\n      add\n        /* \"Task1/Mem.sol\":15214:15246  Approval(owner, spender, amount) */\n      mload(0x40)\n      dup1\n      swap2\n      sub\n      swap1\n      log3\n        /* \"Task1/Mem.sol\":14922:15253  function _approve(address owner, address spender, uint256 amount) private {... */\n      pop\n      pop\n      pop\n      jump\t// out\n        /* \"Task1/Mem.sol\":15260:16356  function _transfer(address sender, address recipient, uint256 amount) private {... */\n    tag_175:\n      sub(shl(0xa0, 0x01), 0x01)\n        /* \"Task1/Mem.sol\":15356:15376  sender != address(0) */\n      dup4\n      and\n        /* \"Task1/Mem.sol\":15348:15418  require(sender != address(0), \"ERC20: transfer from the zero address\") */\n      tag_240\n      jumpi\n      mload(0x40)\n      shl(0xe5, 0x461bcd)\n      dup2\n      mstore\n        /* \"#utility.yul\":5686:5688   */\n      0x20\n        /* \"Task1/Mem.sol\":15348:15418  require(sender != address(0), \"ERC20: transfer from the zero address\") */\n      0x04\n      dup3\n      add\n        /* \"#utility.yul\":5668:5689   */\n      mstore\n        /* \"#utility.yul\":5725:5727   */\n      0x25\n        /* \"#utility.yul\":5705:5723   */\n      0x24\n      dup3\n      add\n        /* \"#utility.yul\":5698:5728   */\n      mstore\n        /* \"#utility.yul\":5764:5798   */\n      0x45524332303a207472616e736665722066726f6d20746865207a65726f206164\n        /* \"#utility.yul\":5744:5762   */\n      0x44\n      dup3\n      add\n        /* \"#utility.yul\":5737:5799   */\n      mstore\n      shl(0xd8, 0x6472657373)\n        /* \"#utility.yul\":5815:5833   */\n      0x64\n      dup3\n      add\n        /* \"#utility.yul\":5808:5843   */\n      mstore\n        /* \"#utility.yul\":5860:5879   */\n      0x84\n      add\n        /* \"Task1/Mem.sol\":15348:15418  require(sender != address(0), \"ERC20: transfer from the zero address\") */\n      tag_167\n        /* \"#utility.yul\":5484:5885   */\n      jump\n        /* \"Task1/Mem.sol\":15348:15418  require(sender != address(0), \"ERC20: transfer from the zero address\") */\n    tag_240:\n      sub(shl(0xa0, 0x01), 0x01)\n        /* \"Task1/Mem.sol\":15436:15459  recipient != address(0) */\n      dup3\n      and\n        /* \"Task1/Mem.sol\":15428:15499  require(recipient != address(0), \"ERC20: transfer to the zero address\") */\n      tag_243\n      jumpi\n      mload(0x40)\n      shl(0xe5, 0x461bcd)\n      dup2\n      mstore\n        /* \"#utility.yul\":6092:6094   */\n      0x20\n        /* \"Task1/Mem.sol\":15428:15499  require(recipient != address(0), \"ERC20: transfer to the zero address\") */\n      0x04\n      dup3\n      add\n        /* \"#utility.yul\":6074:6095   */\n      mstore\n        /* \"#utility.yul\":6131:6133   */\n      0x23\n        /* \"#utility.yul\":6111:6129   */\n      0x24\n      dup3\n      add\n        /* \"#utility.yul\":6104:6134   */\n      mstore\n        /* \"#utility.yul\":6170:6204   */\n      0x45524332303a207472616e7366657220746f20746865207a65726f2061646472\n        /* \"#utility.yul\":6150:6168   */\n      0x44\n      dup3\n      add\n        /* \"#utility.yul\":6143:6205   */\n      mstore\n      shl(0xe8, 0x657373)\n        /* \"#utility.yul\":6221:6239   */\n      0x64\n      dup3\n      add\n        /* \"#utility.yul\":6214:6247   */\n      mstore\n        /* \"#utility.yul\":6264:6283   */\n      0x84\n      add\n        /* \"Task1/Mem.sol\":15428:15499  require(recipient != address(0), \"ERC20: transfer to the zero address\") */\n      tag_167\n        /* \"#utility.yul\":5890:6289   */\n      jump\n        /* \"Task1/Mem.sol\":15428:15499  require(recipient != address(0), \"ERC20: transfer to the zero address\") */\n    tag_243:\n      sub(shl(0xa0, 0x01), 0x01)\n        /* \"Task1/Mem.sol\":15568:15593  isExcludedFromFee[sender] */\n      dup4\n      and\n        /* \"Task1/Mem.sol\":15519:15541  uint256 transferAmount */\n      0x00\n        /* \"Task1/Mem.sol\":15568:15593  isExcludedFromFee[sender] */\n      swap1\n      dup2\n      mstore\n        /* \"Task1/Mem.sol\":15568:15585  isExcludedFromFee */\n      0x06\n        /* \"Task1/Mem.sol\":15568:15593  isExcludedFromFee[sender] */\n      0x20\n      mstore\n      0x40\n      swap1\n      keccak256\n      sload\n        /* \"Task1/Mem.sol\":15544:15550  amount */\n      dup2\n      swap1\n        /* \"Task1/Mem.sol\":15568:15593  isExcludedFromFee[sender] */\n      0xff\n      and\n        /* \"Task1/Mem.sol\":15568:15625  isExcludedFromFee[sender] && isExcludedFromFee[recipient] */\n      dup1\n      iszero\n      tag_246\n      jumpi\n      pop\n      sub(shl(0xa0, 0x01), 0x01)\n        /* \"Task1/Mem.sol\":15597:15625  isExcludedFromFee[recipient] */\n      dup4\n      and\n      0x00\n      swap1\n      dup2\n      mstore\n        /* \"Task1/Mem.sol\":15597:15614  isExcludedFromFee */\n      0x06\n        /* \"Task1/Mem.sol\":15597:15625  isExcludedFromFee[recipient] */\n      0x20\n      mstore\n      0x40\n      swap1\n      keccak256\n      sload\n      0xff\n      and\n        /* \"Task1/Mem.sol\":15568:15625  isExcludedFromFee[sender] && isExcludedFromFee[recipient] */\n    tag_246:\n        /* \"Task1/Mem.sol\":15565:15682  if(isExcludedFromFee[sender] && isExcludedFromFee[recipient]){... */\n      iszero\n      tag_247\n      jumpi\n      pop\n        /* \"Task1/Mem.sol\":15661:15667  amount */\n      dup1\n        /* \"Task1/Mem.sol\":15565:15682  if(isExcludedFromFee[sender] && isExcludedFromFee[recipient]){... */\n    tag_247:\n      sub(shl(0xa0, 0x01), 0x01)\n        /* \"Task1/Mem.sol\":15699:15724  isExcludedFromFee[sender] */\n      dup5\n      and\n      0x00\n      swap1\n      dup2\n      mstore\n        /* \"Task1/Mem.sol\":15699:15716  isExcludedFromFee */\n      0x06\n        /* \"Task1/Mem.sol\":15699:15724  isExcludedFromFee[sender] */\n      0x20\n      mstore\n      0x40\n      swap1\n      keccak256\n      sload\n      0xff\n      and\n        /* \"Task1/Mem.sol\":15698:15724  !isExcludedFromFee[sender] */\n      iszero\n        /* \"Task1/Mem.sol\":15698:15757  !isExcludedFromFee[sender] && !isExcludedFromFee[recipient] */\n      dup1\n      iszero\n      tag_248\n      jumpi\n      pop\n      sub(shl(0xa0, 0x01), 0x01)\n        /* \"Task1/Mem.sol\":15729:15757  isExcludedFromFee[recipient] */\n      dup4\n      and\n      0x00\n      swap1\n      dup2\n      mstore\n        /* \"Task1/Mem.sol\":15729:15746  isExcludedFromFee */\n      0x06\n        /* \"Task1/Mem.sol\":15729:15757  isExcludedFromFee[recipient] */\n      0x20\n      mstore\n      0x40\n      swap1\n      keccak256\n      sload\n      0xff\n      and\n        /* \"Task1/Mem.sol\":15728:15757  !isExcludedFromFee[recipient] */\n      iszero\n        /* \"Task1/Mem.sol\":15698:15757  !isExcludedFromFee[sender] && !isExcludedFromFee[recipient] */\n    tag_248:\n        /* \"Task1/Mem.sol\":15695:15840  if(!isExcludedFromFee[sender] && !isExcludedFromFee[recipient]){... */\n      iszero\n      tag_249\n      jumpi\n        /* \"Task1/Mem.sol\":15793:15825  betweenCollectFee(sender,amount) */\n      tag_250\n        /* \"Task1/Mem.sol\":15811:15817  sender */\n      dup5\n        /* \"Task1/Mem.sol\":15818:15824  amount */\n      dup4\n        /* \"Task1/Mem.sol\":15793:15810  betweenCollectFee */\n      tag_251\n        /* \"Task1/Mem.sol\":15793:15825  betweenCollectFee(sender,amount) */\n      jump\t// in\n    tag_250:\n        /* \"Task1/Mem.sol\":15776:15825  transferAmount = betweenCollectFee(sender,amount) */\n      swap1\n      pop\n        /* \"Task1/Mem.sol\":15695:15840  if(!isExcludedFromFee[sender] && !isExcludedFromFee[recipient]){... */\n    tag_249:\n      sub(shl(0xa0, 0x01), 0x01)\n        /* \"Task1/Mem.sol\":15856:15881  isExcludedFromFee[sender] */\n      dup5\n      and\n      0x00\n      swap1\n      dup2\n      mstore\n        /* \"Task1/Mem.sol\":15856:15873  isExcludedFromFee */\n      0x06\n        /* \"Task1/Mem.sol\":15856:15881  isExcludedFromFee[sender] */\n      0x20\n      mstore\n      0x40\n      swap1\n      keccak256\n      sload\n      0xff\n      and\n        /* \"Task1/Mem.sol\":15856:15914  isExcludedFromFee[sender] && !isExcludedFromFee[recipient] */\n      dup1\n      iszero\n      tag_252\n      jumpi\n      pop\n      sub(shl(0xa0, 0x01), 0x01)\n        /* \"Task1/Mem.sol\":15886:15914  isExcludedFromFee[recipient] */\n      dup4\n      and\n      0x00\n      swap1\n      dup2\n      mstore\n        /* \"Task1/Mem.sol\":15886:15903  isExcludedFromFee */\n      0x06\n        /* \"Task1/Mem.sol\":15886:15914  isExcludedFromFee[recipient] */\n      0x20\n      mstore\n      0x40\n      swap1\n      keccak256\n      sload\n      0xff\n      and\n        /* \"Task1/Mem.sol\":15885:15914  !isExcludedFromFee[recipient] */\n      iszero\n        /* \"Task1/Mem.sol\":15856:15914  isExcludedFromFee[sender] && !isExcludedFromFee[recipient] */\n    tag_252:\n        /* \"Task1/Mem.sol\":15853:15993  if(isExcludedFromFee[sender] && !isExcludedFromFee[recipient]){... */\n      iszero\n      tag_253\n      jumpi\n        /* \"Task1/Mem.sol\":15950:15978  buyCollectFee(sender,amount) */\n      tag_254\n        /* \"Task1/Mem.sol\":15964:15970  sender */\n      dup5\n        /* \"Task1/Mem.sol\":15971:15977  amount */\n      dup4\n        /* \"Task1/Mem.sol\":15950:15963  buyCollectFee */\n      tag_255\n        /* \"Task1/Mem.sol\":15950:15978  buyCollectFee(sender,amount) */\n      jump\t// in\n    tag_254:\n        /* \"Task1/Mem.sol\":15933:15978  transferAmount = buyCollectFee(sender,amount) */\n      swap1\n      pop\n        /* \"Task1/Mem.sol\":15853:15993  if(isExcludedFromFee[sender] && !isExcludedFromFee[recipient]){... */\n    tag_253:\n      sub(shl(0xa0, 0x01), 0x01)\n        /* \"Task1/Mem.sol\":16010:16035  isExcludedFromFee[sender] */\n      dup5\n      and\n      0x00\n      swap1\n      dup2\n      mstore\n        /* \"Task1/Mem.sol\":16010:16027  isExcludedFromFee */\n      0x06\n        /* \"Task1/Mem.sol\":16010:16035  isExcludedFromFee[sender] */\n      0x20\n      mstore\n      0x40\n      swap1\n      keccak256\n      sload\n      0xff\n      and\n        /* \"Task1/Mem.sol\":16009:16035  !isExcludedFromFee[sender] */\n      iszero\n        /* \"Task1/Mem.sol\":16009:16067  !isExcludedFromFee[sender] && isExcludedFromFee[recipient] */\n      dup1\n      iszero\n      tag_256\n      jumpi\n      pop\n      sub(shl(0xa0, 0x01), 0x01)\n        /* \"Task1/Mem.sol\":16039:16067  isExcludedFromFee[recipient] */\n      dup4\n      and\n      0x00\n      swap1\n      dup2\n      mstore\n        /* \"Task1/Mem.sol\":16039:16056  isExcludedFromFee */\n      0x06\n        /* \"Task1/Mem.sol\":16039:16067  isExcludedFromFee[recipient] */\n      0x20\n      mstore\n      0x40\n      swap1\n      keccak256\n      sload\n      0xff\n      and\n        /* \"Task1/Mem.sol\":16009:16067  !isExcludedFromFee[sender] && isExcludedFromFee[recipient] */\n    tag_256:\n        /* \"Task1/Mem.sol\":16006:16147  if(!isExcludedFromFee[sender] && isExcludedFromFee[recipient]){... */\n      iszero\n      tag_257\n      jumpi\n        /* \"Task1/Mem.sol\":16103:16132  SellCollectFee(sender,amount) */\n      tag_258\n        /* \"Task1/Mem.sol\":16118:16124  sender */\n      dup5\n        /* \"Task1/Mem.sol\":16125:16131  amount */\n      dup4\n        /* \"Task1/Mem.sol\":16103:16117  SellCollectFee */\n      tag_259\n        /* \"Task1/Mem.sol\":16103:16132  SellCollectFee(sender,amount) */\n      jump\t// in\n    tag_258:\n        /* \"Task1/Mem.sol\":16086:16132  transferAmount = SellCollectFee(sender,amount) */\n      swap1\n      pop\n        /* \"Task1/Mem.sol\":16006:16147  if(!isExcludedFromFee[sender] && isExcludedFromFee[recipient]){... */\n    tag_257:\n      sub(shl(0xa0, 0x01), 0x01)\n        /* \"Task1/Mem.sol\":16180:16197  _balances[sender] */\n      dup5\n      and\n      0x00\n      swap1\n      dup2\n      mstore\n        /* \"Task1/Mem.sol\":16180:16189  _balances */\n      0x04\n        /* \"Task1/Mem.sol\":16180:16197  _balances[sender] */\n      0x20\n      mstore\n      0x40\n      swap1\n      keccak256\n      sload\n        /* \"Task1/Mem.sol\":16180:16209  _balances[sender].sub(amount) */\n      tag_260\n      swap1\n        /* \"Task1/Mem.sol\":16202:16208  amount */\n      dup4\n        /* \"Task1/Mem.sol\":16180:16201  _balances[sender].sub */\n      tag_261\n        /* \"Task1/Mem.sol\":16180:16209  _balances[sender].sub(amount) */\n      jump\t// in\n    tag_260:\n      sub(shl(0xa0, 0x01), 0x01)\n        /* \"Task1/Mem.sol\":16160:16177  _balances[sender] */\n      dup1\n      dup7\n      and\n      0x00\n      swap1\n      dup2\n      mstore\n        /* \"Task1/Mem.sol\":16160:16169  _balances */\n      0x04\n        /* \"Task1/Mem.sol\":16160:16177  _balances[sender] */\n      0x20\n      mstore\n      0x40\n      dup1\n      dup3\n      keccak256\n        /* \"Task1/Mem.sol\":16160:16209  _balances[sender] = _balances[sender].sub(amount) */\n      swap4\n      swap1\n      swap4\n      sstore\n        /* \"Task1/Mem.sol\":16242:16262  _balances[recipient] */\n      swap1\n      dup6\n      and\n      dup2\n      mstore\n      keccak256\n      sload\n        /* \"Task1/Mem.sol\":16242:16282  _balances[recipient].add(transferAmount) */\n      tag_262\n      swap1\n        /* \"Task1/Mem.sol\":16267:16281  transferAmount */\n      dup3\n        /* \"Task1/Mem.sol\":16242:16266  _balances[recipient].add */\n      tag_187\n        /* \"Task1/Mem.sol\":16242:16282  _balances[recipient].add(transferAmount) */\n      jump\t// in\n    tag_262:\n      sub(shl(0xa0, 0x01), 0x01)\n        /* \"Task1/Mem.sol\":16219:16239  _balances[recipient] */\n      dup1\n      dup6\n      and\n      0x00\n      dup2\n      dup2\n      mstore\n        /* \"Task1/Mem.sol\":16219:16228  _balances */\n      0x04\n        /* \"Task1/Mem.sol\":16219:16239  _balances[recipient] */\n      0x20\n      mstore\n      0x40\n      swap1\n      dup2\n      swap1\n      keccak256\n        /* \"Task1/Mem.sol\":16219:16282  _balances[recipient] = _balances[recipient].add(transferAmount) */\n      swap4\n      swap1\n      swap4\n      sstore\n        /* \"Task1/Mem.sol\":16306:16349  Transfer(sender, recipient, transferAmount) */\n      swap2\n      mload\n      swap1\n      dup7\n      and\n      swap1\n      0x00\n      dup1\n      mload\n      0x20\n      data_ada389e1fc24a8587c776340efb91b36e675792ab631816100d55df0b5cf3cbc\n      dup4\n      codecopy\n      dup2\n      mload\n      swap2\n      mstore\n      swap1\n      tag_263\n      swap1\n        /* \"Task1/Mem.sol\":16334:16348  transferAmount */\n      dup6\n        /* \"#utility.yul\":529:554   */\n      dup2\n      mstore\n        /* \"#utility.yul\":517:519   */\n      0x20\n        /* \"#utility.yul\":502:520   */\n      add\n      swap1\n        /* \"#utility.yul\":383:560   */\n      jump\n        /* \"Task1/Mem.sol\":16306:16349  Transfer(sender, recipient, transferAmount) */\n    tag_263:\n      mload(0x40)\n      dup1\n      swap2\n      sub\n      swap1\n      log3\n        /* \"Task1/Mem.sol\":15338:16356  {... */\n      pop\n        /* \"Task1/Mem.sol\":15260:16356  function _transfer(address sender, address recipient, uint256 amount) private {... */\n      pop\n      pop\n      pop\n      jump\t// out\n        /* \"Task1/Mem.sol\":4951:5182  function sub(... */\n    tag_178:\n        /* \"Task1/Mem.sol\":5067:5074  uint256 */\n      0x00\n        /* \"Task1/Mem.sol\":5126:5138  errorMessage */\n      dup2\n        /* \"Task1/Mem.sol\":5118:5124  b <= a */\n      dup5\n      dup5\n      gt\n      iszero\n        /* \"Task1/Mem.sol\":5110:5139  require(b <= a, errorMessage) */\n      tag_265\n      jumpi\n      mload(0x40)\n      shl(0xe5, 0x461bcd)\n      dup2\n      mstore\n      0x04\n      add\n      tag_167\n      swap2\n      swap1\n      tag_50\n      jump\t// in\n    tag_265:\n      pop\n      pop\n      pop\n        /* \"Task1/Mem.sol\":5160:5165  a - b */\n      swap1\n      sub\n      swap1\n        /* \"Task1/Mem.sol\":4951:5182  function sub(... */\n      jump\t// out\n        /* \"Task1/Mem.sol\":9098:9228  function _checkOwner() internal view virtual {... */\n    tag_181:\n        /* \"Task1/Mem.sol\":8986:8993  address */\n      0x00\n        /* \"Task1/Mem.sol\":9012:9018  _owner */\n      sload\n      sub(shl(0xa0, 0x01), 0x01)\n      and\n        /* \"Task1/Mem.sol\":7569:7579  msg.sender */\n      caller\n        /* \"Task1/Mem.sol\":9161:9184  owner() == _msgSender() */\n      eq\n        /* \"Task1/Mem.sol\":9153:9221  require(owner() == _msgSender(), \"Ownable: caller is not the owner\") */\n      tag_195\n      jumpi\n      mload(0x40)\n      shl(0xe5, 0x461bcd)\n      dup2\n      mstore\n        /* \"#utility.yul\":6496:6498   */\n      0x20\n        /* \"Task1/Mem.sol\":9153:9221  require(owner() == _msgSender(), \"Ownable: caller is not the owner\") */\n      0x04\n      dup3\n      add\n        /* \"#utility.yul\":6478:6499   */\n      dup2\n      swap1\n      mstore\n        /* \"#utility.yul\":6515:6533   */\n      0x24\n      dup3\n      add\n        /* \"#utility.yul\":6508:6538   */\n      mstore\n        /* \"#utility.yul\":6574:6608   */\n      0x4f776e61626c653a2063616c6c6572206973206e6f7420746865206f776e6572\n        /* \"#utility.yul\":6554:6572   */\n      0x44\n      dup3\n      add\n        /* \"#utility.yul\":6547:6609   */\n      mstore\n        /* \"#utility.yul\":6626:6644   */\n      0x64\n      add\n        /* \"Task1/Mem.sol\":9153:9221  require(owner() == _msgSender(), \"Ownable: caller is not the owner\") */\n      tag_167\n        /* \"#utility.yul\":6294:6650   */\n      jump\n        /* \"Task1/Mem.sol\":2747:2843  function add(uint256 a, uint256 b) internal pure returns (uint256) {... */\n    tag_187:\n        /* \"Task1/Mem.sol\":2805:2812  uint256 */\n      0x00\n        /* \"Task1/Mem.sol\":2831:2836  a + b */\n      tag_275\n        /* \"Task1/Mem.sol\":2835:2836  b */\n      dup3\n        /* \"Task1/Mem.sol\":2831:2832  a */\n      dup5\n        /* \"Task1/Mem.sol\":2831:2836  a + b */\n      tag_165\n      jump\t// in\n    tag_275:\n        /* \"Task1/Mem.sol\":2824:2836  return a + b */\n      swap4\n        /* \"Task1/Mem.sol\":2747:2843  function add(uint256 a, uint256 b) internal pure returns (uint256) {... */\n      swap3\n      pop\n      pop\n      pop\n      jump\t// out\n        /* \"Task1/Mem.sol\":10172:10359  function _transferOwnership(address newOwner) internal virtual {... */\n    tag_196:\n        /* \"Task1/Mem.sol\":10245:10261  address oldOwner */\n      0x00\n        /* \"Task1/Mem.sol\":10264:10270  _owner */\n      dup1\n      sload\n      sub(shl(0xa0, 0x01), 0x01)\n        /* \"Task1/Mem.sol\":10280:10297  _owner = newOwner */\n      dup4\n      dup2\n      and\n      not(sub(shl(0xa0, 0x01), 0x01))\n      dup4\n      and\n      dup2\n      or\n      dup5\n      sstore\n        /* \"Task1/Mem.sol\":10312:10352  OwnershipTransferred(oldOwner, newOwner) */\n      mload(0x40)\n        /* \"Task1/Mem.sol\":10264:10270  _owner */\n      swap2\n      swap1\n      swap3\n      and\n      swap3\n      dup4\n      swap2\n        /* \"Task1/Mem.sol\":10312:10352  OwnershipTransferred(oldOwner, newOwner) */\n      0x8be0079c531659141344cd1fd0a4f28419497f9722a3daafe3b4186f6b6457e0\n      swap2\n        /* \"Task1/Mem.sol\":10245:10261  address oldOwner */\n      swap1\n        /* \"Task1/Mem.sol\":10312:10352  OwnershipTransferred(oldOwner, newOwner) */\n      log3\n        /* \"Task1/Mem.sol\":10235:10359  {... */\n      pop\n        /* \"Task1/Mem.sol\":10172:10359  function _transferOwnership(address newOwner) internal virtual {... */\n      pop\n      jump\t// out\n        /* \"Task1/Mem.sol\":18514:19112  function betweenCollectFee(address account, uint256 amount) private  returns (uint256) {... */\n    tag_251:\n        /* \"Task1/Mem.sol\":18592:18599  uint256 */\n      0x00\n        /* \"Task1/Mem.sol\":18620:18642  uint256 transferAmount */\n      dup1\n        /* \"Task1/Mem.sol\":18645:18651  amount */\n      dup3\n        /* \"Task1/Mem.sol\":18620:18651  uint256 transferAmount = amount */\n      swap1\n      pop\n        /* \"Task1/Mem.sol\":18669:18690  uint256 _inbetweenFee */\n      0x00\n        /* \"Task1/Mem.sol\":18693:18730  amount.mul(_inbetweenFee_).div(10000) */\n      tag_278\n        /* \"Task1/Mem.sol\":18724:18729  10000 */\n      0x2710\n        /* \"Task1/Mem.sol\":18693:18719  amount.mul(_inbetweenFee_) */\n      tag_279\n        /* \"Task1/Mem.sol\":18704:18718  _inbetweenFee_ */\n      sload(0x0c)\n        /* \"Task1/Mem.sol\":18693:18699  amount */\n      dup8\n        /* \"Task1/Mem.sol\":18693:18703  amount.mul */\n      tag_280\n      swap1\n        /* \"Task1/Mem.sol\":18693:18719  amount.mul(_inbetweenFee_) */\n      swap2\n      swap1\n      0xffffffff\n      and\n      jump\t// in\n    tag_279:\n        /* \"Task1/Mem.sol\":18693:18723  amount.mul(_inbetweenFee_).div */\n      swap1\n      tag_281\n        /* \"Task1/Mem.sol\":18693:18730  amount.mul(_inbetweenFee_).div(10000) */\n      jump\t// in\n    tag_278:\n        /* \"Task1/Mem.sol\":18669:18730  uint256 _inbetweenFee = amount.mul(_inbetweenFee_).div(10000) */\n      swap1\n      pop\n        /* \"Task1/Mem.sol\":18745:18762  _inbetweenFee > 0 */\n      dup1\n      iszero\n        /* \"Task1/Mem.sol\":18741:19067  if (_inbetweenFee > 0){... */\n      tag_282\n      jumpi\n        /* \"Task1/Mem.sol\":18794:18827  transferAmount.sub(_inbetweenFee) */\n      tag_283\n        /* \"Task1/Mem.sol\":18794:18808  transferAmount */\n      dup3\n        /* \"Task1/Mem.sol\":18813:18826  _inbetweenFee */\n      dup3\n        /* \"Task1/Mem.sol\":18794:18812  transferAmount.sub */\n      tag_261\n        /* \"Task1/Mem.sol\":18794:18827  transferAmount.sub(_inbetweenFee) */\n      jump\t// in\n    tag_283:\n        /* \"Task1/Mem.sol\":18881:18897  inbetweenAddress */\n      and(sub(shl(0xa0, 0x01), 0x01), sload(0x14))\n        /* \"Task1/Mem.sol\":18871:18898  _balances[inbetweenAddress] */\n      0x00\n      swap1\n      dup2\n      mstore\n        /* \"Task1/Mem.sol\":18871:18880  _balances */\n      0x04\n        /* \"Task1/Mem.sol\":18871:18898  _balances[inbetweenAddress] */\n      0x20\n      mstore\n      0x40\n      swap1\n      keccak256\n      sload\n        /* \"Task1/Mem.sol\":18777:18827  transferAmount = transferAmount.sub(_inbetweenFee) */\n      swap1\n      swap3\n      pop\n        /* \"Task1/Mem.sol\":18871:18917  _balances[inbetweenAddress].add(_inbetweenFee) */\n      tag_284\n      swap1\n        /* \"Task1/Mem.sol\":18903:18916  _inbetweenFee */\n      dup3\n        /* \"Task1/Mem.sol\":18871:18902  _balances[inbetweenAddress].add */\n      tag_187\n        /* \"Task1/Mem.sol\":18871:18917  _balances[inbetweenAddress].add(_inbetweenFee) */\n      jump\t// in\n    tag_284:\n        /* \"Task1/Mem.sol\":18851:18867  inbetweenAddress */\n      and(sub(shl(0xa0, 0x01), 0x01), sload(0x14))\n        /* \"Task1/Mem.sol\":18841:18868  _balances[inbetweenAddress] */\n      0x00\n      swap1\n      dup2\n      mstore\n        /* \"Task1/Mem.sol\":18841:18850  _balances */\n      0x04\n        /* \"Task1/Mem.sol\":18841:18868  _balances[inbetweenAddress] */\n      0x20\n      mstore\n      0x40\n      swap1\n      keccak256\n        /* \"Task1/Mem.sol\":18841:18917  _balances[inbetweenAddress] = _balances[inbetweenAddress].add(_inbetweenFee) */\n      sstore\n        /* \"Task1/Mem.sol\":18952:18970  _inbetweenFeeTotal */\n      sload(0x10)\n        /* \"Task1/Mem.sol\":18952:18989  _inbetweenFeeTotal.add(_inbetweenFee) */\n      tag_285\n      swap1\n        /* \"Task1/Mem.sol\":18975:18988  _inbetweenFee */\n      dup3\n        /* \"Task1/Mem.sol\":18952:18974  _inbetweenFeeTotal.add */\n      tag_187\n        /* \"Task1/Mem.sol\":18952:18989  _inbetweenFeeTotal.add(_inbetweenFee) */\n      jump\t// in\n    tag_285:\n        /* \"Task1/Mem.sol\":18931:18949  _inbetweenFeeTotal */\n      0x10\n        /* \"Task1/Mem.sol\":18931:18989  _inbetweenFeeTotal = _inbetweenFeeTotal.add(_inbetweenFee) */\n      sstore\n        /* \"Task1/Mem.sol\":19025:19041  inbetweenAddress */\n      sload(0x14)\n        /* \"Task1/Mem.sol\":19008:19056  Transfer(account,inbetweenAddress,_inbetweenFee) */\n      mload(0x40)\n        /* \"#utility.yul\":529:554   */\n      dup3\n      dup2\n      mstore\n      sub(shl(0xa0, 0x01), 0x01)\n        /* \"Task1/Mem.sol\":19025:19041  inbetweenAddress */\n      swap2\n      dup3\n      and\n      swap2\n        /* \"Task1/Mem.sol\":19008:19056  Transfer(account,inbetweenAddress,_inbetweenFee) */\n      dup8\n      and\n      swap1\n      0x00\n      dup1\n      mload\n      0x20\n      data_ada389e1fc24a8587c776340efb91b36e675792ab631816100d55df0b5cf3cbc\n      dup4\n      codecopy\n      dup2\n      mload\n      swap2\n      mstore\n      swap1\n        /* \"#utility.yul\":517:519   */\n      0x20\n        /* \"#utility.yul\":502:520   */\n      add\n        /* \"Task1/Mem.sol\":19008:19056  Transfer(account,inbetweenAddress,_inbetweenFee) */\n      mload(0x40)\n      dup1\n      swap2\n      sub\n      swap1\n      log3\n        /* \"Task1/Mem.sol\":18741:19067  if (_inbetweenFee > 0){... */\n    tag_282:\n      pop\n        /* \"Task1/Mem.sol\":19091:19105  transferAmount */\n      swap4\n        /* \"Task1/Mem.sol\":18514:19112  function betweenCollectFee(address account, uint256 amount) private  returns (uint256) {... */\n      swap3\n      pop\n      pop\n      pop\n      jump\t// out\n        /* \"Task1/Mem.sol\":16367:17255  function buyCollectFee(address account, uint256 amount/*, uint256 rate*/) private returns (uint256) {... */\n    tag_255:\n        /* \"Task1/Mem.sol\":16458:16465  uint256 */\n      0x00\n        /* \"Task1/Mem.sol\":16486:16508  uint256 transferAmount */\n      dup1\n        /* \"Task1/Mem.sol\":16511:16517  amount */\n      dup3\n        /* \"Task1/Mem.sol\":16486:16517  uint256 transferAmount = amount */\n      swap1\n      pop\n        /* \"Task1/Mem.sol\":16528:16546  uint256 charityFee */\n      0x00\n        /* \"Task1/Mem.sol\":16549:16580  amount.mul(_charity).div(10000) */\n      tag_288\n        /* \"Task1/Mem.sol\":16574:16579  10000 */\n      0x2710\n        /* \"Task1/Mem.sol\":16549:16569  amount.mul(_charity) */\n      tag_279\n        /* \"Task1/Mem.sol\":16560:16568  _charity */\n      sload(0x09)\n        /* \"Task1/Mem.sol\":16549:16555  amount */\n      dup8\n        /* \"Task1/Mem.sol\":16549:16559  amount.mul */\n      tag_280\n      swap1\n        /* \"Task1/Mem.sol\":16549:16569  amount.mul(_charity) */\n      swap2\n      swap1\n      0xffffffff\n      and\n      jump\t// in\n        /* \"Task1/Mem.sol\":16549:16580  amount.mul(_charity).div(10000) */\n    tag_288:\n        /* \"Task1/Mem.sol\":16528:16580  uint256 charityFee = amount.mul(_charity).div(10000) */\n      swap1\n      pop\n        /* \"Task1/Mem.sol\":16590:16603  uint256 lpFee */\n      0x00\n        /* \"Task1/Mem.sol\":16606:16635  amount.mul(_lpFee).div(10000) */\n      tag_290\n        /* \"Task1/Mem.sol\":16629:16634  10000 */\n      0x2710\n        /* \"Task1/Mem.sol\":16606:16624  amount.mul(_lpFee) */\n      tag_279\n        /* \"Task1/Mem.sol\":16617:16623  _lpFee */\n      sload(0x0b)\n        /* \"Task1/Mem.sol\":16606:16612  amount */\n      dup9\n        /* \"Task1/Mem.sol\":16606:16616  amount.mul */\n      tag_280\n      swap1\n        /* \"Task1/Mem.sol\":16606:16624  amount.mul(_lpFee) */\n      swap2\n      swap1\n      0xffffffff\n      and\n      jump\t// in\n        /* \"Task1/Mem.sol\":16606:16635  amount.mul(_lpFee).div(10000) */\n    tag_290:\n        /* \"Task1/Mem.sol\":16590:16635  uint256 lpFee = amount.mul(_lpFee).div(10000) */\n      swap1\n      pop\n        /* \"Task1/Mem.sol\":16665:16674  lpFee > 0 */\n      dup1\n      iszero\n        /* \"Task1/Mem.sol\":16661:16912  if (lpFee > 0){... */\n      tag_292\n      jumpi\n        /* \"Task1/Mem.sol\":16706:16731  transferAmount.sub(lpFee) */\n      tag_293\n        /* \"Task1/Mem.sol\":16706:16720  transferAmount */\n      dup4\n        /* \"Task1/Mem.sol\":16725:16730  lpFee */\n      dup3\n        /* \"Task1/Mem.sol\":16706:16724  transferAmount.sub */\n      tag_261\n        /* \"Task1/Mem.sol\":16706:16731  transferAmount.sub(lpFee) */\n      jump\t// in\n    tag_293:\n        /* \"Task1/Mem.sol\":16778:16787  lpAddress */\n      and(sub(shl(0xa0, 0x01), 0x01), sload(0x13))\n        /* \"Task1/Mem.sol\":16768:16788  _balances[lpAddress] */\n      0x00\n      swap1\n      dup2\n      mstore\n        /* \"Task1/Mem.sol\":16768:16777  _balances */\n      0x04\n        /* \"Task1/Mem.sol\":16768:16788  _balances[lpAddress] */\n      0x20\n      mstore\n      0x40\n      swap1\n      keccak256\n      sload\n        /* \"Task1/Mem.sol\":16689:16731  transferAmount = transferAmount.sub(lpFee) */\n      swap1\n      swap4\n      pop\n        /* \"Task1/Mem.sol\":16768:16799  _balances[lpAddress].add(lpFee) */\n      tag_294\n      swap1\n        /* \"Task1/Mem.sol\":16793:16798  lpFee */\n      dup3\n        /* \"Task1/Mem.sol\":16768:16792  _balances[lpAddress].add */\n      tag_187\n        /* \"Task1/Mem.sol\":16768:16799  _balances[lpAddress].add(lpFee) */\n      jump\t// in\n    tag_294:\n        /* \"Task1/Mem.sol\":16755:16764  lpAddress */\n      and(sub(shl(0xa0, 0x01), 0x01), sload(0x13))\n        /* \"Task1/Mem.sol\":16745:16765  _balances[lpAddress] */\n      0x00\n      swap1\n      dup2\n      mstore\n        /* \"Task1/Mem.sol\":16745:16754  _balances */\n      0x04\n        /* \"Task1/Mem.sol\":16745:16765  _balances[lpAddress] */\n      0x20\n      mstore\n      0x40\n      swap1\n      keccak256\n        /* \"Task1/Mem.sol\":16745:16799  _balances[lpAddress] = _balances[lpAddress].add(lpFee) */\n      sstore\n        /* \"Task1/Mem.sol\":16827:16838  _lpFeeTotal */\n      sload(0x0f)\n        /* \"Task1/Mem.sol\":16827:16849  _lpFeeTotal.add(lpFee) */\n      tag_295\n      swap1\n        /* \"Task1/Mem.sol\":16843:16848  lpFee */\n      dup3\n        /* \"Task1/Mem.sol\":16827:16842  _lpFeeTotal.add */\n      tag_187\n        /* \"Task1/Mem.sol\":16827:16849  _lpFeeTotal.add(lpFee) */\n      jump\t// in\n    tag_295:\n        /* \"Task1/Mem.sol\":16813:16824  _lpFeeTotal */\n      0x0f\n        /* \"Task1/Mem.sol\":16813:16849  _lpFeeTotal = _lpFeeTotal.add(lpFee) */\n      sstore\n        /* \"Task1/Mem.sol\":16885:16894  lpAddress */\n      sload(0x13)\n        /* \"Task1/Mem.sol\":16868:16901  Transfer(account,lpAddress,lpFee) */\n      mload(0x40)\n        /* \"#utility.yul\":529:554   */\n      dup3\n      dup2\n      mstore\n      sub(shl(0xa0, 0x01), 0x01)\n        /* \"Task1/Mem.sol\":16885:16894  lpAddress */\n      swap2\n      dup3\n      and\n      swap2\n        /* \"Task1/Mem.sol\":16868:16901  Transfer(account,lpAddress,lpFee) */\n      dup9\n      and\n      swap1\n      0x00\n      dup1\n      mload\n      0x20\n      data_ada389e1fc24a8587c776340efb91b36e675792ab631816100d55df0b5cf3cbc\n      dup4\n      codecopy\n      dup2\n      mload\n      swap2\n      mstore\n      swap1\n        /* \"#utility.yul\":517:519   */\n      0x20\n        /* \"#utility.yul\":502:520   */\n      add\n        /* \"Task1/Mem.sol\":16868:16901  Transfer(account,lpAddress,lpFee) */\n      mload(0x40)\n      dup1\n      swap2\n      sub\n      swap1\n      log3\n        /* \"Task1/Mem.sol\":16661:16912  if (lpFee > 0){... */\n    tag_292:\n        /* \"Task1/Mem.sol\":16925:16939  charityFee > 0 */\n      dup2\n      iszero\n        /* \"Task1/Mem.sol\":16922:17216  if(charityFee > 0){... */\n      tag_297\n      jumpi\n        /* \"Task1/Mem.sol\":16971:17001  transferAmount.sub(charityFee) */\n      tag_298\n        /* \"Task1/Mem.sol\":16971:16985  transferAmount */\n      dup4\n        /* \"Task1/Mem.sol\":16990:17000  charityFee */\n      dup4\n        /* \"Task1/Mem.sol\":16971:16989  transferAmount.sub */\n      tag_261\n        /* \"Task1/Mem.sol\":16971:17001  transferAmount.sub(charityFee) */\n      jump\t// in\n    tag_298:\n        /* \"Task1/Mem.sol\":17053:17067  charityAddress */\n      and(sub(shl(0xa0, 0x01), 0x01), sload(0x11))\n        /* \"Task1/Mem.sol\":17043:17068  _balances[charityAddress] */\n      0x00\n      swap1\n      dup2\n      mstore\n        /* \"Task1/Mem.sol\":17043:17052  _balances */\n      0x04\n        /* \"Task1/Mem.sol\":17043:17068  _balances[charityAddress] */\n      0x20\n      mstore\n      0x40\n      swap1\n      keccak256\n      sload\n        /* \"Task1/Mem.sol\":16954:17001  transferAmount = transferAmount.sub(charityFee) */\n      swap1\n      swap4\n      pop\n        /* \"Task1/Mem.sol\":17043:17084  _balances[charityAddress].add(charityFee) */\n      tag_299\n      swap1\n        /* \"Task1/Mem.sol\":17073:17083  charityFee */\n      dup4\n        /* \"Task1/Mem.sol\":17043:17072  _balances[charityAddress].add */\n      tag_187\n        /* \"Task1/Mem.sol\":17043:17084  _balances[charityAddress].add(charityFee) */\n      jump\t// in\n    tag_299:\n        /* \"Task1/Mem.sol\":17025:17039  charityAddress */\n      and(sub(shl(0xa0, 0x01), 0x01), sload(0x11))\n        /* \"Task1/Mem.sol\":17015:17040  _balances[charityAddress] */\n      0x00\n      swap1\n      dup2\n      mstore\n        /* \"Task1/Mem.sol\":17015:17024  _balances */\n      0x04\n        /* \"Task1/Mem.sol\":17015:17040  _balances[charityAddress] */\n      0x20\n      mstore\n      0x40\n      swap1\n      keccak256\n        /* \"Task1/Mem.sol\":17015:17084  _balances[charityAddress] = _balances[charityAddress].add(charityFee) */\n      sstore\n        /* \"Task1/Mem.sol\":17114:17127  _charityTotal */\n      sload(0x0d)\n        /* \"Task1/Mem.sol\":17114:17143  _charityTotal.add(charityFee) */\n      tag_300\n      swap1\n        /* \"Task1/Mem.sol\":17132:17142  charityFee */\n      dup4\n        /* \"Task1/Mem.sol\":17114:17131  _charityTotal.add */\n      tag_187\n        /* \"Task1/Mem.sol\":17114:17143  _charityTotal.add(charityFee) */\n      jump\t// in\n    tag_300:\n        /* \"Task1/Mem.sol\":17098:17111  _charityTotal */\n      0x0d\n        /* \"Task1/Mem.sol\":17098:17143  _charityTotal = _charityTotal.add(charityFee) */\n      sstore\n        /* \"Task1/Mem.sol\":17179:17193  charityAddress */\n      sload(0x11)\n        /* \"Task1/Mem.sol\":17162:17205  Transfer(account,charityAddress,charityFee) */\n      mload(0x40)\n        /* \"#utility.yul\":529:554   */\n      dup4\n      dup2\n      mstore\n      sub(shl(0xa0, 0x01), 0x01)\n        /* \"Task1/Mem.sol\":17179:17193  charityAddress */\n      swap2\n      dup3\n      and\n      swap2\n        /* \"Task1/Mem.sol\":17162:17205  Transfer(account,charityAddress,charityFee) */\n      dup9\n      and\n      swap1\n      0x00\n      dup1\n      mload\n      0x20\n      data_ada389e1fc24a8587c776340efb91b36e675792ab631816100d55df0b5cf3cbc\n      dup4\n      codecopy\n      dup2\n      mload\n      swap2\n      mstore\n      swap1\n        /* \"#utility.yul\":517:519   */\n      0x20\n        /* \"#utility.yul\":502:520   */\n      add\n        /* \"Task1/Mem.sol\":17162:17205  Transfer(account,charityAddress,charityFee) */\n      mload(0x40)\n      dup1\n      swap2\n      sub\n      swap1\n      log3\n        /* \"Task1/Mem.sol\":16922:17216  if(charityFee > 0){... */\n    tag_297:\n      pop\n        /* \"Task1/Mem.sol\":17234:17248  transferAmount */\n      swap1\n      swap5\n        /* \"Task1/Mem.sol\":16367:17255  function buyCollectFee(address account, uint256 amount/*, uint256 rate*/) private returns (uint256) {... */\n      swap4\n      pop\n      pop\n      pop\n      pop\n      jump\t// out\n        /* \"Task1/Mem.sol\":17262:18509  function SellCollectFee(address account, uint256 amount) private  returns (uint256) {... */\n    tag_259:\n        /* \"Task1/Mem.sol\":17337:17344  uint256 */\n      0x00\n        /* \"Task1/Mem.sol\":17365:17387  uint256 transferAmount */\n      dup1\n        /* \"Task1/Mem.sol\":17390:17396  amount */\n      dup3\n        /* \"Task1/Mem.sol\":17365:17396  uint256 transferAmount = amount */\n      swap1\n      pop\n        /* \"Task1/Mem.sol\":17406:17424  uint256 charityFee */\n      0x00\n        /* \"Task1/Mem.sol\":17427:17458  amount.mul(_charity).div(10000) */\n      tag_303\n        /* \"Task1/Mem.sol\":17452:17457  10000 */\n      0x2710\n        /* \"Task1/Mem.sol\":17427:17447  amount.mul(_charity) */\n      tag_279\n        /* \"Task1/Mem.sol\":17438:17446  _charity */\n      sload(0x09)\n        /* \"Task1/Mem.sol\":17427:17433  amount */\n      dup8\n        /* \"Task1/Mem.sol\":17427:17437  amount.mul */\n      tag_280\n      swap1\n        /* \"Task1/Mem.sol\":17427:17447  amount.mul(_charity) */\n      swap2\n      swap1\n      0xffffffff\n      and\n      jump\t// in\n        /* \"Task1/Mem.sol\":17427:17458  amount.mul(_charity).div(10000) */\n    tag_303:\n        /* \"Task1/Mem.sol\":17406:17458  uint256 charityFee = amount.mul(_charity).div(10000) */\n      swap1\n      pop\n        /* \"Task1/Mem.sol\":17468:17486  uint256 burningFee */\n      0x00\n        /* \"Task1/Mem.sol\":17489:17523  amount.mul(_burningFee).div(10000) */\n      tag_305\n        /* \"Task1/Mem.sol\":17517:17522  10000 */\n      0x2710\n        /* \"Task1/Mem.sol\":17489:17512  amount.mul(_burningFee) */\n      tag_279\n        /* \"Task1/Mem.sol\":17500:17511  _burningFee */\n      sload(0x0a)\n        /* \"Task1/Mem.sol\":17489:17495  amount */\n      dup9\n        /* \"Task1/Mem.sol\":17489:17499  amount.mul */\n      tag_280\n      swap1\n        /* \"Task1/Mem.sol\":17489:17512  amount.mul(_burningFee) */\n      swap2\n      swap1\n      0xffffffff\n      and\n      jump\t// in\n        /* \"Task1/Mem.sol\":17489:17523  amount.mul(_burningFee).div(10000) */\n    tag_305:\n        /* \"Task1/Mem.sol\":17468:17523  uint256 burningFee = amount.mul(_burningFee).div(10000) */\n      swap1\n      pop\n        /* \"Task1/Mem.sol\":17533:17546  uint256 lpFee */\n      0x00\n        /* \"Task1/Mem.sol\":17549:17578  amount.mul(_lpFee).div(10000) */\n      tag_307\n        /* \"Task1/Mem.sol\":17572:17577  10000 */\n      0x2710\n        /* \"Task1/Mem.sol\":17549:17567  amount.mul(_lpFee) */\n      tag_279\n        /* \"Task1/Mem.sol\":17560:17566  _lpFee */\n      sload(0x0b)\n        /* \"Task1/Mem.sol\":17549:17555  amount */\n      dup10\n        /* \"Task1/Mem.sol\":17549:17559  amount.mul */\n      tag_280\n      swap1\n        /* \"Task1/Mem.sol\":17549:17567  amount.mul(_lpFee) */\n      swap2\n      swap1\n      0xffffffff\n      and\n      jump\t// in\n        /* \"Task1/Mem.sol\":17549:17578  amount.mul(_lpFee).div(10000) */\n    tag_307:\n        /* \"Task1/Mem.sol\":17533:17578  uint256 lpFee = amount.mul(_lpFee).div(10000) */\n      swap1\n      pop\n        /* \"Task1/Mem.sol\":17599:17613  burningFee > 0 */\n      dup2\n      iszero\n        /* \"Task1/Mem.sol\":17595:17896  if (burningFee > 0){... */\n      tag_309\n      jumpi\n        /* \"Task1/Mem.sol\":17645:17675  transferAmount.sub(burningFee) */\n      tag_310\n        /* \"Task1/Mem.sol\":17645:17659  transferAmount */\n      dup5\n        /* \"Task1/Mem.sol\":17664:17674  burningFee */\n      dup4\n        /* \"Task1/Mem.sol\":17645:17663  transferAmount.sub */\n      tag_261\n        /* \"Task1/Mem.sol\":17645:17675  transferAmount.sub(burningFee) */\n      jump\t// in\n    tag_310:\n        /* \"Task1/Mem.sol\":17727:17741  burningAddress */\n      and(sub(shl(0xa0, 0x01), 0x01), sload(0x12))\n        /* \"Task1/Mem.sol\":17717:17742  _balances[burningAddress] */\n      0x00\n      swap1\n      dup2\n      mstore\n        /* \"Task1/Mem.sol\":17717:17726  _balances */\n      0x04\n        /* \"Task1/Mem.sol\":17717:17742  _balances[burningAddress] */\n      0x20\n      mstore\n      0x40\n      swap1\n      keccak256\n      sload\n        /* \"Task1/Mem.sol\":17628:17675  transferAmount = transferAmount.sub(burningFee) */\n      swap1\n      swap5\n      pop\n        /* \"Task1/Mem.sol\":17717:17758  _balances[burningAddress].add(burningFee) */\n      tag_311\n      swap1\n        /* \"Task1/Mem.sol\":17747:17757  burningFee */\n      dup4\n        /* \"Task1/Mem.sol\":17717:17746  _balances[burningAddress].add */\n      tag_187\n        /* \"Task1/Mem.sol\":17717:17758  _balances[burningAddress].add(burningFee) */\n      jump\t// in\n    tag_311:\n        /* \"Task1/Mem.sol\":17699:17713  burningAddress */\n      and(sub(shl(0xa0, 0x01), 0x01), sload(0x12))\n        /* \"Task1/Mem.sol\":17689:17714  _balances[burningAddress] */\n      0x00\n      swap1\n      dup2\n      mstore\n        /* \"Task1/Mem.sol\":17689:17698  _balances */\n      0x04\n        /* \"Task1/Mem.sol\":17689:17714  _balances[burningAddress] */\n      0x20\n      mstore\n      0x40\n      swap1\n      keccak256\n        /* \"Task1/Mem.sol\":17689:17758  _balances[burningAddress] = _balances[burningAddress].add(burningFee) */\n      sstore\n        /* \"Task1/Mem.sol\":17791:17807  _burningFeeTotal */\n      sload(0x0e)\n        /* \"Task1/Mem.sol\":17791:17823  _burningFeeTotal.add(burningFee) */\n      tag_312\n      swap1\n        /* \"Task1/Mem.sol\":17812:17822  burningFee */\n      dup4\n        /* \"Task1/Mem.sol\":17791:17811  _burningFeeTotal.add */\n      tag_187\n        /* \"Task1/Mem.sol\":17791:17823  _burningFeeTotal.add(burningFee) */\n      jump\t// in\n    tag_312:\n        /* \"Task1/Mem.sol\":17772:17788  _burningFeeTotal */\n      0x0e\n        /* \"Task1/Mem.sol\":17772:17823  _burningFeeTotal = _burningFeeTotal.add(burningFee) */\n      sstore\n        /* \"Task1/Mem.sol\":17859:17873  burningAddress */\n      sload(0x12)\n        /* \"Task1/Mem.sol\":17842:17885  Transfer(account,burningAddress,burningFee) */\n      mload(0x40)\n        /* \"#utility.yul\":529:554   */\n      dup4\n      dup2\n      mstore\n      sub(shl(0xa0, 0x01), 0x01)\n        /* \"Task1/Mem.sol\":17859:17873  burningAddress */\n      swap2\n      dup3\n      and\n      swap2\n        /* \"Task1/Mem.sol\":17842:17885  Transfer(account,burningAddress,burningFee) */\n      dup10\n      and\n      swap1\n      0x00\n      dup1\n      mload\n      0x20\n      data_ada389e1fc24a8587c776340efb91b36e675792ab631816100d55df0b5cf3cbc\n      dup4\n      codecopy\n      dup2\n      mload\n      swap2\n      mstore\n      swap1\n        /* \"#utility.yul\":517:519   */\n      0x20\n        /* \"#utility.yul\":502:520   */\n      add\n        /* \"Task1/Mem.sol\":17842:17885  Transfer(account,burningAddress,burningFee) */\n      mload(0x40)\n      dup1\n      swap2\n      sub\n      swap1\n      log3\n        /* \"Task1/Mem.sol\":17595:17896  if (burningFee > 0){... */\n    tag_309:\n        /* \"Task1/Mem.sol\":17910:17919  lpFee > 0 */\n      dup1\n      iszero\n        /* \"Task1/Mem.sol\":17906:18158  if (lpFee > 0){... */\n      tag_314\n      jumpi\n        /* \"Task1/Mem.sol\":17951:17976  transferAmount.sub(lpFee) */\n      tag_315\n        /* \"Task1/Mem.sol\":17951:17965  transferAmount */\n      dup5\n        /* \"Task1/Mem.sol\":17970:17975  lpFee */\n      dup3\n        /* \"Task1/Mem.sol\":17951:17969  transferAmount.sub */\n      tag_261\n        /* \"Task1/Mem.sol\":17951:17976  transferAmount.sub(lpFee) */\n      jump\t// in\n    tag_315:\n        /* \"Task1/Mem.sol\":18024:18033  lpAddress */\n      and(sub(shl(0xa0, 0x01), 0x01), sload(0x13))\n        /* \"Task1/Mem.sol\":18014:18034  _balances[lpAddress] */\n      0x00\n      swap1\n      dup2\n      mstore\n        /* \"Task1/Mem.sol\":18014:18023  _balances */\n      0x04\n        /* \"Task1/Mem.sol\":18014:18034  _balances[lpAddress] */\n      0x20\n      mstore\n      0x40\n      swap1\n      keccak256\n      sload\n        /* \"Task1/Mem.sol\":17934:17976  transferAmount = transferAmount.sub(lpFee) */\n      swap1\n      swap5\n      pop\n        /* \"Task1/Mem.sol\":18014:18045  _balances[lpAddress].add(lpFee) */\n      tag_316\n      swap1\n        /* \"Task1/Mem.sol\":18039:18044  lpFee */\n      dup3\n        /* \"Task1/Mem.sol\":18014:18038  _balances[lpAddress].add */\n      tag_187\n        /* \"Task1/Mem.sol\":18014:18045  _balances[lpAddress].add(lpFee) */\n      jump\t// in\n    tag_316:\n        /* \"Task1/Mem.sol\":18001:18010  lpAddress */\n      and(sub(shl(0xa0, 0x01), 0x01), sload(0x13))\n        /* \"Task1/Mem.sol\":17991:18011  _balances[lpAddress] */\n      0x00\n      swap1\n      dup2\n      mstore\n        /* \"Task1/Mem.sol\":17991:18000  _balances */\n      0x04\n        /* \"Task1/Mem.sol\":17991:18011  _balances[lpAddress] */\n      0x20\n      mstore\n      0x40\n      swap1\n      keccak256\n        /* \"Task1/Mem.sol\":17991:18045  _balances[lpAddress] = _balances[lpAddress].add(lpFee) */\n      sstore\n        /* \"Task1/Mem.sol\":18073:18084  _lpFeeTotal */\n      sload(0x0f)\n        /* \"Task1/Mem.sol\":18073:18095  _lpFeeTotal.add(lpFee) */\n      tag_317\n      swap1\n        /* \"Task1/Mem.sol\":18089:18094  lpFee */\n      dup3\n        /* \"Task1/Mem.sol\":18073:18088  _lpFeeTotal.add */\n      tag_187\n        /* \"Task1/Mem.sol\":18073:18095  _lpFeeTotal.add(lpFee) */\n      jump\t// in\n    tag_317:\n        /* \"Task1/Mem.sol\":18059:18070  _lpFeeTotal */\n      0x0f\n        /* \"Task1/Mem.sol\":18059:18095  _lpFeeTotal = _lpFeeTotal.add(lpFee) */\n      sstore\n        /* \"Task1/Mem.sol\":18131:18140  lpAddress */\n      sload(0x13)\n        /* \"Task1/Mem.sol\":18114:18147  Transfer(account,lpAddress,lpFee) */\n      mload(0x40)\n        /* \"#utility.yul\":529:554   */\n      dup3\n      dup2\n      mstore\n      sub(shl(0xa0, 0x01), 0x01)\n        /* \"Task1/Mem.sol\":18131:18140  lpAddress */\n      swap2\n      dup3\n      and\n      swap2\n        /* \"Task1/Mem.sol\":18114:18147  Transfer(account,lpAddress,lpFee) */\n      dup10\n      and\n      swap1\n      0x00\n      dup1\n      mload\n      0x20\n      data_ada389e1fc24a8587c776340efb91b36e675792ab631816100d55df0b5cf3cbc\n      dup4\n      codecopy\n      dup2\n      mload\n      swap2\n      mstore\n      swap1\n        /* \"#utility.yul\":517:519   */\n      0x20\n        /* \"#utility.yul\":502:520   */\n      add\n        /* \"Task1/Mem.sol\":18114:18147  Transfer(account,lpAddress,lpFee) */\n      mload(0x40)\n      dup1\n      swap2\n      sub\n      swap1\n      log3\n        /* \"Task1/Mem.sol\":17906:18158  if (lpFee > 0){... */\n    tag_314:\n        /* \"Task1/Mem.sol\":18171:18185  charityFee > 0 */\n      dup3\n      iszero\n        /* \"Task1/Mem.sol\":18168:18463  if(charityFee > 0){... */\n      tag_319\n      jumpi\n        /* \"Task1/Mem.sol\":18217:18247  transferAmount.sub(charityFee) */\n      tag_320\n        /* \"Task1/Mem.sol\":18217:18231  transferAmount */\n      dup5\n        /* \"Task1/Mem.sol\":18236:18246  charityFee */\n      dup5\n        /* \"Task1/Mem.sol\":18217:18235  transferAmount.sub */\n      tag_261\n        /* \"Task1/Mem.sol\":18217:18247  transferAmount.sub(charityFee) */\n      jump\t// in\n    tag_320:\n        /* \"Task1/Mem.sol\":18300:18314  charityAddress */\n      and(sub(shl(0xa0, 0x01), 0x01), sload(0x11))\n        /* \"Task1/Mem.sol\":18290:18315  _balances[charityAddress] */\n      0x00\n      swap1\n      dup2\n      mstore\n        /* \"Task1/Mem.sol\":18290:18299  _balances */\n      0x04\n        /* \"Task1/Mem.sol\":18290:18315  _balances[charityAddress] */\n      0x20\n      mstore\n      0x40\n      swap1\n      keccak256\n      sload\n        /* \"Task1/Mem.sol\":18200:18247  transferAmount = transferAmount.sub(charityFee) */\n      swap1\n      swap5\n      pop\n        /* \"Task1/Mem.sol\":18290:18331  _balances[charityAddress].add(charityFee) */\n      tag_321\n      swap1\n        /* \"Task1/Mem.sol\":18320:18330  charityFee */\n      dup5\n        /* \"Task1/Mem.sol\":18290:18319  _balances[charityAddress].add */\n      tag_187\n        /* \"Task1/Mem.sol\":18290:18331  _balances[charityAddress].add(charityFee) */\n      jump\t// in\n    tag_321:\n        /* \"Task1/Mem.sol\":18272:18286  charityAddress */\n      and(sub(shl(0xa0, 0x01), 0x01), sload(0x11))\n        /* \"Task1/Mem.sol\":18262:18287  _balances[charityAddress] */\n      0x00\n      swap1\n      dup2\n      mstore\n        /* \"Task1/Mem.sol\":18262:18271  _balances */\n      0x04\n        /* \"Task1/Mem.sol\":18262:18287  _balances[charityAddress] */\n      0x20\n      mstore\n      0x40\n      swap1\n      keccak256\n        /* \"Task1/Mem.sol\":18262:18331  _balances[charityAddress] = _balances[charityAddress].add(charityFee) */\n      sstore\n        /* \"Task1/Mem.sol\":18361:18374  _charityTotal */\n      sload(0x0d)\n        /* \"Task1/Mem.sol\":18361:18390  _charityTotal.add(charityFee) */\n      tag_322\n      swap1\n        /* \"Task1/Mem.sol\":18379:18389  charityFee */\n      dup5\n        /* \"Task1/Mem.sol\":18361:18378  _charityTotal.add */\n      tag_187\n        /* \"Task1/Mem.sol\":18361:18390  _charityTotal.add(charityFee) */\n      jump\t// in\n    tag_322:\n        /* \"Task1/Mem.sol\":18345:18358  _charityTotal */\n      0x0d\n        /* \"Task1/Mem.sol\":18345:18390  _charityTotal = _charityTotal.add(charityFee) */\n      sstore\n        /* \"Task1/Mem.sol\":18426:18440  charityAddress */\n      sload(0x11)\n        /* \"Task1/Mem.sol\":18409:18452  Transfer(account,charityAddress,charityFee) */\n      mload(0x40)\n        /* \"#utility.yul\":529:554   */\n      dup5\n      dup2\n      mstore\n      sub(shl(0xa0, 0x01), 0x01)\n        /* \"Task1/Mem.sol\":18426:18440  charityAddress */\n      swap2\n      dup3\n      and\n      swap2\n        /* \"Task1/Mem.sol\":18409:18452  Transfer(account,charityAddress,charityFee) */\n      dup10\n      and\n      swap1\n      0x00\n      dup1\n      mload\n      0x20\n      data_ada389e1fc24a8587c776340efb91b36e675792ab631816100d55df0b5cf3cbc\n      dup4\n      codecopy\n      dup2\n      mload\n      swap2\n      mstore\n      swap1\n        /* \"#utility.yul\":517:519   */\n      0x20\n        /* \"#utility.yul\":502:520   */\n      add\n        /* \"Task1/Mem.sol\":18409:18452  Transfer(account,charityAddress,charityFee) */\n      mload(0x40)\n      dup1\n      swap2\n      sub\n      swap1\n      log3\n        /* \"Task1/Mem.sol\":18168:18463  if(charityFee > 0){... */\n    tag_319:\n      pop\n        /* \"Task1/Mem.sol\":18488:18502  transferAmount */\n      swap2\n      swap6\n        /* \"Task1/Mem.sol\":17262:18509  function SellCollectFee(address account, uint256 amount) private  returns (uint256) {... */\n      swap5\n      pop\n      pop\n      pop\n      pop\n      pop\n      jump\t// out\n        /* \"Task1/Mem.sol\":3114:3210  function sub(uint256 a, uint256 b) internal pure returns (uint256) {... */\n    tag_261:\n        /* \"Task1/Mem.sol\":3172:3179  uint256 */\n      0x00\n        /* \"Task1/Mem.sol\":3198:3203  a - b */\n      tag_275\n        /* \"Task1/Mem.sol\":3202:3203  b */\n      dup3\n        /* \"Task1/Mem.sol\":3198:3199  a */\n      dup5\n        /* \"Task1/Mem.sol\":3198:3203  a - b */\n      tag_326\n      jump\t// in\n        /* \"Task1/Mem.sol\":3457:3553  function mul(uint256 a, uint256 b) internal pure returns (uint256) {... */\n    tag_280:\n        /* \"Task1/Mem.sol\":3515:3522  uint256 */\n      0x00\n        /* \"Task1/Mem.sol\":3541:3546  a * b */\n      tag_275\n        /* \"Task1/Mem.sol\":3545:3546  b */\n      dup3\n        /* \"Task1/Mem.sol\":3541:3542  a */\n      dup5\n        /* \"Task1/Mem.sol\":3541:3546  a * b */\n      tag_330\n      jump\t// in\n        /* \"Task1/Mem.sol\":3842:3938  function div(uint256 a, uint256 b) internal pure returns (uint256) {... */\n    tag_281:\n        /* \"Task1/Mem.sol\":3900:3907  uint256 */\n      0x00\n        /* \"Task1/Mem.sol\":3926:3931  a / b */\n      tag_275\n        /* \"Task1/Mem.sol\":3930:3931  b */\n      dup3\n        /* \"Task1/Mem.sol\":3926:3927  a */\n      dup5\n        /* \"Task1/Mem.sol\":3926:3931  a / b */\n      tag_333\n      jump\t// in\n        /* \"#utility.yul\":14:187   */\n    tag_334:\n        /* \"#utility.yul\":82:102   */\n      dup1\n      calldataload\n      sub(shl(0xa0, 0x01), 0x01)\n        /* \"#utility.yul\":131:162   */\n      dup2\n      and\n        /* \"#utility.yul\":121:163   */\n      dup2\n      eq\n        /* \"#utility.yul\":111:181   */\n      tag_338\n      jumpi\n        /* \"#utility.yul\":177:178   */\n      0x00\n        /* \"#utility.yul\":174:175   */\n      dup1\n        /* \"#utility.yul\":167:179   */\n      revert\n        /* \"#utility.yul\":111:181   */\n    tag_338:\n        /* \"#utility.yul\":14:187   */\n      swap2\n      swap1\n      pop\n      jump\t// out\n        /* \"#utility.yul\":192:378   */\n    tag_43:\n        /* \"#utility.yul\":251:257   */\n      0x00\n        /* \"#utility.yul\":304:306   */\n      0x20\n        /* \"#utility.yul\":292:301   */\n      dup3\n        /* \"#utility.yul\":283:290   */\n      dup5\n        /* \"#utility.yul\":279:302   */\n      sub\n        /* \"#utility.yul\":275:307   */\n      slt\n        /* \"#utility.yul\":272:324   */\n      iszero\n      tag_340\n      jumpi\n        /* \"#utility.yul\":320:321   */\n      0x00\n        /* \"#utility.yul\":317:318   */\n      dup1\n        /* \"#utility.yul\":310:322   */\n      revert\n        /* \"#utility.yul\":272:324   */\n    tag_340:\n        /* \"#utility.yul\":343:372   */\n      tag_275\n        /* \"#utility.yul\":362:371   */\n      dup3\n        /* \"#utility.yul\":343:372   */\n      tag_334\n      jump\t// in\n        /* \"#utility.yul\":565:1113   */\n    tag_50:\n        /* \"#utility.yul\":677:681   */\n      0x00\n        /* \"#utility.yul\":706:708   */\n      0x20\n        /* \"#utility.yul\":735:737   */\n      dup1\n        /* \"#utility.yul\":724:733   */\n      dup4\n        /* \"#utility.yul\":717:738   */\n      mstore\n        /* \"#utility.yul\":767:773   */\n      dup4\n        /* \"#utility.yul\":761:774   */\n      mload\n        /* \"#utility.yul\":810:816   */\n      dup1\n        /* \"#utility.yul\":805:807   */\n      dup3\n        /* \"#utility.yul\":794:803   */\n      dup6\n        /* \"#utility.yul\":790:808   */\n      add\n        /* \"#utility.yul\":783:817   */\n      mstore\n        /* \"#utility.yul\":835:836   */\n      0x00\n        /* \"#utility.yul\":845:985   */\n    tag_344:\n        /* \"#utility.yul\":859:865   */\n      dup2\n        /* \"#utility.yul\":856:857   */\n      dup2\n        /* \"#utility.yul\":853:866   */\n      lt\n        /* \"#utility.yul\":845:985   */\n      iszero\n      tag_346\n      jumpi\n        /* \"#utility.yul\":954:968   */\n      dup6\n      dup2\n      add\n        /* \"#utility.yul\":950:973   */\n      dup4\n      add\n        /* \"#utility.yul\":944:974   */\n      mload\n        /* \"#utility.yul\":920:937   */\n      dup6\n      dup3\n      add\n        /* \"#utility.yul\":939:941   */\n      0x40\n        /* \"#utility.yul\":916:942   */\n      add\n        /* \"#utility.yul\":909:975   */\n      mstore\n        /* \"#utility.yul\":874:884   */\n      dup3\n      add\n        /* \"#utility.yul\":845:985   */\n      jump(tag_344)\n    tag_346:\n        /* \"#utility.yul\":849:852   */\n      pop\n        /* \"#utility.yul\":1034:1035   */\n      0x00\n        /* \"#utility.yul\":1029:1031   */\n      0x40\n        /* \"#utility.yul\":1020:1026   */\n      dup3\n        /* \"#utility.yul\":1009:1018   */\n      dup7\n        /* \"#utility.yul\":1005:1027   */\n      add\n        /* \"#utility.yul\":1001:1032   */\n      add\n        /* \"#utility.yul\":994:1036   */\n      mstore\n        /* \"#utility.yul\":1104:1106   */\n      0x40\n        /* \"#utility.yul\":1097:1099   */\n      0x1f\n        /* \"#utility.yul\":1093:1100   */\n      not\n        /* \"#utility.yul\":1088:1090   */\n      0x1f\n        /* \"#utility.yul\":1080:1086   */\n      dup4\n        /* \"#utility.yul\":1076:1091   */\n      add\n        /* \"#utility.yul\":1072:1101   */\n      and\n        /* \"#utility.yul\":1061:1070   */\n      dup6\n        /* \"#utility.yul\":1057:1102   */\n      add\n        /* \"#utility.yul\":1053:1107   */\n      add\n        /* \"#utility.yul\":1045:1107   */\n      swap3\n      pop\n      pop\n      pop\n        /* \"#utility.yul\":565:1113   */\n      swap3\n      swap2\n      pop\n      pop\n      jump\t// out\n        /* \"#utility.yul\":1118:1372   */\n    tag_53:\n        /* \"#utility.yul\":1186:1192   */\n      0x00\n        /* \"#utility.yul\":1194:1200   */\n      dup1\n        /* \"#utility.yul\":1247:1249   */\n      0x40\n        /* \"#utility.yul\":1235:1244   */\n      dup4\n        /* \"#utility.yul\":1226:1233   */\n      dup6\n        /* \"#utility.yul\":1222:1245   */\n      sub\n        /* \"#utility.yul\":1218:1250   */\n      slt\n        /* \"#utility.yul\":1215:1267   */\n      iszero\n      tag_348\n      jumpi\n        /* \"#utility.yul\":1263:1264   */\n      0x00\n        /* \"#utility.yul\":1260:1261   */\n      dup1\n        /* \"#utility.yul\":1253:1265   */\n      revert\n        /* \"#utility.yul\":1215:1267   */\n    tag_348:\n        /* \"#utility.yul\":1286:1315   */\n      tag_349\n        /* \"#utility.yul\":1305:1314   */\n      dup4\n        /* \"#utility.yul\":1286:1315   */\n      tag_334\n      jump\t// in\n    tag_349:\n        /* \"#utility.yul\":1276:1315   */\n      swap5\n        /* \"#utility.yul\":1362:1364   */\n      0x20\n        /* \"#utility.yul\":1347:1365   */\n      swap4\n      swap1\n      swap4\n      add\n        /* \"#utility.yul\":1334:1366   */\n      calldataload\n      swap4\n      pop\n      pop\n      pop\n        /* \"#utility.yul\":1118:1372   */\n      jump\t// out\n        /* \"#utility.yul\":1569:1897   */\n    tag_65:\n        /* \"#utility.yul\":1646:1652   */\n      0x00\n        /* \"#utility.yul\":1654:1660   */\n      dup1\n        /* \"#utility.yul\":1662:1668   */\n      0x00\n        /* \"#utility.yul\":1715:1717   */\n      0x60\n        /* \"#utility.yul\":1703:1712   */\n      dup5\n        /* \"#utility.yul\":1694:1701   */\n      dup7\n        /* \"#utility.yul\":1690:1713   */\n      sub\n        /* \"#utility.yul\":1686:1718   */\n      slt\n        /* \"#utility.yul\":1683:1735   */\n      iszero\n      tag_352\n      jumpi\n        /* \"#utility.yul\":1731:1732   */\n      0x00\n        /* \"#utility.yul\":1728:1729   */\n      dup1\n        /* \"#utility.yul\":1721:1733   */\n      revert\n        /* \"#utility.yul\":1683:1735   */\n    tag_352:\n        /* \"#utility.yul\":1754:1783   */\n      tag_353\n        /* \"#utility.yul\":1773:1782   */\n      dup5\n        /* \"#utility.yul\":1754:1783   */\n      tag_334\n      jump\t// in\n    tag_353:\n        /* \"#utility.yul\":1744:1783   */\n      swap3\n      pop\n        /* \"#utility.yul\":1802:1840   */\n      tag_354\n        /* \"#utility.yul\":1836:1838   */\n      0x20\n        /* \"#utility.yul\":1825:1834   */\n      dup6\n        /* \"#utility.yul\":1821:1839   */\n      add\n        /* \"#utility.yul\":1802:1840   */\n      tag_334\n      jump\t// in\n    tag_354:\n        /* \"#utility.yul\":1792:1840   */\n      swap2\n      pop\n        /* \"#utility.yul\":1887:1889   */\n      0x40\n        /* \"#utility.yul\":1876:1885   */\n      dup5\n        /* \"#utility.yul\":1872:1890   */\n      add\n        /* \"#utility.yul\":1859:1891   */\n      calldataload\n        /* \"#utility.yul\":1849:1891   */\n      swap1\n      pop\n        /* \"#utility.yul\":1569:1897   */\n      swap3\n      pop\n      swap3\n      pop\n      swap3\n      jump\t// out\n        /* \"#utility.yul\":1902:2249   */\n    tag_73:\n        /* \"#utility.yul\":1967:1973   */\n      0x00\n        /* \"#utility.yul\":1975:1981   */\n      dup1\n        /* \"#utility.yul\":2028:2030   */\n      0x40\n        /* \"#utility.yul\":2016:2025   */\n      dup4\n        /* \"#utility.yul\":2007:2014   */\n      dup6\n        /* \"#utility.yul\":2003:2026   */\n      sub\n        /* \"#utility.yul\":1999:2031   */\n      slt\n        /* \"#utility.yul\":1996:2048   */\n      iszero\n      tag_356\n      jumpi\n        /* \"#utility.yul\":2044:2045   */\n      0x00\n        /* \"#utility.yul\":2041:2042   */\n      dup1\n        /* \"#utility.yul\":2034:2046   */\n      revert\n        /* \"#utility.yul\":1996:2048   */\n    tag_356:\n        /* \"#utility.yul\":2067:2096   */\n      tag_357\n        /* \"#utility.yul\":2086:2095   */\n      dup4\n        /* \"#utility.yul\":2067:2096   */\n      tag_334\n      jump\t// in\n    tag_357:\n        /* \"#utility.yul\":2057:2096   */\n      swap2\n      pop\n        /* \"#utility.yul\":2146:2148   */\n      0x20\n        /* \"#utility.yul\":2135:2144   */\n      dup4\n        /* \"#utility.yul\":2131:2149   */\n      add\n        /* \"#utility.yul\":2118:2150   */\n      calldataload\n        /* \"#utility.yul\":2193:2198   */\n      dup1\n        /* \"#utility.yul\":2186:2199   */\n      iszero\n        /* \"#utility.yul\":2179:2200   */\n      iszero\n        /* \"#utility.yul\":2172:2177   */\n      dup2\n        /* \"#utility.yul\":2169:2201   */\n      eq\n        /* \"#utility.yul\":2159:2219   */\n      tag_358\n      jumpi\n        /* \"#utility.yul\":2215:2216   */\n      0x00\n        /* \"#utility.yul\":2212:2213   */\n      dup1\n        /* \"#utility.yul\":2205:2217   */\n      revert\n        /* \"#utility.yul\":2159:2219   */\n    tag_358:\n        /* \"#utility.yul\":2238:2243   */\n      dup1\n        /* \"#utility.yul\":2228:2243   */\n      swap2\n      pop\n      pop\n        /* \"#utility.yul\":1902:2249   */\n      swap3\n      pop\n      swap3\n      swap1\n      pop\n      jump\t// out\n        /* \"#utility.yul\":2651:2911   */\n    tag_145:\n        /* \"#utility.yul\":2719:2725   */\n      0x00\n        /* \"#utility.yul\":2727:2733   */\n      dup1\n        /* \"#utility.yul\":2780:2782   */\n      0x40\n        /* \"#utility.yul\":2768:2777   */\n      dup4\n        /* \"#utility.yul\":2759:2766   */\n      dup6\n        /* \"#utility.yul\":2755:2778   */\n      sub\n        /* \"#utility.yul\":2751:2783   */\n      slt\n        /* \"#utility.yul\":2748:2800   */\n      iszero\n      tag_362\n      jumpi\n        /* \"#utility.yul\":2796:2797   */\n      0x00\n        /* \"#utility.yul\":2793:2794   */\n      dup1\n        /* \"#utility.yul\":2786:2798   */\n      revert\n        /* \"#utility.yul\":2748:2800   */\n    tag_362:\n        /* \"#utility.yul\":2819:2848   */\n      tag_363\n        /* \"#utility.yul\":2838:2847   */\n      dup4\n        /* \"#utility.yul\":2819:2848   */\n      tag_334\n      jump\t// in\n    tag_363:\n        /* \"#utility.yul\":2809:2848   */\n      swap2\n      pop\n        /* \"#utility.yul\":2867:2905   */\n      tag_364\n        /* \"#utility.yul\":2901:2903   */\n      0x20\n        /* \"#utility.yul\":2890:2899   */\n      dup5\n        /* \"#utility.yul\":2886:2904   */\n      add\n        /* \"#utility.yul\":2867:2905   */\n      tag_334\n      jump\t// in\n    tag_364:\n        /* \"#utility.yul\":2857:2905   */\n      swap1\n      pop\n        /* \"#utility.yul\":2651:2911   */\n      swap3\n      pop\n      swap3\n      swap1\n      pop\n      jump\t// out\n        /* \"#utility.yul\":2916:3296   */\n    tag_153:\n        /* \"#utility.yul\":2995:2996   */\n      0x01\n        /* \"#utility.yul\":2991:3003   */\n      dup2\n      dup2\n      shr\n      swap1\n        /* \"#utility.yul\":3038:3050   */\n      dup3\n      and\n      dup1\n        /* \"#utility.yul\":3059:3120   */\n      tag_366\n      jumpi\n        /* \"#utility.yul\":3113:3117   */\n      0x7f\n        /* \"#utility.yul\":3105:3111   */\n      dup3\n        /* \"#utility.yul\":3101:3118   */\n      and\n        /* \"#utility.yul\":3091:3118   */\n      swap2\n      pop\n        /* \"#utility.yul\":3059:3120   */\n    tag_366:\n        /* \"#utility.yul\":3166:3168   */\n      0x20\n        /* \"#utility.yul\":3158:3164   */\n      dup3\n        /* \"#utility.yul\":3155:3169   */\n      lt\n        /* \"#utility.yul\":3135:3153   */\n      dup2\n        /* \"#utility.yul\":3132:3170   */\n      sub\n        /* \"#utility.yul\":3129:3290   */\n      tag_367\n      jumpi\n        /* \"#utility.yul\":3212:3222   */\n      0x4e487b71\n        /* \"#utility.yul\":3207:3210   */\n      0xe0\n        /* \"#utility.yul\":3203:3223   */\n      shl\n        /* \"#utility.yul\":3200:3201   */\n      0x00\n        /* \"#utility.yul\":3193:3224   */\n      mstore\n        /* \"#utility.yul\":3247:3251   */\n      0x22\n        /* \"#utility.yul\":3244:3245   */\n      0x04\n        /* \"#utility.yul\":3237:3252   */\n      mstore\n        /* \"#utility.yul\":3275:3279   */\n      0x24\n        /* \"#utility.yul\":3272:3273   */\n      0x00\n        /* \"#utility.yul\":3265:3280   */\n      revert\n        /* \"#utility.yul\":3129:3290   */\n    tag_367:\n      pop\n        /* \"#utility.yul\":2916:3296   */\n      swap2\n      swap1\n      pop\n      jump\t// out\n        /* \"#utility.yul\":3301:3428   */\n    tag_335:\n        /* \"#utility.yul\":3362:3372   */\n      0x4e487b71\n        /* \"#utility.yul\":3357:3360   */\n      0xe0\n        /* \"#utility.yul\":3353:3373   */\n      shl\n        /* \"#utility.yul\":3350:3351   */\n      0x00\n        /* \"#utility.yul\":3343:3374   */\n      mstore\n        /* \"#utility.yul\":3393:3397   */\n      0x11\n        /* \"#utility.yul\":3390:3391   */\n      0x04\n        /* \"#utility.yul\":3383:3398   */\n      mstore\n        /* \"#utility.yul\":3417:3421   */\n      0x24\n        /* \"#utility.yul\":3414:3415   */\n      0x00\n        /* \"#utility.yul\":3407:3422   */\n      revert\n        /* \"#utility.yul\":3433:3558   */\n    tag_165:\n        /* \"#utility.yul\":3498:3507   */\n      dup1\n      dup3\n      add\n        /* \"#utility.yul\":3519:3529   */\n      dup1\n      dup3\n      gt\n        /* \"#utility.yul\":3516:3552   */\n      iszero\n      tag_158\n      jumpi\n        /* \"#utility.yul\":3532:3550   */\n      tag_158\n      tag_335\n      jump\t// in\n        /* \"#utility.yul\":6655:6783   */\n    tag_326:\n        /* \"#utility.yul\":6722:6731   */\n      dup2\n      dup2\n      sub\n        /* \"#utility.yul\":6743:6754   */\n      dup2\n      dup2\n      gt\n        /* \"#utility.yul\":6740:6777   */\n      iszero\n      tag_158\n      jumpi\n        /* \"#utility.yul\":6757:6775   */\n      tag_158\n      tag_335\n      jump\t// in\n        /* \"#utility.yul\":6788:6956   */\n    tag_330:\n        /* \"#utility.yul\":6861:6870   */\n      dup1\n      dup3\n      mul\n        /* \"#utility.yul\":6892:6901   */\n      dup2\n      iszero\n        /* \"#utility.yul\":6909:6924   */\n      dup3\n      dup3\n      div\n        /* \"#utility.yul\":6903:6925   */\n      dup5\n      eq\n        /* \"#utility.yul\":6889:6926   */\n      or\n        /* \"#utility.yul\":6879:6950   */\n      tag_158\n      jumpi\n        /* \"#utility.yul\":6930:6948   */\n      tag_158\n      tag_335\n      jump\t// in\n        /* \"#utility.yul\":6961:7178   */\n    tag_333:\n        /* \"#utility.yul\":7001:7002   */\n      0x00\n        /* \"#utility.yul\":7027:7028   */\n      dup3\n        /* \"#utility.yul\":7017:7149   */\n      tag_387\n      jumpi\n        /* \"#utility.yul\":7071:7081   */\n      0x4e487b71\n        /* \"#utility.yul\":7066:7069   */\n      0xe0\n        /* \"#utility.yul\":7062:7082   */\n      shl\n        /* \"#utility.yul\":7059:7060   */\n      0x00\n        /* \"#utility.yul\":7052:7083   */\n      mstore\n        /* \"#utility.yul\":7106:7110   */\n      0x12\n        /* \"#utility.yul\":7103:7104   */\n      0x04\n        /* \"#utility.yul\":7096:7111   */\n      mstore\n        /* \"#utility.yul\":7134:7138   */\n      0x24\n        /* \"#utility.yul\":7131:7132   */\n      0x00\n        /* \"#utility.yul\":7124:7139   */\n      revert\n        /* \"#utility.yul\":7017:7149   */\n    tag_387:\n      pop\n        /* \"#utility.yul\":7163:7172   */\n      div\n      swap1\n        /* \"#utility.yul\":6961:7178   */\n      jump\t// out\n    stop\n    data_974d1b4421da69cc60b481194f0dad36a5bb4e23da810da7a7fb30cdba178330 45524332303a207472616e7366657220616d6f756e74206578636565647320616c6c6f77616e6365\n    data_ada389e1fc24a8587c776340efb91b36e675792ab631816100d55df0b5cf3cbc ddf252ad1be2c89b69c2b068fc378daa952ba7f163c4a11628f55a4df523b3ef\n    data_f8b476f7d28209d77d4a4ac1fe36b9f8259aa1bb6bddfa6e89de7e51615cf8a8 45524332303a2064656372656173656420616c6c6f77616e63652062656c6f77207a65726f\n\n    auxdata: 0xa264697066735822122033285e74707a7872ed6036ad23de40a0a8e9c886c57a84a648ebac68b2e9290464736f6c63430008130033\n}\n",
				"bytecode": {
					"linkReferences": {},
					"object": "60c0604052600b60809081526a4d656d457468657265756d60a81b60a0526001906200002c908262000272565b5060408051808201909152600481526309a8aa8960e31b602082015260029062000057908262000272565b506003805460ff191660129081179091556c01431e0fae6d7217caa000000060085560646009819055600a819055600b5561012c600c55601180546001600160a01b0319908116732cd2bd245b2c563c98356b543d6c9a1abf7353c51790915581548116909155601480549091167380dc1b16eb733ca49b289f6b39090ec0dc0222a81790556b09b18ab5df7180b6b8000000601555348015620000fa57600080fd5b5062000106336200017d565b3360008181526006602090815260408083208054600160ff199182168117909255308552828520805490911690911790556008548484526004835281842081905590519081527fddf252ad1be2c89b69c2b068fc378daa952ba7f163c4a11628f55a4df523b3ef910160405180910390a36200033e565b600080546001600160a01b038381166001600160a01b0319831681178455604051919092169283917f8be0079c531659141344cd1fd0a4f28419497f9722a3daafe3b4186f6b6457e09190a35050565b634e487b7160e01b600052604160045260246000fd5b600181811c90821680620001f857607f821691505b6020821081036200021957634e487b7160e01b600052602260045260246000fd5b50919050565b601f8211156200026d57600081815260208120601f850160051c81016020861015620002485750805b601f850160051c820191505b81811015620002695782815560010162000254565b5050505b505050565b81516001600160401b038111156200028e576200028e620001cd565b620002a6816200029f8454620001e3565b846200021f565b602080601f831160018114620002de5760008415620002c55750858301515b600019600386901b1c1916600185901b17855562000269565b600085815260208120601f198616915b828110156200030f57888601518255948401946001909101908401620002ee565b50858210156200032e5787850151600019600388901b60f8161c191681555b5050505050600190811b01905550565b61153a806200034e6000396000f3fe608060405234801561001057600080fd5b50600436106101e55760003560e01c806370a082311161010f578063a9059cbb116100a2578063bcac917611610071578063bcac9176146103e6578063ceae0e8d146103ef578063dd62ed3e146103f8578063f2fde38b1461043157600080fd5b8063a9059cbb146103ae578063ad0a00aa146103c1578063afcf2fc4146103ca578063bbde77c1146103dd57600080fd5b80638da5cb5b116100de5780638da5cb5b1461036f57806395d89b41146103805780639b4dc8cc14610388578063a457c2d71461039b57600080fd5b806370a0823114610322578063715018a61461034b5780637a351a1d1461035357806382d99cb11461036657600080fd5b80632d43abd811610187578063481123961161015657806348112396146102ea5780634f8244f4146102fd57806352db1ca4146103065780636c7261371461030f57600080fd5b80632d43abd814610282578063313ce567146102975780633871ef64146102ac57806339509351146102d757600080fd5b806315c93a7d116101c357806315c93a7d1461025557806318160ddd1461025e57806323b872dd1461026657806327364d211461027957600080fd5b806302fb4880146101ea57806306fdde031461021d578063095ea7b314610232575b600080fd5b61020a6101f83660046112aa565b60076020526000908152604090205481565b6040519081526020015b60405180910390f35b610225610444565b60405161021491906112c5565b610245610240366004611313565b6104d6565b6040519015158152602001610214565b61020a600b5481565b60085461020a565b61024561027436600461133d565b6104ed565b61020a600f5481565b610295610290366004611379565b610652565b005b60035460405160ff9091168152602001610214565b6014546102bf906001600160a01b031681565b6040516001600160a01b039091168152602001610214565b6102456102e5366004611313565b61067f565b6012546102bf906001600160a01b031681565b61020a60105481565b61020a600d5481565b61029561031d366004611379565b6106b5565b61020a6103303660046112aa565b6001600160a01b031660009081526004602052604090205490565b6102956106df565b6102956103613660046112aa565b6106f3565b61020a60095481565b6000546001600160a01b03166102bf565b610225610738565b6013546102bf906001600160a01b031681565b6102456103a9366004611313565b610747565b6102456103bc366004611313565b610796565b61020a600a5481565b6011546102bf906001600160a01b031681565b61020a60155481565b61020a600c5481565b61020a600e5481565b61020a6104063660046113b5565b6001600160a01b03918216600090815260056020908152604080832093909416825291909152205490565b61029561043f3660046112aa565b6108bf565b606060018054610453906113e8565b80601f016020809104026020016040519081016040528092919081815260200182805461047f906113e8565b80156104cc5780601f106104a1576101008083540402835291602001916104cc565b820191906000526020600020905b8154815290600101906020018083116104af57829003601f168201915b5050505050905090565b60006104e3338484610938565b5060015b92915050565b33600081815260076020526040812054909190158061053057506001600160a01b038116600090815260076020526040902054429061052d90600a611438565b11155b6105755760405162461bcd60e51b81526020600482015260116024820152701058d8dbdd5b9d081a5cc81b1bd8dad959607a1b60448201526064015b60405180910390fd5b6015546001600160a01b03851660009081526004602052604090205461059c908590611438565b11156105ea5760405162461bcd60e51b815260206004820152601f60248201527f4d6178696d756d2077616c6c65742062616c616e636520657863656564656400604482015260640161056c565b6105f5858585610a5c565b610647853361064286604051806060016040528060288152602001611498602891396001600160a01b038b1660009081526005602090815260408083203384529091529020549190610d08565b610938565b506001949350505050565b61065a610d34565b506001600160a01b03166000908152600660205260409020805460ff19166001179055565b3360008181526005602090815260408083206001600160a01b038716845290915281205490916104e39185906106429086610d8e565b6106bd610d34565b506001600160a01b03166000908152600660205260409020805460ff19169055565b6106e7610d34565b6106f16000610da1565b565b6106fb610d34565b6013546001600160a01b039081169082160361071657600080fd5b601380546001600160a01b0319166001600160a01b0392909216919091179055565b606060028054610453906113e8565b60006104e33384610642856040518060600160405280602581526020016114e0602591393360009081526005602090815260408083206001600160a01b038d1684529091529020549190610d08565b3360008181526007602052604081205490919015806107d957506001600160a01b03811660009081526007602052604090205442906107d690600a611438565b11155b6108195760405162461bcd60e51b81526020600482015260116024820152701058d8dbdd5b9d081a5cc81b1bd8dad959607a1b604482015260640161056c565b83836015548161083e846001600160a01b031660009081526004602052604090205490565b6108489190611438565b11156108965760405162461bcd60e51b815260206004820152601f60248201527f4d6178696d756d2077616c6c65742062616c616e636520657863656564656400604482015260640161056c565b6108a1338787610a5c565b50503360009081526007602052604090204290555060019392505050565b6108c7610d34565b6001600160a01b03811661092c5760405162461bcd60e51b815260206004820152602660248201527f4f776e61626c653a206e6577206f776e657220697320746865207a65726f206160448201526564647265737360d01b606482015260840161056c565b61093581610da1565b50565b6001600160a01b03831661099a5760405162461bcd60e51b8152602060048201526024808201527f45524332303a20617070726f76652066726f6d20746865207a65726f206164646044820152637265737360e01b606482015260840161056c565b6001600160a01b0382166109fb5760405162461bcd60e51b815260206004820152602260248201527f45524332303a20617070726f766520746f20746865207a65726f206164647265604482015261737360f01b606482015260840161056c565b6001600160a01b0383811660008181526005602090815260408083209487168084529482529182902085905590518481527f8c5be1e5ebec7d5bd14f71427d1e84f3dd0314c0f7b2291e5b200ac8c7c3b925910160405180910390a3505050565b6001600160a01b038316610ac05760405162461bcd60e51b815260206004820152602560248201527f45524332303a207472616e736665722066726f6d20746865207a65726f206164604482015264647265737360d81b606482015260840161056c565b6001600160a01b038216610b225760405162461bcd60e51b815260206004820152602360248201527f45524332303a207472616e7366657220746f20746865207a65726f206164647260448201526265737360e81b606482015260840161056c565b6001600160a01b038316600090815260066020526040902054819060ff168015610b6457506001600160a01b03831660009081526006602052604090205460ff165b15610b6c5750805b6001600160a01b03841660009081526006602052604090205460ff16158015610bae57506001600160a01b03831660009081526006602052604090205460ff16155b15610bc057610bbd8483610df1565b90505b6001600160a01b03841660009081526006602052604090205460ff168015610c0157506001600160a01b03831660009081526006602052604090205460ff16155b15610c1357610c108483610ebb565b90505b6001600160a01b03841660009081526006602052604090205460ff16158015610c5457506001600160a01b03831660009081526006602052604090205460ff165b15610c6657610c638483611037565b90505b6001600160a01b038416600090815260046020526040902054610c89908361126a565b6001600160a01b038086166000908152600460205260408082209390935590851681522054610cb89082610d8e565b6001600160a01b0380851660008181526004602052604090819020939093559151908616906000805160206114c083398151915290610cfa9085815260200190565b60405180910390a350505050565b60008184841115610d2c5760405162461bcd60e51b815260040161056c91906112c5565b505050900390565b6000546001600160a01b031633146106f15760405162461bcd60e51b815260206004820181905260248201527f4f776e61626c653a2063616c6c6572206973206e6f7420746865206f776e6572604482015260640161056c565b6000610d9a8284611438565b9392505050565b600080546001600160a01b038381166001600160a01b0319831681178455604051919092169283917f8be0079c531659141344cd1fd0a4f28419497f9722a3daafe3b4186f6b6457e09190a35050565b6000808290506000610e1a612710610e14600c548761127690919063ffffffff16565b90611282565b90508015610eb357610e2c828261126a565b6014546001600160a01b0316600090815260046020526040902054909250610e549082610d8e565b6014546001600160a01b0316600090815260046020526040902055601054610e7c9082610d8e565b6010556014546040518281526001600160a01b03918216918716906000805160206114c08339815191529060200160405180910390a35b509392505050565b6000808290506000610ede612710610e146009548761127690919063ffffffff16565b90506000610efd612710610e14600b548861127690919063ffffffff16565b90508015610f9657610f0f838261126a565b6013546001600160a01b0316600090815260046020526040902054909350610f379082610d8e565b6013546001600160a01b0316600090815260046020526040902055600f54610f5f9082610d8e565b600f556013546040518281526001600160a01b03918216918816906000805160206114c08339815191529060200160405180910390a35b811561102d57610fa6838361126a565b6011546001600160a01b0316600090815260046020526040902054909350610fce9083610d8e565b6011546001600160a01b0316600090815260046020526040902055600d54610ff69083610d8e565b600d556011546040518381526001600160a01b03918216918816906000805160206114c08339815191529060200160405180910390a35b5090949350505050565b600080829050600061105a612710610e146009548761127690919063ffffffff16565b90506000611079612710610e14600a548861127690919063ffffffff16565b90506000611098612710610e14600b548961127690919063ffffffff16565b90508115611131576110aa848361126a565b6012546001600160a01b03166000908152600460205260409020549094506110d29083610d8e565b6012546001600160a01b0316600090815260046020526040902055600e546110fa9083610d8e565b600e556012546040518381526001600160a01b03918216918916906000805160206114c08339815191529060200160405180910390a35b80156111c857611141848261126a565b6013546001600160a01b03166000908152600460205260409020549094506111699082610d8e565b6013546001600160a01b0316600090815260046020526040902055600f546111919082610d8e565b600f556013546040518281526001600160a01b03918216918916906000805160206114c08339815191529060200160405180910390a35b821561125f576111d8848461126a565b6011546001600160a01b03166000908152600460205260409020549094506112009084610d8e565b6011546001600160a01b0316600090815260046020526040902055600d546112289084610d8e565b600d556011546040518481526001600160a01b03918216918916906000805160206114c08339815191529060200160405180910390a35b509195945050505050565b6000610d9a828461144b565b6000610d9a828461145e565b6000610d9a8284611475565b80356001600160a01b03811681146112a557600080fd5b919050565b6000602082840312156112bc57600080fd5b610d9a8261128e565b600060208083528351808285015260005b818110156112f2578581018301518582016040015282016112d6565b506000604082860101526040601f19601f8301168501019250505092915050565b6000806040838503121561132657600080fd5b61132f8361128e565b946020939093013593505050565b60008060006060848603121561135257600080fd5b61135b8461128e565b92506113696020850161128e565b9150604084013590509250925092565b6000806040838503121561138c57600080fd5b6113958361128e565b9150602083013580151581146113aa57600080fd5b809150509250929050565b600080604083850312156113c857600080fd5b6113d18361128e565b91506113df6020840161128e565b90509250929050565b600181811c908216806113fc57607f821691505b60208210810361141c57634e487b7160e01b600052602260045260246000fd5b50919050565b634e487b7160e01b600052601160045260246000fd5b808201808211156104e7576104e7611422565b818103818111156104e7576104e7611422565b80820281158282048414176104e7576104e7611422565b60008261149257634e487b7160e01b600052601260045260246000fd5b50049056fe45524332303a207472616e7366657220616d6f756e74206578636565647320616c6c6f77616e6365ddf252ad1be2c89b69c2b068fc378daa952ba7f163c4a11628f55a4df523b3ef45524332303a2064656372656173656420616c6c6f77616e63652062656c6f77207a65726fa264697066735822122033285e74707a7872ed6036ad23de40a0a8e9c886c57a84a648ebac68b2e9290464736f6c63430008130033",
					"opcodes": "PUSH1 0xC0 PUSH1 0x40 MSTORE PUSH1 0xB PUSH1 0x80 SWAP1 DUP2 MSTORE PUSH11 0x4D656D457468657265756D PUSH1 0xA8 SHL PUSH1 0xA0 MSTORE PUSH1 0x1 SWAP1 PUSH3 0x2C SWAP1 DUP3 PUSH3 0x272 JUMP JUMPDEST POP PUSH1 0x40 DUP1 MLOAD DUP1 DUP3 ADD SWAP1 SWAP2 MSTORE PUSH1 0x4 DUP2 MSTORE PUSH4 0x9A8AA89 PUSH1 0xE3 SHL PUSH1 0x20 DUP3 ADD MSTORE PUSH1 0x2 SWAP1 PUSH3 0x57 SWAP1 DUP3 PUSH3 0x272 JUMP JUMPDEST POP PUSH1 0x3 DUP1 SLOAD PUSH1 0xFF NOT AND PUSH1 0x12 SWAP1 DUP2 OR SWAP1 SWAP2 SSTORE PUSH13 0x1431E0FAE6D7217CAA0000000 PUSH1 0x8 SSTORE PUSH1 0x64 PUSH1 0x9 DUP2 SWAP1 SSTORE PUSH1 0xA DUP2 SWAP1 SSTORE PUSH1 0xB SSTORE PUSH2 0x12C PUSH1 0xC SSTORE PUSH1 0x11 DUP1 SLOAD PUSH1 0x1 PUSH1 0x1 PUSH1 0xA0 SHL SUB NOT SWAP1 DUP2 AND PUSH20 0x2CD2BD245B2C563C98356B543D6C9A1ABF7353C5 OR SWAP1 SWAP2 SSTORE DUP2 SLOAD DUP2 AND SWAP1 SWAP2 SSTORE PUSH1 0x14 DUP1 SLOAD SWAP1 SWAP2 AND PUSH20 0x80DC1B16EB733CA49B289F6B39090EC0DC0222A8 OR SWAP1 SSTORE PUSH12 0x9B18AB5DF7180B6B8000000 PUSH1 0x15 SSTORE CALLVALUE DUP1 ISZERO PUSH3 0xFA JUMPI PUSH1 0x0 DUP1 REVERT JUMPDEST POP PUSH3 0x106 CALLER PUSH3 0x17D JUMP JUMPDEST CALLER PUSH1 0x0 DUP2 DUP2 MSTORE PUSH1 0x6 PUSH1 0x20 SWAP1 DUP2 MSTORE PUSH1 0x40 DUP1 DUP4 KECCAK256 DUP1 SLOAD PUSH1 0x1 PUSH1 0xFF NOT SWAP2 DUP3 AND DUP2 OR SWAP1 SWAP3 SSTORE ADDRESS DUP6 MSTORE DUP3 DUP6 KECCAK256 DUP1 SLOAD SWAP1 SWAP2 AND SWAP1 SWAP2 OR SWAP1 SSTORE PUSH1 0x8 SLOAD DUP5 DUP5 MSTORE PUSH1 0x4 DUP4 MSTORE DUP2 DUP5 KECCAK256 DUP2 SWAP1 SSTORE SWAP1 MLOAD SWAP1 DUP2 MSTORE PUSH32 0xDDF252AD1BE2C89B69C2B068FC378DAA952BA7F163C4A11628F55A4DF523B3EF SWAP2 ADD PUSH1 0x40 MLOAD DUP1 SWAP2 SUB SWAP1 LOG3 PUSH3 0x33E JUMP JUMPDEST PUSH1 0x0 DUP1 SLOAD PUSH1 0x1 PUSH1 0x1 PUSH1 0xA0 SHL SUB DUP4 DUP2 AND PUSH1 0x1 PUSH1 0x1 PUSH1 0xA0 SHL SUB NOT DUP4 AND DUP2 OR DUP5 SSTORE PUSH1 0x40 MLOAD SWAP2 SWAP1 SWAP3 AND SWAP3 DUP4 SWAP2 PUSH32 0x8BE0079C531659141344CD1FD0A4F28419497F9722A3DAAFE3B4186F6B6457E0 SWAP2 SWAP1 LOG3 POP POP JUMP JUMPDEST PUSH4 0x4E487B71 PUSH1 0xE0 SHL PUSH1 0x0 MSTORE PUSH1 0x41 PUSH1 0x4 MSTORE PUSH1 0x24 PUSH1 0x0 REVERT JUMPDEST PUSH1 0x1 DUP2 DUP2 SHR SWAP1 DUP3 AND DUP1 PUSH3 0x1F8 JUMPI PUSH1 0x7F DUP3 AND SWAP2 POP JUMPDEST PUSH1 0x20 DUP3 LT DUP2 SUB PUSH3 0x219 JUMPI PUSH4 0x4E487B71 PUSH1 0xE0 SHL PUSH1 0x0 MSTORE PUSH1 0x22 PUSH1 0x4 MSTORE PUSH1 0x24 PUSH1 0x0 REVERT JUMPDEST POP SWAP2 SWAP1 POP JUMP JUMPDEST PUSH1 0x1F DUP3 GT ISZERO PUSH3 0x26D JUMPI PUSH1 0x0 DUP2 DUP2 MSTORE PUSH1 0x20 DUP2 KECCAK256 PUSH1 0x1F DUP6 ADD PUSH1 0x5 SHR DUP2 ADD PUSH1 0x20 DUP7 LT ISZERO PUSH3 0x248 JUMPI POP DUP1 JUMPDEST PUSH1 0x1F DUP6 ADD PUSH1 0x5 SHR DUP3 ADD SWAP2 POP JUMPDEST DUP2 DUP2 LT ISZERO PUSH3 0x269 JUMPI DUP3 DUP2 SSTORE PUSH1 0x1 ADD PUSH3 0x254 JUMP JUMPDEST POP POP POP JUMPDEST POP POP POP JUMP JUMPDEST DUP2 MLOAD PUSH1 0x1 PUSH1 0x1 PUSH1 0x40 SHL SUB DUP2 GT ISZERO PUSH3 0x28E JUMPI PUSH3 0x28E PUSH3 0x1CD JUMP JUMPDEST PUSH3 0x2A6 DUP2 PUSH3 0x29F DUP5 SLOAD PUSH3 0x1E3 JUMP JUMPDEST DUP5 PUSH3 0x21F JUMP JUMPDEST PUSH1 0x20 DUP1 PUSH1 0x1F DUP4 GT PUSH1 0x1 DUP2 EQ PUSH3 0x2DE JUMPI PUSH1 0x0 DUP5 ISZERO PUSH3 0x2C5 JUMPI POP DUP6 DUP4 ADD MLOAD JUMPDEST PUSH1 0x0 NOT PUSH1 0x3 DUP7 SWAP1 SHL SHR NOT AND PUSH1 0x1 DUP6 SWAP1 SHL OR DUP6 SSTORE PUSH3 0x269 JUMP JUMPDEST PUSH1 0x0 DUP6 DUP2 MSTORE PUSH1 0x20 DUP2 KECCAK256 PUSH1 0x1F NOT DUP7 AND SWAP2 JUMPDEST DUP3 DUP2 LT ISZERO PUSH3 0x30F JUMPI DUP9 DUP7 ADD MLOAD DUP3 SSTORE SWAP5 DUP5 ADD SWAP5 PUSH1 0x1 SWAP1 SWAP2 ADD SWAP1 DUP5 ADD PUSH3 0x2EE JUMP JUMPDEST POP DUP6 DUP3 LT ISZERO PUSH3 0x32E JUMPI DUP8 DUP6 ADD MLOAD PUSH1 0x0 NOT PUSH1 0x3 DUP9 SWAP1 SHL PUSH1 0xF8 AND SHR NOT AND DUP2 SSTORE JUMPDEST POP POP POP POP POP PUSH1 0x1 SWAP1 DUP2 SHL ADD SWAP1 SSTORE POP JUMP JUMPDEST PUSH2 0x153A DUP1 PUSH3 0x34E PUSH1 0x0 CODECOPY PUSH1 0x0 RETURN INVALID PUSH1 0x80 PUSH1 0x40 MSTORE CALLVALUE DUP1 ISZERO PUSH2 0x10 JUMPI PUSH1 0x0 DUP1 REVERT JUMPDEST POP PUSH1 0x4 CALLDATASIZE LT PUSH2 0x1E5 JUMPI PUSH1 0x0 CALLDATALOAD PUSH1 0xE0 SHR DUP1 PUSH4 0x70A08231 GT PUSH2 0x10F JUMPI DUP1 PUSH4 0xA9059CBB GT PUSH2 0xA2 JUMPI DUP1 PUSH4 0xBCAC9176 GT PUSH2 0x71 JUMPI DUP1 PUSH4 0xBCAC9176 EQ PUSH2 0x3E6 JUMPI DUP1 PUSH4 0xCEAE0E8D EQ PUSH2 0x3EF JUMPI DUP1 PUSH4 0xDD62ED3E EQ PUSH2 0x3F8 JUMPI DUP1 PUSH4 0xF2FDE38B EQ PUSH2 0x431 JUMPI PUSH1 0x0 DUP1 REVERT JUMPDEST DUP1 PUSH4 0xA9059CBB EQ PUSH2 0x3AE JUMPI DUP1 PUSH4 0xAD0A00AA EQ PUSH2 0x3C1 JUMPI DUP1 PUSH4 0xAFCF2FC4 EQ PUSH2 0x3CA JUMPI DUP1 PUSH4 0xBBDE77C1 EQ PUSH2 0x3DD JUMPI PUSH1 0x0 DUP1 REVERT JUMPDEST DUP1 PUSH4 0x8DA5CB5B GT PUSH2 0xDE JUMPI DUP1 PUSH4 0x8DA5CB5B EQ PUSH2 0x36F JUMPI DUP1 PUSH4 0x95D89B41 EQ PUSH2 0x380 JUMPI DUP1 PUSH4 0x9B4DC8CC EQ PUSH2 0x388 JUMPI DUP1 PUSH4 0xA457C2D7 EQ PUSH2 0x39B JUMPI PUSH1 0x0 DUP1 REVERT JUMPDEST DUP1 PUSH4 0x70A08231 EQ PUSH2 0x322 JUMPI DUP1 PUSH4 0x715018A6 EQ PUSH2 0x34B JUMPI DUP1 PUSH4 0x7A351A1D EQ PUSH2 0x353 JUMPI DUP1 PUSH4 0x82D99CB1 EQ PUSH2 0x366 JUMPI PUSH1 0x0 DUP1 REVERT JUMPDEST DUP1 PUSH4 0x2D43ABD8 GT PUSH2 0x187 JUMPI DUP1 PUSH4 0x48112396 GT PUSH2 0x156 JUMPI DUP1 PUSH4 0x48112396 EQ PUSH2 0x2EA JUMPI DUP1 PUSH4 0x4F8244F4 EQ PUSH2 0x2FD JUMPI DUP1 PUSH4 0x52DB1CA4 EQ PUSH2 0x306 JUMPI DUP1 PUSH4 0x6C726137 EQ PUSH2 0x30F JUMPI PUSH1 0x0 DUP1 REVERT JUMPDEST DUP1 PUSH4 0x2D43ABD8 EQ PUSH2 0x282 JUMPI DUP1 PUSH4 0x313CE567 EQ PUSH2 0x297 JUMPI DUP1 PUSH4 0x3871EF64 EQ PUSH2 0x2AC JUMPI DUP1 PUSH4 0x39509351 EQ PUSH2 0x2D7 JUMPI PUSH1 0x0 DUP1 REVERT JUMPDEST DUP1 PUSH4 0x15C93A7D GT PUSH2 0x1C3 JUMPI DUP1 PUSH4 0x15C93A7D EQ PUSH2 0x255 JUMPI DUP1 PUSH4 0x18160DDD EQ PUSH2 0x25E JUMPI DUP1 PUSH4 0x23B872DD EQ PUSH2 0x266 JUMPI DUP1 PUSH4 0x27364D21 EQ PUSH2 0x279 JUMPI PUSH1 0x0 DUP1 REVERT JUMPDEST DUP1 PUSH4 0x2FB4880 EQ PUSH2 0x1EA JUMPI DUP1 PUSH4 0x6FDDE03 EQ PUSH2 0x21D JUMPI DUP1 PUSH4 0x95EA7B3 EQ PUSH2 0x232 JUMPI JUMPDEST PUSH1 0x0 DUP1 REVERT JUMPDEST PUSH2 0x20A PUSH2 0x1F8 CALLDATASIZE PUSH1 0x4 PUSH2 0x12AA JUMP JUMPDEST PUSH1 0x7 PUSH1 0x20 MSTORE PUSH1 0x0 SWAP1 DUP2 MSTORE PUSH1 0x40 SWAP1 KECCAK256 SLOAD DUP2 JUMP JUMPDEST PUSH1 0x40 MLOAD SWAP1 DUP2 MSTORE PUSH1 0x20 ADD JUMPDEST PUSH1 0x40 MLOAD DUP1 SWAP2 SUB SWAP1 RETURN JUMPDEST PUSH2 0x225 PUSH2 0x444 JUMP JUMPDEST PUSH1 0x40 MLOAD PUSH2 0x214 SWAP2 SWAP1 PUSH2 0x12C5 JUMP JUMPDEST PUSH2 0x245 PUSH2 0x240 CALLDATASIZE PUSH1 0x4 PUSH2 0x1313 JUMP JUMPDEST PUSH2 0x4D6 JUMP JUMPDEST PUSH1 0x40 MLOAD SWAP1 ISZERO ISZERO DUP2 MSTORE PUSH1 0x20 ADD PUSH2 0x214 JUMP JUMPDEST PUSH2 0x20A PUSH1 0xB SLOAD DUP2 JUMP JUMPDEST PUSH1 0x8 SLOAD PUSH2 0x20A JUMP JUMPDEST PUSH2 0x245 PUSH2 0x274 CALLDATASIZE PUSH1 0x4 PUSH2 0x133D JUMP JUMPDEST PUSH2 0x4ED JUMP JUMPDEST PUSH2 0x20A PUSH1 0xF SLOAD DUP2 JUMP JUMPDEST PUSH2 0x295 PUSH2 0x290 CALLDATASIZE PUSH1 0x4 PUSH2 0x1379 JUMP JUMPDEST PUSH2 0x652 JUMP JUMPDEST STOP JUMPDEST PUSH1 0x3 SLOAD PUSH1 0x40 MLOAD PUSH1 0xFF SWAP1 SWAP2 AND DUP2 MSTORE PUSH1 0x20 ADD PUSH2 0x214 JUMP JUMPDEST PUSH1 0x14 SLOAD PUSH2 0x2BF SWAP1 PUSH1 0x1 PUSH1 0x1 PUSH1 0xA0 SHL SUB AND DUP2 JUMP JUMPDEST PUSH1 0x40 MLOAD PUSH1 0x1 PUSH1 0x1 PUSH1 0xA0 SHL SUB SWAP1 SWAP2 AND DUP2 MSTORE PUSH1 0x20 ADD PUSH2 0x214 JUMP JUMPDEST PUSH2 0x245 PUSH2 0x2E5 CALLDATASIZE PUSH1 0x4 PUSH2 0x1313 JUMP JUMPDEST PUSH2 0x67F JUMP JUMPDEST PUSH1 0x12 SLOAD PUSH2 0x2BF SWAP1 PUSH1 0x1 PUSH1 0x1 PUSH1 0xA0 SHL SUB AND DUP2 JUMP JUMPDEST PUSH2 0x20A PUSH1 0x10 SLOAD DUP2 JUMP JUMPDEST PUSH2 0x20A PUSH1 0xD SLOAD DUP2 JUMP JUMPDEST PUSH2 0x295 PUSH2 0x31D CALLDATASIZE PUSH1 0x4 PUSH2 0x1379 JUMP JUMPDEST PUSH2 0x6B5 JUMP JUMPDEST PUSH2 0x20A PUSH2 0x330 CALLDATASIZE PUSH1 0x4 PUSH2 0x12AA JUMP JUMPDEST PUSH1 0x1 PUSH1 0x1 PUSH1 0xA0 SHL SUB AND PUSH1 0x0 SWAP1 DUP2 MSTORE PUSH1 0x4 PUSH1 0x20 MSTORE PUSH1 0x40 SWAP1 KECCAK256 SLOAD SWAP1 JUMP JUMPDEST PUSH2 0x295 PUSH2 0x6DF JUMP JUMPDEST PUSH2 0x295 PUSH2 0x361 CALLDATASIZE PUSH1 0x4 PUSH2 0x12AA JUMP JUMPDEST PUSH2 0x6F3 JUMP JUMPDEST PUSH2 0x20A PUSH1 0x9 SLOAD DUP2 JUMP JUMPDEST PUSH1 0x0 SLOAD PUSH1 0x1 PUSH1 0x1 PUSH1 0xA0 SHL SUB AND PUSH2 0x2BF JUMP JUMPDEST PUSH2 0x225 PUSH2 0x738 JUMP JUMPDEST PUSH1 0x13 SLOAD PUSH2 0x2BF SWAP1 PUSH1 0x1 PUSH1 0x1 PUSH1 0xA0 SHL SUB AND DUP2 JUMP JUMPDEST PUSH2 0x245 PUSH2 0x3A9 CALLDATASIZE PUSH1 0x4 PUSH2 0x1313 JUMP JUMPDEST PUSH2 0x747 JUMP JUMPDEST PUSH2 0x245 PUSH2 0x3BC CALLDATASIZE PUSH1 0x4 PUSH2 0x1313 JUMP JUMPDEST PUSH2 0x796 JUMP JUMPDEST PUSH2 0x20A PUSH1 0xA SLOAD DUP2 JUMP JUMPDEST PUSH1 0x11 SLOAD PUSH2 0x2BF SWAP1 PUSH1 0x1 PUSH1 0x1 PUSH1 0xA0 SHL SUB AND DUP2 JUMP JUMPDEST PUSH2 0x20A PUSH1 0x15 SLOAD DUP2 JUMP JUMPDEST PUSH2 0x20A PUSH1 0xC SLOAD DUP2 JUMP JUMPDEST PUSH2 0x20A PUSH1 0xE SLOAD DUP2 JUMP JUMPDEST PUSH2 0x20A PUSH2 0x406 CALLDATASIZE PUSH1 0x4 PUSH2 0x13B5 JUMP JUMPDEST PUSH1 0x1 PUSH1 0x1 PUSH1 0xA0 SHL SUB SWAP2 DUP3 AND PUSH1 0x0 SWAP1 DUP2 MSTORE PUSH1 0x5 PUSH1 0x20 SWAP1 DUP2 MSTORE PUSH1 0x40 DUP1 DUP4 KECCAK256 SWAP4 SWAP1 SWAP5 AND DUP3 MSTORE SWAP2 SWAP1 SWAP2 MSTORE KECCAK256 SLOAD SWAP1 JUMP JUMPDEST PUSH2 0x295 PUSH2 0x43F CALLDATASIZE PUSH1 0x4 PUSH2 0x12AA JUMP JUMPDEST PUSH2 0x8BF JUMP JUMPDEST PUSH1 0x60 PUSH1 0x1 DUP1 SLOAD PUSH2 0x453 SWAP1 PUSH2 0x13E8 JUMP JUMPDEST DUP1 PUSH1 0x1F ADD PUSH1 0x20 DUP1 SWAP2 DIV MUL PUSH1 0x20 ADD PUSH1 0x40 MLOAD SWAP1 DUP2 ADD PUSH1 0x40 MSTORE DUP1 SWAP3 SWAP2 SWAP1 DUP2 DUP2 MSTORE PUSH1 0x20 ADD DUP3 DUP1 SLOAD PUSH2 0x47F SWAP1 PUSH2 0x13E8 JUMP JUMPDEST DUP1 ISZERO PUSH2 0x4CC JUMPI DUP1 PUSH1 0x1F LT PUSH2 0x4A1 JUMPI PUSH2 0x100 DUP1 DUP4 SLOAD DIV MUL DUP4 MSTORE SWAP2 PUSH1 0x20 ADD SWAP2 PUSH2 0x4CC JUMP JUMPDEST DUP3 ADD SWAP2 SWAP1 PUSH1 0x0 MSTORE PUSH1 0x20 PUSH1 0x0 KECCAK256 SWAP1 JUMPDEST DUP2 SLOAD DUP2 MSTORE SWAP1 PUSH1 0x1 ADD SWAP1 PUSH1 0x20 ADD DUP1 DUP4 GT PUSH2 0x4AF JUMPI DUP3 SWAP1 SUB PUSH1 0x1F AND DUP3 ADD SWAP2 JUMPDEST POP POP POP POP POP SWAP1 POP SWAP1 JUMP JUMPDEST PUSH1 0x0 PUSH2 0x4E3 CALLER DUP5 DUP5 PUSH2 0x938 JUMP JUMPDEST POP PUSH1 0x1 JUMPDEST SWAP3 SWAP2 POP POP JUMP JUMPDEST CALLER PUSH1 0x0 DUP2 DUP2 MSTORE PUSH1 0x7 PUSH1 0x20 MSTORE PUSH1 0x40 DUP2 KECCAK256 SLOAD SWAP1 SWAP2 SWAP1 ISZERO DUP1 PUSH2 0x530 JUMPI POP PUSH1 0x1 PUSH1 0x1 PUSH1 0xA0 SHL SUB DUP2 AND PUSH1 0x0 SWAP1 DUP2 MSTORE PUSH1 0x7 PUSH1 0x20 MSTORE PUSH1 0x40 SWAP1 KECCAK256 SLOAD TIMESTAMP SWAP1 PUSH2 0x52D SWAP1 PUSH1 0xA PUSH2 0x1438 JUMP JUMPDEST GT ISZERO JUMPDEST PUSH2 0x575 JUMPI PUSH1 0x40 MLOAD PUSH3 0x461BCD PUSH1 0xE5 SHL DUP2 MSTORE PUSH1 0x20 PUSH1 0x4 DUP3 ADD MSTORE PUSH1 0x11 PUSH1 0x24 DUP3 ADD MSTORE PUSH17 0x1058D8DBDD5B9D081A5CC81B1BD8DAD959 PUSH1 0x7A SHL PUSH1 0x44 DUP3 ADD MSTORE PUSH1 0x64 ADD JUMPDEST PUSH1 0x40 MLOAD DUP1 SWAP2 SUB SWAP1 REVERT JUMPDEST PUSH1 0x15 SLOAD PUSH1 0x1 PUSH1 0x1 PUSH1 0xA0 SHL SUB DUP6 AND PUSH1 0x0 SWAP1 DUP2 MSTORE PUSH1 0x4 PUSH1 0x20 MSTORE PUSH1 0x40 SWAP1 KECCAK256 SLOAD PUSH2 0x59C SWAP1 DUP6 SWAP1 PUSH2 0x1438 JUMP JUMPDEST GT ISZERO PUSH2 0x5EA JUMPI PUSH1 0x40 MLOAD PUSH3 0x461BCD PUSH1 0xE5 SHL DUP2 MSTORE PUSH1 0x20 PUSH1 0x4 DUP3 ADD MSTORE PUSH1 0x1F PUSH1 0x24 DUP3 ADD MSTORE PUSH32 0x4D6178696D756D2077616C6C65742062616C616E636520657863656564656400 PUSH1 0x44 DUP3 ADD MSTORE PUSH1 0x64 ADD PUSH2 0x56C JUMP JUMPDEST PUSH2 0x5F5 DUP6 DUP6 DUP6 PUSH2 0xA5C JUMP JUMPDEST PUSH2 0x647 DUP6 CALLER PUSH2 0x642 DUP7 PUSH1 0x40 MLOAD DUP1 PUSH1 0x60 ADD PUSH1 0x40 MSTORE DUP1 PUSH1 0x28 DUP2 MSTORE PUSH1 0x20 ADD PUSH2 0x1498 PUSH1 0x28 SWAP2 CODECOPY PUSH1 0x1 PUSH1 0x1 PUSH1 0xA0 SHL SUB DUP12 AND PUSH1 0x0 SWAP1 DUP2 MSTORE PUSH1 0x5 PUSH1 0x20 SWAP1 DUP2 MSTORE PUSH1 0x40 DUP1 DUP4 KECCAK256 CALLER DUP5 MSTORE SWAP1 SWAP2 MSTORE SWAP1 KECCAK256 SLOAD SWAP2 SWAP1 PUSH2 0xD08 JUMP JUMPDEST PUSH2 0x938 JUMP JUMPDEST POP PUSH1 0x1 SWAP5 SWAP4 POP POP POP POP JUMP JUMPDEST PUSH2 0x65A PUSH2 0xD34 JUMP JUMPDEST POP PUSH1 0x1 PUSH1 0x1 PUSH1 0xA0 SHL SUB AND PUSH1 0x0 SWAP1 DUP2 MSTORE PUSH1 0x6 PUSH1 0x20 MSTORE PUSH1 0x40 SWAP1 KECCAK256 DUP1 SLOAD PUSH1 0xFF NOT AND PUSH1 0x1 OR SWAP1 SSTORE JUMP JUMPDEST CALLER PUSH1 0x0 DUP2 DUP2 MSTORE PUSH1 0x5 PUSH1 0x20 SWAP1 DUP2 MSTORE PUSH1 0x40 DUP1 DUP4 KECCAK256 PUSH1 0x1 PUSH1 0x1 PUSH1 0xA0 SHL SUB DUP8 AND DUP5 MSTORE SWAP1 SWAP2 MSTORE DUP2 KECCAK256 SLOAD SWAP1 SWAP2 PUSH2 0x4E3 SWAP2 DUP6 SWAP1 PUSH2 0x642 SWAP1 DUP7 PUSH2 0xD8E JUMP JUMPDEST PUSH2 0x6BD PUSH2 0xD34 JUMP JUMPDEST POP PUSH1 0x1 PUSH1 0x1 PUSH1 0xA0 SHL SUB AND PUSH1 0x0 SWAP1 DUP2 MSTORE PUSH1 0x6 PUSH1 0x20 MSTORE PUSH1 0x40 SWAP1 KECCAK256 DUP1 SLOAD PUSH1 0xFF NOT AND SWAP1 SSTORE JUMP JUMPDEST PUSH2 0x6E7 PUSH2 0xD34 JUMP JUMPDEST PUSH2 0x6F1 PUSH1 0x0 PUSH2 0xDA1 JUMP JUMPDEST JUMP JUMPDEST PUSH2 0x6FB PUSH2 0xD34 JUMP JUMPDEST PUSH1 0x13 SLOAD PUSH1 0x1 PUSH1 0x1 PUSH1 0xA0 SHL SUB SWAP1 DUP2 AND SWAP1 DUP3 AND SUB PUSH2 0x716 JUMPI PUSH1 0x0 DUP1 REVERT JUMPDEST PUSH1 0x13 DUP1 SLOAD PUSH1 0x1 PUSH1 0x1 PUSH1 0xA0 SHL SUB NOT AND PUSH1 0x1 PUSH1 0x1 PUSH1 0xA0 SHL SUB SWAP3 SWAP1 SWAP3 AND SWAP2 SWAP1 SWAP2 OR SWAP1 SSTORE JUMP JUMPDEST PUSH1 0x60 PUSH1 0x2 DUP1 SLOAD PUSH2 0x453 SWAP1 PUSH2 0x13E8 JUMP JUMPDEST PUSH1 0x0 PUSH2 0x4E3 CALLER DUP5 PUSH2 0x642 DUP6 PUSH1 0x40 MLOAD DUP1 PUSH1 0x60 ADD PUSH1 0x40 MSTORE DUP1 PUSH1 0x25 DUP2 MSTORE PUSH1 0x20 ADD PUSH2 0x14E0 PUSH1 0x25 SWAP2 CODECOPY CALLER PUSH1 0x0 SWAP1 DUP2 MSTORE PUSH1 0x5 PUSH1 0x20 SWAP1 DUP2 MSTORE PUSH1 0x40 DUP1 DUP4 KECCAK256 PUSH1 0x1 PUSH1 0x1 PUSH1 0xA0 SHL SUB DUP14 AND DUP5 MSTORE SWAP1 SWAP2 MSTORE SWAP1 KECCAK256 SLOAD SWAP2 SWAP1 PUSH2 0xD08 JUMP JUMPDEST CALLER PUSH1 0x0 DUP2 DUP2 MSTORE PUSH1 0x7 PUSH1 0x20 MSTORE PUSH1 0x40 DUP2 KECCAK256 SLOAD SWAP1 SWAP2 SWAP1 ISZERO DUP1 PUSH2 0x7D9 JUMPI POP PUSH1 0x1 PUSH1 0x1 PUSH1 0xA0 SHL SUB DUP2 AND PUSH1 0x0 SWAP1 DUP2 MSTORE PUSH1 0x7 PUSH1 0x20 MSTORE PUSH1 0x40 SWAP1 KECCAK256 SLOAD TIMESTAMP SWAP1 PUSH2 0x7D6 SWAP1 PUSH1 0xA PUSH2 0x1438 JUMP JUMPDEST GT ISZERO JUMPDEST PUSH2 0x819 JUMPI PUSH1 0x40 MLOAD PUSH3 0x461BCD PUSH1 0xE5 SHL DUP2 MSTORE PUSH1 0x20 PUSH1 0x4 DUP3 ADD MSTORE PUSH1 0x11 PUSH1 0x24 DUP3 ADD MSTORE PUSH17 0x1058D8DBDD5B9D081A5CC81B1BD8DAD959 PUSH1 0x7A SHL PUSH1 0x44 DUP3 ADD MSTORE PUSH1 0x64 ADD PUSH2 0x56C JUMP JUMPDEST DUP4 DUP4 PUSH1 0x15 SLOAD DUP2 PUSH2 0x83E DUP5 PUSH1 0x1 PUSH1 0x1 PUSH1 0xA0 SHL SUB AND PUSH1 0x0 SWAP1 DUP2 MSTORE PUSH1 0x4 PUSH1 0x20 MSTORE PUSH1 0x40 SWAP1 KECCAK256 SLOAD SWAP1 JUMP JUMPDEST PUSH2 0x848 SWAP2 SWAP1 PUSH2 0x1438 JUMP JUMPDEST GT ISZERO PUSH2 0x896 JUMPI PUSH1 0x40 MLOAD PUSH3 0x461BCD PUSH1 0xE5 SHL DUP2 MSTORE PUSH1 0x20 PUSH1 0x4 DUP3 ADD MSTORE PUSH1 0x1F PUSH1 0x24 DUP3 ADD MSTORE PUSH32 0x4D6178696D756D2077616C6C65742062616C616E636520657863656564656400 PUSH1 0x44 DUP3 ADD MSTORE PUSH1 0x64 ADD PUSH2 0x56C JUMP JUMPDEST PUSH2 0x8A1 CALLER DUP8 DUP8 PUSH2 0xA5C JUMP JUMPDEST POP POP CALLER PUSH1 0x0 SWAP1 DUP2 MSTORE PUSH1 0x7 PUSH1 0x20 MSTORE PUSH1 0x40 SWAP1 KECCAK256 TIMESTAMP SWAP1 SSTORE POP PUSH1 0x1 SWAP4 SWAP3 POP POP POP JUMP JUMPDEST PUSH2 0x8C7 PUSH2 0xD34 JUMP JUMPDEST PUSH1 0x1 PUSH1 0x1 PUSH1 0xA0 SHL SUB DUP2 AND PUSH2 0x92C JUMPI PUSH1 0x40 MLOAD PUSH3 0x461BCD PUSH1 0xE5 SHL DUP2 MSTORE PUSH1 0x20 PUSH1 0x4 DUP3 ADD MSTORE PUSH1 0x26 PUSH1 0x24 DUP3 ADD MSTORE PUSH32 0x4F776E61626C653A206E6577206F776E657220697320746865207A65726F2061 PUSH1 0x44 DUP3 ADD MSTORE PUSH6 0x646472657373 PUSH1 0xD0 SHL PUSH1 0x64 DUP3 ADD MSTORE PUSH1 0x84 ADD PUSH2 0x56C JUMP JUMPDEST PUSH2 0x935 DUP2 PUSH2 0xDA1 JUMP JUMPDEST POP JUMP JUMPDEST PUSH1 0x1 PUSH1 0x1 PUSH1 0xA0 SHL SUB DUP4 AND PUSH2 0x99A JUMPI PUSH1 0x40 MLOAD PUSH3 0x461BCD PUSH1 0xE5 SHL DUP2 MSTORE PUSH1 0x20 PUSH1 0x4 DUP3 ADD MSTORE PUSH1 0x24 DUP1 DUP3 ADD MSTORE PUSH32 0x45524332303A20617070726F76652066726F6D20746865207A65726F20616464 PUSH1 0x44 DUP3 ADD MSTORE PUSH4 0x72657373 PUSH1 0xE0 SHL PUSH1 0x64 DUP3 ADD MSTORE PUSH1 0x84 ADD PUSH2 0x56C JUMP JUMPDEST PUSH1 0x1 PUSH1 0x1 PUSH1 0xA0 SHL SUB DUP3 AND PUSH2 0x9FB JUMPI PUSH1 0x40 MLOAD PUSH3 0x461BCD PUSH1 0xE5 SHL DUP2 MSTORE PUSH1 0x20 PUSH1 0x4 DUP3 ADD MSTORE PUSH1 0x22 PUSH1 0x24 DUP3 ADD MSTORE PUSH32 0x45524332303A20617070726F766520746F20746865207A65726F206164647265 PUSH1 0x44 DUP3 ADD MSTORE PUSH2 0x7373 PUSH1 0xF0 SHL PUSH1 0x64 DUP3 ADD MSTORE PUSH1 0x84 ADD PUSH2 0x56C JUMP JUMPDEST PUSH1 0x1 PUSH1 0x1 PUSH1 0xA0 SHL SUB DUP4 DUP2 AND PUSH1 0x0 DUP2 DUP2 MSTORE PUSH1 0x5 PUSH1 0x20 SWAP1 DUP2 MSTORE PUSH1 0x40 DUP1 DUP4 KECCAK256 SWAP5 DUP8 AND DUP1 DUP5 MSTORE SWAP5 DUP3 MSTORE SWAP2 DUP3 SWAP1 KECCAK256 DUP6 SWAP1 SSTORE SWAP1 MLOAD DUP5 DUP2 MSTORE PUSH32 0x8C5BE1E5EBEC7D5BD14F71427D1E84F3DD0314C0F7B2291E5B200AC8C7C3B925 SWAP2 ADD PUSH1 0x40 MLOAD DUP1 SWAP2 SUB SWAP1 LOG3 POP POP POP JUMP JUMPDEST PUSH1 0x1 PUSH1 0x1 PUSH1 0xA0 SHL SUB DUP4 AND PUSH2 0xAC0 JUMPI PUSH1 0x40 MLOAD PUSH3 0x461BCD PUSH1 0xE5 SHL DUP2 MSTORE PUSH1 0x20 PUSH1 0x4 DUP3 ADD MSTORE PUSH1 0x25 PUSH1 0x24 DUP3 ADD MSTORE PUSH32 0x45524332303A207472616E736665722066726F6D20746865207A65726F206164 PUSH1 0x44 DUP3 ADD MSTORE PUSH5 0x6472657373 PUSH1 0xD8 SHL PUSH1 0x64 DUP3 ADD MSTORE PUSH1 0x84 ADD PUSH2 0x56C JUMP JUMPDEST PUSH1 0x1 PUSH1 0x1 PUSH1 0xA0 SHL SUB DUP3 AND PUSH2 0xB22 JUMPI PUSH1 0x40 MLOAD PUSH3 0x461BCD PUSH1 0xE5 SHL DUP2 MSTORE PUSH1 0x20 PUSH1 0x4 DUP3 ADD MSTORE PUSH1 0x23 PUSH1 0x24 DUP3 ADD MSTORE PUSH32 0x45524332303A207472616E7366657220746F20746865207A65726F2061646472 PUSH1 0x44 DUP3 ADD MSTORE PUSH3 0x657373 PUSH1 0xE8 SHL PUSH1 0x64 DUP3 ADD MSTORE PUSH1 0x84 ADD PUSH2 0x56C JUMP JUMPDEST PUSH1 0x1 PUSH1 0x1 PUSH1 0xA0 SHL SUB DUP4 AND PUSH1 0x0 SWAP1 DUP2 MSTORE PUSH1 0x6 PUSH1 0x20 MSTORE PUSH1 0x40 SWAP1 KECCAK256 SLOAD DUP2 SWAP1 PUSH1 0xFF AND DUP1 ISZERO PUSH2 0xB64 JUMPI POP PUSH1 0x1 PUSH1 0x1 PUSH1 0xA0 SHL SUB DUP4 AND PUSH1 0x0 SWAP1 DUP2 MSTORE PUSH1 0x6 PUSH1 0x20 MSTORE PUSH1 0x40 SWAP1 KECCAK256 SLOAD PUSH1 0xFF AND JUMPDEST ISZERO PUSH2 0xB6C JUMPI POP DUP1 JUMPDEST PUSH1 0x1 PUSH1 0x1 PUSH1 0xA0 SHL SUB DUP5 AND PUSH1 0x0 SWAP1 DUP2 MSTORE PUSH1 0x6 PUSH1 0x20 MSTORE PUSH1 0x40 SWAP1 KECCAK256 SLOAD PUSH1 0xFF AND ISZERO DUP1 ISZERO PUSH2 0xBAE JUMPI POP PUSH1 0x1 PUSH1 0x1 PUSH1 0xA0 SHL SUB DUP4 AND PUSH1 0x0 SWAP1 DUP2 MSTORE PUSH1 0x6 PUSH1 0x20 MSTORE PUSH1 0x40 SWAP1 KECCAK256 SLOAD PUSH1 0xFF AND ISZERO JUMPDEST ISZERO PUSH2 0xBC0 JUMPI PUSH2 0xBBD DUP5 DUP4 PUSH2 0xDF1 JUMP JUMPDEST SWAP1 POP JUMPDEST PUSH1 0x1 PUSH1 0x1 PUSH1 0xA0 SHL SUB DUP5 AND PUSH1 0x0 SWAP1 DUP2 MSTORE PUSH1 0x6 PUSH1 0x20 MSTORE PUSH1 0x40 SWAP1 KECCAK256 SLOAD PUSH1 0xFF AND DUP1 ISZERO PUSH2 0xC01 JUMPI POP PUSH1 0x1 PUSH1 0x1 PUSH1 0xA0 SHL SUB DUP4 AND PUSH1 0x0 SWAP1 DUP2 MSTORE PUSH1 0x6 PUSH1 0x20 MSTORE PUSH1 0x40 SWAP1 KECCAK256 SLOAD PUSH1 0xFF AND ISZERO JUMPDEST ISZERO PUSH2 0xC13 JUMPI PUSH2 0xC10 DUP5 DUP4 PUSH2 0xEBB JUMP JUMPDEST SWAP1 POP JUMPDEST PUSH1 0x1 PUSH1 0x1 PUSH1 0xA0 SHL SUB DUP5 AND PUSH1 0x0 SWAP1 DUP2 MSTORE PUSH1 0x6 PUSH1 0x20 MSTORE PUSH1 0x40 SWAP1 KECCAK256 SLOAD PUSH1 0xFF AND ISZERO DUP1 ISZERO PUSH2 0xC54 JUMPI POP PUSH1 0x1 PUSH1 0x1 PUSH1 0xA0 SHL SUB DUP4 AND PUSH1 0x0 SWAP1 DUP2 MSTORE PUSH1 0x6 PUSH1 0x20 MSTORE PUSH1 0x40 SWAP1 KECCAK256 SLOAD PUSH1 0xFF AND JUMPDEST ISZERO PUSH2 0xC66 JUMPI PUSH2 0xC63 DUP5 DUP4 PUSH2 0x1037 JUMP JUMPDEST SWAP1 POP JUMPDEST PUSH1 0x1 PUSH1 0x1 PUSH1 0xA0 SHL SUB DUP5 AND PUSH1 0x0 SWAP1 DUP2 MSTORE PUSH1 0x4 PUSH1 0x20 MSTORE PUSH1 0x40 SWAP1 KECCAK256 SLOAD PUSH2 0xC89 SWAP1 DUP4 PUSH2 0x126A JUMP JUMPDEST PUSH1 0x1 PUSH1 0x1 PUSH1 0xA0 SHL SUB DUP1 DUP7 AND PUSH1 0x0 SWAP1 DUP2 MSTORE PUSH1 0x4 PUSH1 0x20 MSTORE PUSH1 0x40 DUP1 DUP3 KECCAK256 SWAP4 SWAP1 SWAP4 SSTORE SWAP1 DUP6 AND DUP2 MSTORE KECCAK256 SLOAD PUSH2 0xCB8 SWAP1 DUP3 PUSH2 0xD8E JUMP JUMPDEST PUSH1 0x1 PUSH1 0x1 PUSH1 0xA0 SHL SUB DUP1 DUP6 AND PUSH1 0x0 DUP2 DUP2 MSTORE PUSH1 0x4 PUSH1 0x20 MSTORE PUSH1 0x40 SWAP1 DUP2 SWAP1 KECCAK256 SWAP4 SWAP1 SWAP4 SSTORE SWAP2 MLOAD SWAP1 DUP7 AND SWAP1 PUSH1 0x0 DUP1 MLOAD PUSH1 0x20 PUSH2 0x14C0 DUP4 CODECOPY DUP2 MLOAD SWAP2 MSTORE SWAP1 PUSH2 0xCFA SWAP1 DUP6 DUP2 MSTORE PUSH1 0x20 ADD SWAP1 JUMP JUMPDEST PUSH1 0x40 MLOAD DUP1 SWAP2 SUB SWAP1 LOG3 POP POP POP POP JUMP JUMPDEST PUSH1 0x0 DUP2 DUP5 DUP5 GT ISZERO PUSH2 0xD2C JUMPI PUSH1 0x40 MLOAD PUSH3 0x461BCD PUSH1 0xE5 SHL DUP2 MSTORE PUSH1 0x4 ADD PUSH2 0x56C SWAP2 SWAP1 PUSH2 0x12C5 JUMP JUMPDEST POP POP POP SWAP1 SUB SWAP1 JUMP JUMPDEST PUSH1 0x0 SLOAD PUSH1 0x1 PUSH1 0x1 PUSH1 0xA0 SHL SUB AND CALLER EQ PUSH2 0x6F1 JUMPI PUSH1 0x40 MLOAD PUSH3 0x461BCD PUSH1 0xE5 SHL DUP2 MSTORE PUSH1 0x20 PUSH1 0x4 DUP3 ADD DUP2 SWAP1 MSTORE PUSH1 0x24 DUP3 ADD MSTORE PUSH32 0x4F776E61626C653A2063616C6C6572206973206E6F7420746865206F776E6572 PUSH1 0x44 DUP3 ADD MSTORE PUSH1 0x64 ADD PUSH2 0x56C JUMP JUMPDEST PUSH1 0x0 PUSH2 0xD9A DUP3 DUP5 PUSH2 0x1438 JUMP JUMPDEST SWAP4 SWAP3 POP POP POP JUMP JUMPDEST PUSH1 0x0 DUP1 SLOAD PUSH1 0x1 PUSH1 0x1 PUSH1 0xA0 SHL SUB DUP4 DUP2 AND PUSH1 0x1 PUSH1 0x1 PUSH1 0xA0 SHL SUB NOT DUP4 AND DUP2 OR DUP5 SSTORE PUSH1 0x40 MLOAD SWAP2 SWAP1 SWAP3 AND SWAP3 DUP4 SWAP2 PUSH32 0x8BE0079C531659141344CD1FD0A4F28419497F9722A3DAAFE3B4186F6B6457E0 SWAP2 SWAP1 LOG3 POP POP JUMP JUMPDEST PUSH1 0x0 DUP1 DUP3 SWAP1 POP PUSH1 0x0 PUSH2 0xE1A PUSH2 0x2710 PUSH2 0xE14 PUSH1 0xC SLOAD DUP8 PUSH2 0x1276 SWAP1 SWAP2 SWAP1 PUSH4 0xFFFFFFFF AND JUMP JUMPDEST SWAP1 PUSH2 0x1282 JUMP JUMPDEST SWAP1 POP DUP1 ISZERO PUSH2 0xEB3 JUMPI PUSH2 0xE2C DUP3 DUP3 PUSH2 0x126A JUMP JUMPDEST PUSH1 0x14 SLOAD PUSH1 0x1 PUSH1 0x1 PUSH1 0xA0 SHL SUB AND PUSH1 0x0 SWAP1 DUP2 MSTORE PUSH1 0x4 PUSH1 0x20 MSTORE PUSH1 0x40 SWAP1 KECCAK256 SLOAD SWAP1 SWAP3 POP PUSH2 0xE54 SWAP1 DUP3 PUSH2 0xD8E JUMP JUMPDEST PUSH1 0x14 SLOAD PUSH1 0x1 PUSH1 0x1 PUSH1 0xA0 SHL SUB AND PUSH1 0x0 SWAP1 DUP2 MSTORE PUSH1 0x4 PUSH1 0x20 MSTORE PUSH1 0x40 SWAP1 KECCAK256 SSTORE PUSH1 0x10 SLOAD PUSH2 0xE7C SWAP1 DUP3 PUSH2 0xD8E JUMP JUMPDEST PUSH1 0x10 SSTORE PUSH1 0x14 SLOAD PUSH1 0x40 MLOAD DUP3 DUP2 MSTORE PUSH1 0x1 PUSH1 0x1 PUSH1 0xA0 SHL SUB SWAP2 DUP3 AND SWAP2 DUP8 AND SWAP1 PUSH1 0x0 DUP1 MLOAD PUSH1 0x20 PUSH2 0x14C0 DUP4 CODECOPY DUP2 MLOAD SWAP2 MSTORE SWAP1 PUSH1 0x20 ADD PUSH1 0x40 MLOAD DUP1 SWAP2 SUB SWAP1 LOG3 JUMPDEST POP SWAP4 SWAP3 POP POP POP JUMP JUMPDEST PUSH1 0x0 DUP1 DUP3 SWAP1 POP PUSH1 0x0 PUSH2 0xEDE PUSH2 0x2710 PUSH2 0xE14 PUSH1 0x9 SLOAD DUP8 PUSH2 0x1276 SWAP1 SWAP2 SWAP1 PUSH4 0xFFFFFFFF AND JUMP JUMPDEST SWAP1 POP PUSH1 0x0 PUSH2 0xEFD PUSH2 0x2710 PUSH2 0xE14 PUSH1 0xB SLOAD DUP9 PUSH2 0x1276 SWAP1 SWAP2 SWAP1 PUSH4 0xFFFFFFFF AND JUMP JUMPDEST SWAP1 POP DUP1 ISZERO PUSH2 0xF96 JUMPI PUSH2 0xF0F DUP4 DUP3 PUSH2 0x126A JUMP JUMPDEST PUSH1 0x13 SLOAD PUSH1 0x1 PUSH1 0x1 PUSH1 0xA0 SHL SUB AND PUSH1 0x0 SWAP1 DUP2 MSTORE PUSH1 0x4 PUSH1 0x20 MSTORE PUSH1 0x40 SWAP1 KECCAK256 SLOAD SWAP1 SWAP4 POP PUSH2 0xF37 SWAP1 DUP3 PUSH2 0xD8E JUMP JUMPDEST PUSH1 0x13 SLOAD PUSH1 0x1 PUSH1 0x1 PUSH1 0xA0 SHL SUB AND PUSH1 0x0 SWAP1 DUP2 MSTORE PUSH1 0x4 PUSH1 0x20 MSTORE PUSH1 0x40 SWAP1 KECCAK256 SSTORE PUSH1 0xF SLOAD PUSH2 0xF5F SWAP1 DUP3 PUSH2 0xD8E JUMP JUMPDEST PUSH1 0xF SSTORE PUSH1 0x13 SLOAD PUSH1 0x40 MLOAD DUP3 DUP2 MSTORE PUSH1 0x1 PUSH1 0x1 PUSH1 0xA0 SHL SUB SWAP2 DUP3 AND SWAP2 DUP9 AND SWAP1 PUSH1 0x0 DUP1 MLOAD PUSH1 0x20 PUSH2 0x14C0 DUP4 CODECOPY DUP2 MLOAD SWAP2 MSTORE SWAP1 PUSH1 0x20 ADD PUSH1 0x40 MLOAD DUP1 SWAP2 SUB SWAP1 LOG3 JUMPDEST DUP2 ISZERO PUSH2 0x102D JUMPI PUSH2 0xFA6 DUP4 DUP4 PUSH2 0x126A JUMP JUMPDEST PUSH1 0x11 SLOAD PUSH1 0x1 PUSH1 0x1 PUSH1 0xA0 SHL SUB AND PUSH1 0x0 SWAP1 DUP2 MSTORE PUSH1 0x4 PUSH1 0x20 MSTORE PUSH1 0x40 SWAP1 KECCAK256 SLOAD SWAP1 SWAP4 POP PUSH2 0xFCE SWAP1 DUP4 PUSH2 0xD8E JUMP JUMPDEST PUSH1 0x11 SLOAD PUSH1 0x1 PUSH1 0x1 PUSH1 0xA0 SHL SUB AND PUSH1 0x0 SWAP1 DUP2 MSTORE PUSH1 0x4 PUSH1 0x20 MSTORE PUSH1 0x40 SWAP1 KECCAK256 SSTORE PUSH1 0xD SLOAD PUSH2 0xFF6 SWAP1 DUP4 PUSH2 0xD8E JUMP JUMPDEST PUSH1 0xD SSTORE PUSH1 0x11 SLOAD PUSH1 0x40 MLOAD DUP4 DUP2 MSTORE PUSH1 0x1 PUSH1 0x1 PUSH1 0xA0 SHL SUB SWAP2 DUP3 AND SWAP2 DUP9 AND SWAP1 PUSH1 0x0 DUP1 MLOAD PUSH1 0x20 PUSH2 0x14C0 DUP4 CODECOPY DUP2 MLOAD SWAP2 MSTORE SWAP1 PUSH1 0x20 ADD PUSH1 0x40 MLOAD DUP1 SWAP2 SUB SWAP1 LOG3 JUMPDEST POP SWAP1 SWAP5 SWAP4 POP POP POP POP JUMP JUMPDEST PUSH1 0x0 DUP1 DUP3 SWAP1 POP PUSH1 0x0 PUSH2 0x105A PUSH2 0x2710 PUSH2 0xE14 PUSH1 0x9 SLOAD DUP8 PUSH2 0x1276 SWAP1 SWAP2 SWAP1 PUSH4 0xFFFFFFFF AND JUMP JUMPDEST SWAP1 POP PUSH1 0x0 PUSH2 0x1079 PUSH2 0x2710 PUSH2 0xE14 PUSH1 0xA SLOAD DUP9 PUSH2 0x1276 SWAP1 SWAP2 SWAP1 PUSH4 0xFFFFFFFF AND JUMP JUMPDEST SWAP1 POP PUSH1 0x0 PUSH2 0x1098 PUSH2 0x2710 PUSH2 0xE14 PUSH1 0xB SLOAD DUP10 PUSH2 0x1276 SWAP1 SWAP2 SWAP1 PUSH4 0xFFFFFFFF AND JUMP JUMPDEST SWAP1 POP DUP2 ISZERO PUSH2 0x1131 JUMPI PUSH2 0x10AA DUP5 DUP4 PUSH2 0x126A JUMP JUMPDEST PUSH1 0x12 SLOAD PUSH1 0x1 PUSH1 0x1 PUSH1 0xA0 SHL SUB AND PUSH1 0x0 SWAP1 DUP2 MSTORE PUSH1 0x4 PUSH1 0x20 MSTORE PUSH1 0x40 SWAP1 KECCAK256 SLOAD SWAP1 SWAP5 POP PUSH2 0x10D2 SWAP1 DUP4 PUSH2 0xD8E JUMP JUMPDEST PUSH1 0x12 SLOAD PUSH1 0x1 PUSH1 0x1 PUSH1 0xA0 SHL SUB AND PUSH1 0x0 SWAP1 DUP2 MSTORE PUSH1 0x4 PUSH1 0x20 MSTORE PUSH1 0x40 SWAP1 KECCAK256 SSTORE PUSH1 0xE SLOAD PUSH2 0x10FA SWAP1 DUP4 PUSH2 0xD8E JUMP JUMPDEST PUSH1 0xE SSTORE PUSH1 0x12 SLOAD PUSH1 0x40 MLOAD DUP4 DUP2 MSTORE PUSH1 0x1 PUSH1 0x1 PUSH1 0xA0 SHL SUB SWAP2 DUP3 AND SWAP2 DUP10 AND SWAP1 PUSH1 0x0 DUP1 MLOAD PUSH1 0x20 PUSH2 0x14C0 DUP4 CODECOPY DUP2 MLOAD SWAP2 MSTORE SWAP1 PUSH1 0x20 ADD PUSH1 0x40 MLOAD DUP1 SWAP2 SUB SWAP1 LOG3 JUMPDEST DUP1 ISZERO PUSH2 0x11C8 JUMPI PUSH2 0x1141 DUP5 DUP3 PUSH2 0x126A JUMP JUMPDEST PUSH1 0x13 SLOAD PUSH1 0x1 PUSH1 0x1 PUSH1 0xA0 SHL SUB AND PUSH1 0x0 SWAP1 DUP2 MSTORE PUSH1 0x4 PUSH1 0x20 MSTORE PUSH1 0x40 SWAP1 KECCAK256 SLOAD SWAP1 SWAP5 POP PUSH2 0x1169 SWAP1 DUP3 PUSH2 0xD8E JUMP JUMPDEST PUSH1 0x13 SLOAD PUSH1 0x1 PUSH1 0x1 PUSH1 0xA0 SHL SUB AND PUSH1 0x0 SWAP1 DUP2 MSTORE PUSH1 0x4 PUSH1 0x20 MSTORE PUSH1 0x40 SWAP1 KECCAK256 SSTORE PUSH1 0xF SLOAD PUSH2 0x1191 SWAP1 DUP3 PUSH2 0xD8E JUMP JUMPDEST PUSH1 0xF SSTORE PUSH1 0x13 SLOAD PUSH1 0x40 MLOAD DUP3 DUP2 MSTORE PUSH1 0x1 PUSH1 0x1 PUSH1 0xA0 SHL SUB SWAP2 DUP3 AND SWAP2 DUP10 AND SWAP1 PUSH1 0x0 DUP1 MLOAD PUSH1 0x20 PUSH2 0x14C0 DUP4 CODECOPY DUP2 MLOAD SWAP2 MSTORE SWAP1 PUSH1 0x20 ADD PUSH1 0x40 MLOAD DUP1 SWAP2 SUB SWAP1 LOG3 JUMPDEST DUP3 ISZERO PUSH2 0x125F JUMPI PUSH2 0x11D8 DUP5 DUP5 PUSH2 0x126A JUMP JUMPDEST PUSH1 0x11 SLOAD PUSH1 0x1 PUSH1 0x1 PUSH1 0xA0 SHL SUB AND PUSH1 0x0 SWAP1 DUP2 MSTORE PUSH1 0x4 PUSH1 0x20 MSTORE PUSH1 0x40 SWAP1 KECCAK256 SLOAD SWAP1 SWAP5 POP PUSH2 0x1200 SWAP1 DUP5 PUSH2 0xD8E JUMP JUMPDEST PUSH1 0x11 SLOAD PUSH1 0x1 PUSH1 0x1 PUSH1 0xA0 SHL SUB AND PUSH1 0x0 SWAP1 DUP2 MSTORE PUSH1 0x4 PUSH1 0x20 MSTORE PUSH1 0x40 SWAP1 KECCAK256 SSTORE PUSH1 0xD SLOAD PUSH2 0x1228 SWAP1 DUP5 PUSH2 0xD8E JUMP JUMPDEST PUSH1 0xD SSTORE PUSH1 0x11 SLOAD PUSH1 0x40 MLOAD DUP5 DUP2 MSTORE PUSH1 0x1 PUSH1 0x1 PUSH1 0xA0 SHL SUB SWAP2 DUP3 AND SWAP2 DUP10 AND SWAP1 PUSH1 0x0 DUP1 MLOAD PUSH1 0x20 PUSH2 0x14C0 DUP4 CODECOPY DUP2 MLOAD SWAP2 MSTORE SWAP1 PUSH1 0x20 ADD PUSH1 0x40 MLOAD DUP1 SWAP2 SUB SWAP1 LOG3 JUMPDEST POP SWAP2 SWAP6 SWAP5 POP POP POP POP POP JUMP JUMPDEST PUSH1 0x0 PUSH2 0xD9A DUP3 DUP5 PUSH2 0x144B JUMP JUMPDEST PUSH1 0x0 PUSH2 0xD9A DUP3 DUP5 PUSH2 0x145E JUMP JUMPDEST PUSH1 0x0 PUSH2 0xD9A DUP3 DUP5 PUSH2 0x1475 JUMP JUMPDEST DUP1 CALLDATALOAD PUSH1 0x1 PUSH1 0x1 PUSH1 0xA0 SHL SUB DUP2 AND DUP2 EQ PUSH2 0x12A5 JUMPI PUSH1 0x0 DUP1 REVERT JUMPDEST SWAP2 SWAP1 POP JUMP JUMPDEST PUSH1 0x0 PUSH1 0x20 DUP3 DUP5 SUB SLT ISZERO PUSH2 0x12BC JUMPI PUSH1 0x0 DUP1 REVERT JUMPDEST PUSH2 0xD9A DUP3 PUSH2 0x128E JUMP JUMPDEST PUSH1 0x0 PUSH1 0x20 DUP1 DUP4 MSTORE DUP4 MLOAD DUP1 DUP3 DUP6 ADD MSTORE PUSH1 0x0 JUMPDEST DUP2 DUP2 LT ISZERO PUSH2 0x12F2 JUMPI DUP6 DUP2 ADD DUP4 ADD MLOAD DUP6 DUP3 ADD PUSH1 0x40 ADD MSTORE DUP3 ADD PUSH2 0x12D6 JUMP JUMPDEST POP PUSH1 0x0 PUSH1 0x40 DUP3 DUP7 ADD ADD MSTORE PUSH1 0x40 PUSH1 0x1F NOT PUSH1 0x1F DUP4 ADD AND DUP6 ADD ADD SWAP3 POP POP POP SWAP3 SWAP2 POP POP JUMP JUMPDEST PUSH1 0x0 DUP1 PUSH1 0x40 DUP4 DUP6 SUB SLT ISZERO PUSH2 0x1326 JUMPI PUSH1 0x0 DUP1 REVERT JUMPDEST PUSH2 0x132F DUP4 PUSH2 0x128E JUMP JUMPDEST SWAP5 PUSH1 0x20 SWAP4 SWAP1 SWAP4 ADD CALLDATALOAD SWAP4 POP POP POP JUMP JUMPDEST PUSH1 0x0 DUP1 PUSH1 0x0 PUSH1 0x60 DUP5 DUP7 SUB SLT ISZERO PUSH2 0x1352 JUMPI PUSH1 0x0 DUP1 REVERT JUMPDEST PUSH2 0x135B DUP5 PUSH2 0x128E JUMP JUMPDEST SWAP3 POP PUSH2 0x1369 PUSH1 0x20 DUP6 ADD PUSH2 0x128E JUMP JUMPDEST SWAP2 POP PUSH1 0x40 DUP5 ADD CALLDATALOAD SWAP1 POP SWAP3 POP SWAP3 POP SWAP3 JUMP JUMPDEST PUSH1 0x0 DUP1 PUSH1 0x40 DUP4 DUP6 SUB SLT ISZERO PUSH2 0x138C JUMPI PUSH1 0x0 DUP1 REVERT JUMPDEST PUSH2 0x1395 DUP4 PUSH2 0x128E JUMP JUMPDEST SWAP2 POP PUSH1 0x20 DUP4 ADD CALLDATALOAD DUP1 ISZERO ISZERO DUP2 EQ PUSH2 0x13AA JUMPI PUSH1 0x0 DUP1 REVERT JUMPDEST DUP1 SWAP2 POP POP SWAP3 POP SWAP3 SWAP1 POP JUMP JUMPDEST PUSH1 0x0 DUP1 PUSH1 0x40 DUP4 DUP6 SUB SLT ISZERO PUSH2 0x13C8 JUMPI PUSH1 0x0 DUP1 REVERT JUMPDEST PUSH2 0x13D1 DUP4 PUSH2 0x128E JUMP JUMPDEST SWAP2 POP PUSH2 0x13DF PUSH1 0x20 DUP5 ADD PUSH2 0x128E JUMP JUMPDEST SWAP1 POP SWAP3 POP SWAP3 SWAP1 POP JUMP JUMPDEST PUSH1 0x1 DUP2 DUP2 SHR SWAP1 DUP3 AND DUP1 PUSH2 0x13FC JUMPI PUSH1 0x7F DUP3 AND SWAP2 POP JUMPDEST PUSH1 0x20 DUP3 LT DUP2 SUB PUSH2 0x141C JUMPI PUSH4 0x4E487B71 PUSH1 0xE0 SHL PUSH1 0x0 MSTORE PUSH1 0x22 PUSH1 0x4 MSTORE PUSH1 0x24 PUSH1 0x0 REVERT JUMPDEST POP SWAP2 SWAP1 POP JUMP JUMPDEST PUSH4 0x4E487B71 PUSH1 0xE0 SHL PUSH1 0x0 MSTORE PUSH1 0x11 PUSH1 0x4 MSTORE PUSH1 0x24 PUSH1 0x0 REVERT JUMPDEST DUP1 DUP3 ADD DUP1 DUP3 GT ISZERO PUSH2 0x4E7 JUMPI PUSH2 0x4E7 PUSH2 0x1422 JUMP JUMPDEST DUP2 DUP2 SUB DUP2 DUP2 GT ISZERO PUSH2 0x4E7 JUMPI PUSH2 0x4E7 PUSH2 0x1422 JUMP JUMPDEST DUP1 DUP3 MUL DUP2 ISZERO DUP3 DUP3 DIV DUP5 EQ OR PUSH2 0x4E7 JUMPI PUSH2 0x4E7 PUSH2 0x1422 JUMP JUMPDEST PUSH1 0x0 DUP3 PUSH2 0x1492 JUMPI PUSH4 0x4E487B71 PUSH1 0xE0 SHL PUSH1 0x0 MSTORE PUSH1 0x12 PUSH1 0x4 MSTORE PUSH1 0x24 PUSH1 0x0 REVERT JUMPDEST POP DIV SWAP1 JUMP INVALID GASLIMIT MSTORE NUMBER ORIGIN ADDRESS GASPRICE KECCAK256 PUSH21 0x72616E7366657220616D6F756E7420657863656564 PUSH20 0x20616C6C6F77616E6365DDF252AD1BE2C89B69C2 0xB0 PUSH9 0xFC378DAA952BA7F163 0xC4 LOG1 AND 0x28 CREATE2 GAS 0x4D CREATE2 0x23 0xB3 0xEF GASLIMIT MSTORE NUMBER ORIGIN ADDRESS GASPRICE KECCAK256 PUSH5 0x6563726561 PUSH20 0x656420616C6C6F77616E63652062656C6F77207A PUSH6 0x726FA2646970 PUSH7 0x73582212203328 0x5E PUSH21 0x707A7872ED6036AD23DE40A0A8E9C886C57A84A648 0xEB 0xAC PUSH9 0xB2E9290464736F6C63 NUMBER STOP ADDMOD SGT STOP CALLER "
				},
				"gasEstimates": {
					"creation": {
						"codeDepositCost": "1086800",
						"executionCost": "infinite",
						"totalCost": "infinite"
					},
					"external": {
						"ExcludedFromFee(address,bool)": "26882",
						"IncludeInFee(address,bool)": "26941",
						"_burningFee()": "2351",
						"_burningFeeTotal()": "2350",
						"_charity()": "2396",
						"_charityTotal()": "2373",
						"_inbetweenFeeTotal()": "2351",
						"_inbetweenFee_()": "2328",
						"_lockTimestamp(address)": "2555",
						"_lpFee()": "2330",
						"_lpFeeTotal()": "2396",
						"allowance(address,address)": "infinite",
						"approve(address,uint256)": "24688",
						"balanceOf(address)": "2572",
						"burningAddress()": "2382",
						"charityAddress()": "2426",
						"decimals()": "2357",
						"decreaseAllowance(address,uint256)": "infinite",
						"inbetweenAddress()": "2427",
						"increaseAllowance(address,uint256)": "infinite",
						"lpAddress()": "2426",
						"maxWalletBalance()": "2395",
						"name()": "infinite",
						"owner()": "2376",
						"renounceOwnership()": "infinite",
						"setLPAddress(address)": "28978",
						"symbol()": "infinite",
						"totalSupply()": "2349",
						"transfer(address,uint256)": "infinite",
						"transferFrom(address,address,uint256)": "infinite",
						"transferOwnership(address)": "28443"
					},
					"internal": {
						"SellCollectFee(address,uint256)": "infinite",
						"_approve(address,address,uint256)": "infinite",
						"_transfer(address,address,uint256)": "infinite",
						"betweenCollectFee(address,uint256)": "infinite",
						"buyCollectFee(address,uint256)": "infinite"
					}
				},
				"methodIdentifiers": {
					"ExcludedFromFee(address,bool)": "2d43abd8",
					"IncludeInFee(address,bool)": "6c726137",
					"_burningFee()": "ad0a00aa",
					"_burningFeeTotal()": "ceae0e8d",
					"_charity()": "82d99cb1",
					"_charityTotal()": "52db1ca4",
					"_inbetweenFeeTotal()": "4f8244f4",
					"_inbetweenFee_()": "bcac9176",
					"_lockTimestamp(address)": "02fb4880",
					"_lpFee()": "15c93a7d",
					"_lpFeeTotal()": "27364d21",
					"allowance(address,address)": "dd62ed3e",
					"approve(address,uint256)": "095ea7b3",
					"balanceOf(address)": "70a08231",
					"burningAddress()": "48112396",
					"charityAddress()": "afcf2fc4",
					"decimals()": "313ce567",
					"decreaseAllowance(address,uint256)": "a457c2d7",
					"inbetweenAddress()": "3871ef64",
					"increaseAllowance(address,uint256)": "39509351",
					"lpAddress()": "9b4dc8cc",
					"maxWalletBalance()": "bbde77c1",
					"name()": "06fdde03",
					"owner()": "8da5cb5b",
					"renounceOwnership()": "715018a6",
					"setLPAddress(address)": "7a351a1d",
					"symbol()": "95d89b41",
					"totalSupply()": "18160ddd",
					"transfer(address,uint256)": "a9059cbb",
					"transferFrom(address,address,uint256)": "23b872dd",
					"transferOwnership(address)": "f2fde38b"
				}
			},
			"storageLayout": {
				"storage": [
					{
						"astId": 338,
						"contract": "Task1/Mem.sol:MemEthereum",
						"label": "_owner",
						"offset": 0,
						"slot": "0",
						"type": "t_address"
					},
					{
						"astId": 521,
						"contract": "Task1/Mem.sol:MemEthereum",
						"label": "_name",
						"offset": 0,
						"slot": "1",
						"type": "t_string_storage"
					},
					{
						"astId": 524,
						"contract": "Task1/Mem.sol:MemEthereum",
						"label": "_symbol",
						"offset": 0,
						"slot": "2",
						"type": "t_string_storage"
					},
					{
						"astId": 527,
						"contract": "Task1/Mem.sol:MemEthereum",
						"label": "_decimals",
						"offset": 0,
						"slot": "3",
						"type": "t_uint8"
					},
					{
						"astId": 531,
						"contract": "Task1/Mem.sol:MemEthereum",
						"label": "_balances",
						"offset": 0,
						"slot": "4",
						"type": "t_mapping(t_address,t_uint256)"
					},
					{
						"astId": 537,
						"contract": "Task1/Mem.sol:MemEthereum",
						"label": "_allowances",
						"offset": 0,
						"slot": "5",
						"type": "t_mapping(t_address,t_mapping(t_address,t_uint256))"
					},
					{
						"astId": 541,
						"contract": "Task1/Mem.sol:MemEthereum",
						"label": "isExcludedFromFee",
						"offset": 0,
						"slot": "6",
						"type": "t_mapping(t_address,t_bool)"
					},
					{
						"astId": 545,
						"contract": "Task1/Mem.sol:MemEthereum",
						"label": "_lockTimestamp",
						"offset": 0,
						"slot": "7",
						"type": "t_mapping(t_address,t_uint256)"
					},
					{
						"astId": 552,
						"contract": "Task1/Mem.sol:MemEthereum",
						"label": "_totalSupply",
						"offset": 0,
						"slot": "8",
						"type": "t_uint256"
					},
					{
						"astId": 555,
						"contract": "Task1/Mem.sol:MemEthereum",
						"label": "_charity",
						"offset": 0,
						"slot": "9",
						"type": "t_uint256"
					},
					{
						"astId": 558,
						"contract": "Task1/Mem.sol:MemEthereum",
						"label": "_burningFee",
						"offset": 0,
						"slot": "10",
						"type": "t_uint256"
					},
					{
						"astId": 561,
						"contract": "Task1/Mem.sol:MemEthereum",
						"label": "_lpFee",
						"offset": 0,
						"slot": "11",
						"type": "t_uint256"
					},
					{
						"astId": 564,
						"contract": "Task1/Mem.sol:MemEthereum",
						"label": "_inbetweenFee_",
						"offset": 0,
						"slot": "12",
						"type": "t_uint256"
					},
					{
						"astId": 566,
						"contract": "Task1/Mem.sol:MemEthereum",
						"label": "_charityTotal",
						"offset": 0,
						"slot": "13",
						"type": "t_uint256"
					},
					{
						"astId": 568,
						"contract": "Task1/Mem.sol:MemEthereum",
						"label": "_burningFeeTotal",
						"offset": 0,
						"slot": "14",
						"type": "t_uint256"
					},
					{
						"astId": 570,
						"contract": "Task1/Mem.sol:MemEthereum",
						"label": "_lpFeeTotal",
						"offset": 0,
						"slot": "15",
						"type": "t_uint256"
					},
					{
						"astId": 572,
						"contract": "Task1/Mem.sol:MemEthereum",
						"label": "_inbetweenFeeTotal",
						"offset": 0,
						"slot": "16",
						"type": "t_uint256"
					},
					{
						"astId": 575,
						"contract": "Task1/Mem.sol:MemEthereum",
						"label": "charityAddress",
						"offset": 0,
						"slot": "17",
						"type": "t_address"
					},
					{
						"astId": 578,
						"contract": "Task1/Mem.sol:MemEthereum",
						"label": "burningAddress",
						"offset": 0,
						"slot": "18",
						"type": "t_address"
					},
					{
						"astId": 580,
						"contract": "Task1/Mem.sol:MemEthereum",
						"label": "lpAddress",
						"offset": 0,
						"slot": "19",
						"type": "t_address"
					},
					{
						"astId": 583,
						"contract": "Task1/Mem.sol:MemEthereum",
						"label": "inbetweenAddress",
						"offset": 0,
						"slot": "20",
						"type": "t_address"
					},
					{
						"astId": 590,
						"contract": "Task1/Mem.sol:MemEthereum",
						"label": "maxWalletBalance",
						"offset": 0,
						"slot": "21",
						"type": "t_uint256"
					}
				],
				"types": {
					"t_address": {
						"encoding": "inplace",
						"label": "address",
						"numberOfBytes": "20"
					},
					"t_bool": {
						"encoding": "inplace",
						"label": "bool",
						"numberOfBytes": "1"
					},
					"t_mapping(t_address,t_bool)": {
						"encoding": "mapping",
						"key": "t_address",
						"label": "mapping(address => bool)",
						"numberOfBytes": "32",
						"value": "t_bool"
					},
					"t_mapping(t_address,t_mapping(t_address,t_uint256))": {
						"encoding": "mapping",
						"key": "t_address",
						"label": "mapping(address => mapping(address => uint256))",
						"numberOfBytes": "32",
						"value": "t_mapping(t_address,t_uint256)"
					},
					"t_mapping(t_address,t_uint256)": {
						"encoding": "mapping",
						"key": "t_address",
						"label": "mapping(address => uint256)",
						"numberOfBytes": "32",
						"value": "t_uint256"
					},
					"t_string_storage": {
						"encoding": "bytes",
						"label": "string",
						"numberOfBytes": "32"
					},
					"t_uint256": {
						"encoding": "inplace",
						"label": "uint256",
						"numberOfBytes": "32"
					},
					"t_uint8": {
						"encoding": "inplace",
						"label": "uint8",
						"numberOfBytes": "1"
					}
				}
			},
			"userdoc": {
				"kind": "user",
				"methods": {},
				"version": 1
			}
		}
	}
}